{"contracts/MemoryAccessNFT.sol":{"MemoryAccessNFT":{"abi":[{"inputs":[{"internalType":"string","name":"name","type":"string"},{"internalType":"string","name":"symbol","type":"string"},{"internalType":"address","name":"_memoryRegistry","type":"address"}],"stateMutability":"nonpayable","type":"constructor"},{"inputs":[],"name":"ERC721EnumerableForbiddenBatchMint","type":"error"},{"inputs":[{"internalType":"address","name":"sender","type":"address"},{"internalType":"uint256","name":"tokenId","type":"uint256"},{"internalType":"address","name":"owner","type":"address"}],"name":"ERC721IncorrectOwner","type":"error"},{"inputs":[{"internalType":"address","name":"operator","type":"address"},{"internalType":"uint256","name":"tokenId","type":"uint256"}],"name":"ERC721InsufficientApproval","type":"error"},{"inputs":[{"internalType":"address","name":"approver","type":"address"}],"name":"ERC721InvalidApprover","type":"error"},{"inputs":[{"internalType":"address","name":"operator","type":"address"}],"name":"ERC721InvalidOperator","type":"error"},{"inputs":[{"internalType":"address","name":"owner","type":"address"}],"name":"ERC721InvalidOwner","type":"error"},{"inputs":[{"internalType":"address","name":"receiver","type":"address"}],"name":"ERC721InvalidReceiver","type":"error"},{"inputs":[{"internalType":"address","name":"sender","type":"address"}],"name":"ERC721InvalidSender","type":"error"},{"inputs":[{"internalType":"uint256","name":"tokenId","type":"uint256"}],"name":"ERC721NonexistentToken","type":"error"},{"inputs":[{"internalType":"address","name":"owner","type":"address"},{"internalType":"uint256","name":"index","type":"uint256"}],"name":"ERC721OutOfBoundsIndex","type":"error"},{"inputs":[{"internalType":"address","name":"owner","type":"address"}],"name":"OwnableInvalidOwner","type":"error"},{"inputs":[{"internalType":"address","name":"account","type":"address"}],"name":"OwnableUnauthorizedAccount","type":"error"},{"inputs":[],"name":"ReentrancyGuardReentrantCall","type":"error"},{"anonymous":false,"inputs":[{"indexed":true,"internalType":"address","name":"owner","type":"address"},{"indexed":true,"internalType":"address","name":"approved","type":"address"},{"indexed":true,"internalType":"uint256","name":"tokenId","type":"uint256"}],"name":"Approval","type":"event"},{"anonymous":false,"inputs":[{"indexed":true,"internalType":"address","name":"owner","type":"address"},{"indexed":true,"internalType":"address","name":"operator","type":"address"},{"indexed":false,"internalType":"bool","name":"approved","type":"bool"}],"name":"ApprovalForAll","type":"event"},{"anonymous":false,"inputs":[{"indexed":true,"internalType":"uint256","name":"tokenId","type":"uint256"},{"indexed":true,"internalType":"bytes32","name":"targetParticipant","type":"bytes32"},{"indexed":true,"internalType":"bytes32","name":"recipient","type":"bytes32"},{"indexed":false,"internalType":"string","name":"accessLevel","type":"string"},{"indexed":false,"internalType":"uint256","name":"expiration","type":"uint256"}],"name":"CredentialIssued","type":"event"},{"anonymous":false,"inputs":[{"indexed":true,"internalType":"uint256","name":"tokenId","type":"uint256"},{"indexed":false,"internalType":"uint256","name":"newExpiration","type":"uint256"}],"name":"CredentialRenewed","type":"event"},{"anonymous":false,"inputs":[{"indexed":true,"internalType":"uint256","name":"tokenId","type":"uint256"},{"indexed":true,"internalType":"bytes32","name":"targetParticipant","type":"bytes32"},{"indexed":false,"internalType":"string","name":"reason","type":"string"}],"name":"CredentialRevoked","type":"event"},{"anonymous":false,"inputs":[{"indexed":true,"internalType":"address","name":"previousOwner","type":"address"},{"indexed":true,"internalType":"address","name":"newOwner","type":"address"}],"name":"OwnershipTransferred","type":"event"},{"anonymous":false,"inputs":[{"indexed":true,"internalType":"address","name":"newRegistry","type":"address"}],"name":"RegistryUpdated","type":"event"},{"anonymous":false,"inputs":[{"indexed":true,"internalType":"address","name":"from","type":"address"},{"indexed":true,"internalType":"address","name":"to","type":"address"},{"indexed":true,"internalType":"uint256","name":"tokenId","type":"uint256"}],"name":"Transfer","type":"event"},{"inputs":[{"internalType":"address","name":"to","type":"address"},{"internalType":"uint256","name":"tokenId","type":"uint256"}],"name":"approve","outputs":[],"stateMutability":"nonpayable","type":"function"},{"inputs":[{"internalType":"address","name":"owner","type":"address"}],"name":"balanceOf","outputs":[{"internalType":"uint256","name":"","type":"uint256"}],"stateMutability":"view","type":"function"},{"inputs":[{"internalType":"address[]","name":"recipients","type":"address[]"},{"internalType":"bytes32","name":"targetParticipant","type":"bytes32"},{"internalType":"uint256","name":"expiration","type":"uint256"},{"internalType":"string","name":"accessLevel","type":"string"},{"internalType":"bool","name":"revocable","type":"bool"}],"name":"batchIssueCredentials","outputs":[{"internalType":"uint256[]","name":"tokenIds","type":"uint256[]"}],"stateMutability":"nonpayable","type":"function"},{"inputs":[{"internalType":"uint256","name":"","type":"uint256"}],"name":"credentials","outputs":[{"internalType":"bytes32","name":"targetParticipant","type":"bytes32"},{"internalType":"uint256","name":"expiration","type":"uint256"},{"internalType":"string","name":"accessLevel","type":"string"},{"internalType":"string","name":"metadataURI","type":"string"},{"internalType":"bool","name":"revocable","type":"bool"},{"internalType":"uint256","name":"issuedAt","type":"uint256"}],"stateMutability":"view","type":"function"},{"inputs":[{"internalType":"uint256","name":"tokenId","type":"uint256"}],"name":"getApproved","outputs":[{"internalType":"address","name":"","type":"address"}],"stateMutability":"view","type":"function"},{"inputs":[{"internalType":"address","name":"owner","type":"address"}],"name":"getCredentialsByOwner","outputs":[{"internalType":"uint256[]","name":"tokenIds","type":"uint256[]"},{"components":[{"internalType":"bytes32","name":"targetParticipant","type":"bytes32"},{"internalType":"uint256","name":"expiration","type":"uint256"},{"internalType":"string","name":"accessLevel","type":"string"},{"internalType":"string","name":"metadataURI","type":"string"},{"internalType":"bool","name":"revocable","type":"bool"},{"internalType":"uint256","name":"issuedAt","type":"uint256"}],"internalType":"struct MemoryAccessNFT.AccessCredential[]","name":"creds","type":"tuple[]"}],"stateMutability":"view","type":"function"},{"inputs":[{"internalType":"address","name":"requester","type":"address"},{"internalType":"bytes32","name":"targetParticipant","type":"bytes32"},{"internalType":"string","name":"requiredLevel","type":"string"}],"name":"hasAccess","outputs":[{"internalType":"bool","name":"","type":"bool"}],"stateMutability":"view","type":"function"},{"inputs":[{"internalType":"bytes32","name":"","type":"bytes32"},{"internalType":"bytes32","name":"","type":"bytes32"}],"name":"hasCredential","outputs":[{"internalType":"bool","name":"","type":"bool"}],"stateMutability":"view","type":"function"},{"inputs":[{"internalType":"address","name":"owner","type":"address"},{"internalType":"address","name":"operator","type":"address"}],"name":"isApprovedForAll","outputs":[{"internalType":"bool","name":"","type":"bool"}],"stateMutability":"view","type":"function"},{"inputs":[{"internalType":"address","name":"recipient","type":"address"},{"internalType":"bytes32","name":"targetParticipant","type":"bytes32"},{"internalType":"uint256","name":"expiration","type":"uint256"},{"internalType":"string","name":"accessLevel","type":"string"},{"internalType":"string","name":"metadataURI","type":"string"},{"internalType":"bool","name":"revocable","type":"bool"}],"name":"issueCredential","outputs":[{"internalType":"uint256","name":"tokenId","type":"uint256"}],"stateMutability":"nonpayable","type":"function"},{"inputs":[],"name":"memoryRegistry","outputs":[{"internalType":"address","name":"","type":"address"}],"stateMutability":"view","type":"function"},{"inputs":[],"name":"name","outputs":[{"internalType":"string","name":"","type":"string"}],"stateMutability":"view","type":"function"},{"inputs":[],"name":"owner","outputs":[{"internalType":"address","name":"","type":"address"}],"stateMutability":"view","type":"function"},{"inputs":[{"internalType":"uint256","name":"tokenId","type":"uint256"}],"name":"ownerOf","outputs":[{"internalType":"address","name":"","type":"address"}],"stateMutability":"view","type":"function"},{"inputs":[{"internalType":"uint256","name":"tokenId","type":"uint256"},{"internalType":"uint256","name":"newExpiration","type":"uint256"}],"name":"renewCredential","outputs":[],"stateMutability":"nonpayable","type":"function"},{"inputs":[],"name":"renounceOwnership","outputs":[],"stateMutability":"nonpayable","type":"function"},{"inputs":[{"internalType":"uint256","name":"tokenId","type":"uint256"},{"internalType":"string","name":"reason","type":"string"}],"name":"revokeCredential","outputs":[],"stateMutability":"nonpayable","type":"function"},{"inputs":[{"internalType":"address","name":"from","type":"address"},{"internalType":"address","name":"to","type":"address"},{"internalType":"uint256","name":"tokenId","type":"uint256"}],"name":"safeTransferFrom","outputs":[],"stateMutability":"nonpayable","type":"function"},{"inputs":[{"internalType":"address","name":"from","type":"address"},{"internalType":"address","name":"to","type":"address"},{"internalType":"uint256","name":"tokenId","type":"uint256"},{"internalType":"bytes","name":"data","type":"bytes"}],"name":"safeTransferFrom","outputs":[],"stateMutability":"nonpayable","type":"function"},{"inputs":[{"internalType":"address","name":"operator","type":"address"},{"internalType":"bool","name":"approved","type":"bool"}],"name":"setApprovalForAll","outputs":[],"stateMutability":"nonpayable","type":"function"},{"inputs":[{"internalType":"bytes4","name":"interfaceId","type":"bytes4"}],"name":"supportsInterface","outputs":[{"internalType":"bool","name":"","type":"bool"}],"stateMutability":"view","type":"function"},{"inputs":[],"name":"symbol","outputs":[{"internalType":"string","name":"","type":"string"}],"stateMutability":"view","type":"function"},{"inputs":[{"internalType":"uint256","name":"index","type":"uint256"}],"name":"tokenByIndex","outputs":[{"internalType":"uint256","name":"","type":"uint256"}],"stateMutability":"view","type":"function"},{"inputs":[{"internalType":"address","name":"owner","type":"address"},{"internalType":"uint256","name":"index","type":"uint256"}],"name":"tokenOfOwnerByIndex","outputs":[{"internalType":"uint256","name":"","type":"uint256"}],"stateMutability":"view","type":"function"},{"inputs":[{"internalType":"uint256","name":"tokenId","type":"uint256"}],"name":"tokenURI","outputs":[{"internalType":"string","name":"","type":"string"}],"stateMutability":"view","type":"function"},{"inputs":[],"name":"totalSupply","outputs":[{"internalType":"uint256","name":"","type":"uint256"}],"stateMutability":"view","type":"function"},{"inputs":[{"internalType":"address","name":"from","type":"address"},{"internalType":"address","name":"to","type":"address"},{"internalType":"uint256","name":"tokenId","type":"uint256"}],"name":"transferFrom","outputs":[],"stateMutability":"nonpayable","type":"function"},{"inputs":[{"internalType":"address","name":"newOwner","type":"address"}],"name":"transferOwnership","outputs":[],"stateMutability":"nonpayable","type":"function"},{"inputs":[{"internalType":"address","name":"newRegistry","type":"address"}],"name":"updateRegistry","outputs":[],"stateMutability":"nonpayable","type":"function"}],"evm":{"bytecode":{"linkReferences":{},"object":"608060405234801561000f575f80fd5b506040516135cd3803806135cd83398101604081905261002e916101bd565b3383835f61003c83826102c6565b50600161004982826102c6565b5050506001600160a01b03811661007957604051631e4fbdf760e01b81525f600482015260240160405180910390fd5b610082816100cf565b5060017f9b779b17422d0df92223018b32b4d1fa46e071723d6817e2486d003becc55f0055600e80546001600160a01b0319166001600160a01b0392909216919091179055506103809050565b600a80546001600160a01b038381166001600160a01b0319831681179093556040519116919082907f8be0079c531659141344cd1fd0a4f28419497f9722a3daafe3b4186f6b6457e0905f90a35050565b634e487b7160e01b5f52604160045260245ffd5b5f82601f830112610143575f80fd5b81516001600160401b0381111561015c5761015c610120565b604051601f8201601f19908116603f011681016001600160401b038111828210171561018a5761018a610120565b6040528181528382016020018510156101a1575f80fd5b8160208501602083015e5f918101602001919091529392505050565b5f805f606084860312156101cf575f80fd5b83516001600160401b038111156101e4575f80fd5b6101f086828701610134565b602086015190945090506001600160401b0381111561020d575f80fd5b61021986828701610134565b604086015190935090506001600160a01b0381168114610237575f80fd5b809150509250925092565b600181811c9082168061025657607f821691505b60208210810361027457634e487b7160e01b5f52602260045260245ffd5b50919050565b601f8211156102c157805f5260205f20601f840160051c8101602085101561029f5750805b601f840160051c820191505b818110156102be575f81556001016102ab565b50505b505050565b81516001600160401b038111156102df576102df610120565b6102f3816102ed8454610242565b8461027a565b6020601f821160018114610325575f831561030e5750848201515b5f19600385901b1c1916600184901b1784556102be565b5f84815260208120601f198516915b828110156103545787850151825560209485019460019092019101610334565b508482101561037157868401515f19600387901b60f8161c191681555b50505050600190811b01905550565b6132408061038d5f395ff3fe608060405234801561000f575f80fd5b50600436106101c6575f3560e01c8063957a3205116100fe578063b88d4fde1161009e578063cd05dfbc1161006e578063cd05dfbc146103f2578063e0574e3f14610405578063e985e9c51461042a578063f2fde38b1461043d575f80fd5b8063b88d4fde14610398578063c87b56dd146103ab578063c96015db146103be578063c99c2fdf146103df575f80fd5b8063a22cb465116100d9578063a22cb46514610325578063af8ca1a714610338578063affda6c914610358578063b4b7580d14610385575f80fd5b8063957a3205146102f757806395d89b411461030a57806396cde35514610312575f80fd5b80632f745c59116101695780636352211e116101445780636352211e146102b857806370a08231146102cb578063715018a6146102de5780638da5cb5b146102e6575f80fd5b80632f745c591461027f57806342842e0e146102925780634f6ccce7146102a5575f80fd5b8063095ea7b3116101a4578063095ea7b31461023257806318160ddd146102475780631a5da6c81461025957806323b872dd1461026c575f80fd5b806301ffc9a7146101ca57806306fdde03146101f2578063081812fc14610207575b5f80fd5b6101dd6101d8366004612649565b610450565b60405190151581526020015b60405180910390f35b6101fa610460565b6040516101e99190612692565b61021a6102153660046126a4565b6104ef565b6040516001600160a01b0390911681526020016101e9565b6102456102403660046126d6565b610516565b005b6008545b6040519081526020016101e9565b6102456102673660046126fe565b610525565b61024561027a366004612717565b610576565b61024b61028d3660046126d6565b610604565b6102456102a0366004612717565b610667565b61024b6102b33660046126a4565b610686565b61021a6102c63660046126a4565b6106db565b61024b6102d93660046126fe565b6106e5565b61024561072a565b600a546001600160a01b031661021a565b610245610305366004612795565b61073d565b6101fa610925565b600e5461021a906001600160a01b031681565b6102456103333660046127eb565b610934565b61034b61034636600461281c565b61093f565b6040516101e99190612914565b6101dd610366366004612926565b600c60209081525f928352604080842090915290825290205460ff1681565b6101dd610393366004612946565b610a55565b6102456103a63660046129af565b610bad565b6101fa6103b93660046126a4565b610bc5565b6103d16103cc3660046126fe565b610cec565b6040516101e9929190612a89565b6102456103ed366004612926565b610f93565b61024b610400366004612b4e565b6110e9565b6104186104133660046126a4565b611450565b6040516101e996959493929190612bee565b6101dd610438366004612c34565b611594565b61024561044b3660046126fe565b6115c1565b5f61045a826115fe565b92915050565b60605f805461046e90612c5c565b80601f016020809104026020016040519081016040528092919081815260200182805461049a90612c5c565b80156104e55780601f106104bc576101008083540402835291602001916104e5565b820191905f5260205f20905b8154815290600101906020018083116104c857829003601f168201915b5050505050905090565b5f6104f982611622565b505f828152600460205260409020546001600160a01b031661045a565b61052182823361165a565b5050565b61052d611667565b600e80546001600160a01b0319166001600160a01b0383169081179091556040517fd6ceddf6d2a22f21c7c81675c518004eff43bc5c8a6fc32a0b748e69d58671cd905f90a250565b6001600160a01b0382166105a457604051633250574960e11b81525f60048201526024015b60405180910390fd5b5f6105b0838333611694565b9050836001600160a01b0316816001600160a01b0316146105fe576040516364283d7b60e01b81526001600160a01b038086166004830152602482018490528216604482015260640161059b565b50505050565b5f61060e836106e5565b821061063f5760405163295f44f760e21b81526001600160a01b03841660048201526024810183905260440161059b565b506001600160a01b03919091165f908152600660209081526040808320938352929052205490565b61068183838360405180602001604052805f815250610bad565b505050565b5f61069060085490565b82106106b85760405163295f44f760e21b81525f60048201526024810183905260440161059b565b600882815481106106cb576106cb612c94565b905f5260205f2001549050919050565b5f61045a82611622565b5f6001600160a01b03821661070f576040516322718ad960e21b81525f600482015260240161059b565b506001600160a01b03165f9081526003602052604090205490565b610732611667565b61073b5f611774565b565b6107456117c5565b5f838152600260205260409020546001600160a01b03166107a45760405162461bcd60e51b815260206004820152601960248201527810dc9959195b9d1a585b08191bd95cc81b9bdd08195e1a5cdd603a1b604482015260640161059b565b5f838152600b60205260409020600481015460ff166108055760405162461bcd60e51b815260206004820152601b60248201527f43726564656e7469616c206973206e6f74207265766f6361626c650000000000604482015260640161059b565b5f61080f856106db565b9050336001600160a01b0382161480610830575061083033835f01546117e0565b61087c5760405162461bcd60e51b815260206004820152601860248201527f4e6f7420617574686f72697a656420746f207265766f6b650000000000000000604482015260640161059b565b5f8160405160200161088e9190612ca8565b60408051601f19818403018152918152815160209283012085545f908152600c84528281208282529093529120805460ff1916905590506108ce8661180f565b825f0154867f434cf493785e8bf15f783f381ea893196a735a6baac38b2c67a7a4dda3f9a4ed8787604051610904929190612ced565b60405180910390a350505061068160015f805160206131eb83398151915255565b60606001805461046e90612c5c565b610521338383611847565b60606109496117c5565b866001600160401b038111156109615761096161299b565b60405190808252806020026020018201604052801561098a578160200160208202803683370190505b5090505f5b87811015610a3357610a0e8989838181106109ac576109ac612c94565b90506020020160208101906109c191906126fe565b888888888080601f0160208091040260200160405190810160405280939291908181526020018383808284375f920182905250604080516020810190915290815292508a915061190e9050565b828281518110610a2057610a20612c94565b602090810291909101015260010161098f565b50610a4a60015f805160206131eb83398151915255565b979650505050505050565b5f80610a60866106e5565b90505f5b81811015610b9f575f610a778883610604565b5f818152600b602052604090208054919250908814610a97575050610b97565b5f8160010154118015610aad5750806001015442115b15610ab9575050610b97565b610b82816002018054610acb90612c5c565b80601f0160208091040260200160405190810160405280929190818152602001828054610af790612c5c565b8015610b425780601f10610b1957610100808354040283529160200191610b42565b820191905f5260205f20905b815481529060010190602001808311610b2557829003601f168201915b505050505088888080601f0160208091040260200160405190810160405280939291908181526020018383808284375f92019190915250611a5492505050565b15610b94576001945050505050610ba5565b50505b600101610a64565b505f9150505b949350505050565b610bb8848484610576565b6105fe3385858585611c1d565b5f818152600260205260409020546060906001600160a01b0316610c225760405162461bcd60e51b8152602060048201526014602482015273151bdad95b88191bd95cc81b9bdd08195e1a5cdd60621b604482015260640161059b565b5f828152600b60205260408120600381018054919291610c4190612c5c565b90501115610cdc57806003018054610c5890612c5c565b80601f0160208091040260200160405190810160405280929190818152602001828054610c8490612c5c565b8015610ccf5780601f10610ca657610100808354040283529160200191610ccf565b820191905f5260205f20905b815481529060010190602001808311610cb257829003601f168201915b5050505050915050919050565b610ce583611d45565b9392505050565b6060805f610cf9846106e5565b9050806001600160401b03811115610d1357610d1361299b565b604051908082528060200260200182016040528015610d3c578160200160208202803683370190505b509250806001600160401b03811115610d5757610d5761299b565b604051908082528060200260200182016040528015610dc257816020015b610daf6040518060c001604052805f80191681526020015f815260200160608152602001606081526020015f151581526020015f81525090565b815260200190600190039081610d755790505b5091505f5b81811015610f8c575f610dda8683610604565b905080858381518110610def57610def612c94565b602002602001018181525050600b5f8281526020019081526020015f206040518060c00160405290815f820154815260200160018201548152602001600282018054610e3a90612c5c565b80601f0160208091040260200160405190810160405280929190818152602001828054610e6690612c5c565b8015610eb15780601f10610e8857610100808354040283529160200191610eb1565b820191905f5260205f20905b815481529060010190602001808311610e9457829003601f168201915b50505050508152602001600382018054610eca90612c5c565b80601f0160208091040260200160405190810160405280929190818152602001828054610ef690612c5c565b8015610f415780601f10610f1857610100808354040283529160200191610f41565b820191905f5260205f20905b815481529060010190602001808311610f2457829003601f168201915b5050509183525050600482015460ff16151560208201526005909101546040909101528451859084908110610f7857610f78612c94565b602090810291909101015250600101610dc7565b5050915091565b5f828152600260205260409020546001600160a01b0316610ff25760405162461bcd60e51b815260206004820152601960248201527810dc9959195b9d1a585b08191bd95cc81b9bdd08195e1a5cdd603a1b604482015260640161059b565b610ffc3383611ddb565b6110485760405162461bcd60e51b815260206004820152601760248201527f4e6f7420617574686f72697a656420746f2072656e6577000000000000000000604482015260640161059b565b5f828152600b60205260409020600181015482116110a85760405162461bcd60e51b815260206004820152601c60248201527f4e65772065787069726174696f6e206d757374206265206c6174657200000000604482015260640161059b565b6001810182905560405182815283907f0904a7fadcc0111d8fbde980820d8cbf110e0457eac3b3fa7d4f58d6a4cd890a9060200160405180910390a2505050565b5f6110f26117c5565b846111375760405162461bcd60e51b81526020600482015260156024820152741058d8d95cdcc81b195d995b081c995c5d5a5c9959605a1b604482015260640161059b565b60408051808201825260048152631c99585960e21b602090910152517fe49ede7c272d2d65e6ea541cd18a0e88d67917e802fd62bbfb6a63e7c3529891906111829088908890612d00565b604051809103902014806111e757506040805180820182526005815264777269746560d81b602090910152517fa9fa01c26207c18282c14b44c5f0897b971e27a185537fe05a841a47d4b51454906111dd9088908890612d00565b6040518091039020145b806112435750604080518082018252600581526430b236b4b760d91b602090910152517ff23ec0bb4210edd5cba85afd05127efcd2fc6a781bfed49188da1081670b22d8906112399088908890612d00565b6040518091039020145b6112865760405162461bcd60e51b8152602060048201526014602482015273125b9d985b1a59081858d8d95cdcc81b195d995b60621b604482015260640161059b565b600d8054905f61129583612d23565b9190505590506040518060c0016040528089815260200188815260200187878080601f0160208091040260200160405190810160405280939291908181526020018383808284375f92019190915250505090825250604080516020601f8801819004810282018101909252868152918101919087908790819084018382808284375f92018290525093855250505084151560208084019190915242604093840152848252600b815290829020835181559083015160018201559082015160028201906113619082612d7f565b50606082015160038201906113769082612d7f565b50608082015160048201805460ff191691151591909117905560a0909101516005909101556040515f906113ae908b90602001612ca8565b60408051601f1981840301815291815281516020928301205f8c8152600c84528281208282529093529120805460ff1916600117905590506113f08a83611e10565b8089837e378ae68c594277665841034dc68781ab7b07dc963a3533bd9dcc398d771d248a8a8d60405161142593929190612e39565b60405180910390a45061144460015f805160206131eb83398151915255565b98975050505050505050565b600b6020525f90815260409020805460018201546002830180549293919261147790612c5c565b80601f01602080910402602001604051908101604052809291908181526020018280546114a390612c5c565b80156114ee5780601f106114c5576101008083540402835291602001916114ee565b820191905f5260205f20905b8154815290600101906020018083116114d157829003601f168201915b50505050509080600301805461150390612c5c565b80601f016020809104026020016040519081016040528092919081815260200182805461152f90612c5c565b801561157a5780601f106115515761010080835404028352916020019161157a565b820191905f5260205f20905b81548152906001019060200180831161155d57829003601f168201915b505050506004830154600590930154919260ff1691905086565b6001600160a01b039182165f90815260056020908152604080832093909416825291909152205460ff1690565b6115c9611667565b6001600160a01b0381166115f257604051631e4fbdf760e01b81525f600482015260240161059b565b6115fb81611774565b50565b5f6001600160e01b0319821663780e9d6360e01b148061045a575061045a82611e29565b5f818152600260205260408120546001600160a01b03168061045a57604051637e27328960e01b81526004810184905260240161059b565b6106818383836001611e78565b600a546001600160a01b0316331461073b5760405163118cdaa760e01b815233600482015260240161059b565b5f806116a1858585611f7c565b90506001600160a01b038116158015906116c357506001600160a01b03851615155b15610ba5575f848152600b6020908152604080832090519092916116e991859101612ca8565b6040516020818303038152906040528051906020012090505f876040516020016117139190612ca8565b60408051601f19818403018152918152815160209283012085545f908152600c808552838220968252958452828120805460ff1990811690915596548152948352818520908552909152909120805490921660011790915550949350505050565b600a80546001600160a01b038381166001600160a01b0319831681179093556040519116919082907f8be0079c531659141344cd1fd0a4f28419497f9722a3daafe3b4186f6b6457e0905f90a35050565b6117cd612047565b60025f805160206131eb83398151915255565b5f6117f3600a546001600160a01b031690565b6001600160a01b0316836001600160a01b031614905092915050565b5f61181b5f835f611694565b90506001600160a01b03811661052157604051637e27328960e01b81526004810183905260240161059b565b6001600160a01b0383166118705760405163a9fbf51f60e01b81525f600482015260240161059b565b6001600160a01b0382166118a257604051630b61174360e31b81526001600160a01b038316600482015260240161059b565b6001600160a01b038381165f81815260056020908152604080832094871680845294825291829020805460ff191686151590811790915591519182527f17307eab39ab6107e8899845ad3d59bd9653f200f220920489ca2b5937696c31910160405180910390a3505050565b600d80545f918261191e83612d23565b909155506040805160c08101825288815260208082018981528284018981526060840189905287151560808501524260a08501525f868152600b909352939091208251815590516001820155915192935091600282019061197f9082612d7f565b50606082015160038201906119949082612d7f565b50608082015160048201805460ff191691151591909117905560a0909101516005909101556040515f906119cc908990602001612ca8565b60408051601f1981840301815291815281516020928301205f8a8152600c84528281208282529093529120805460ff191660011790559050611a0e8883611e10565b8087837e378ae68c594277665841034dc68781ab7b07dc963a3533bd9dcc398d771d24888a604051611a41929190612e5c565b60405180910390a4509695505050505050565b815160208084019190912082518383012060408051808201909152600581526430b236b4b760d91b9301929092525f917f0dc13f44bdef122a3457a502faed81032d039587e4012b6e7725ef7e98f4dd288201611ab65760019250505061045a565b604080518082019091526005815264777269746560d81b6020909101527f5605fe3d9df83e7d7d3eb4bb3a0f768468e1d85e7aac801fa57be5b82b4aebac8201611b89576040805180820190915260048152631c99585960e21b6020909101527fe49ede7c272d2d65e6ea541cd18a0e88d67917e802fd62bbfb6a63e7c3529891811480611b805750604080518082019091526005815264777269746560d81b6020909101527fa9fa01c26207c18282c14b44c5f0897b971e27a185537fe05a841a47d4b5145481145b9250505061045a565b6040805180820190915260048152631c99585960e21b6020909101527f1b612183d8d2d29a1915abe32e75f1772986e817fd029d4404959c183cad676f8201611c13576040805180820190915260048152631c99585960e21b6020909101527fe49ede7c272d2d65e6ea541cd18a0e88d67917e802fd62bbfb6a63e7c352989114915061045a9050565b505f949350505050565b6001600160a01b0383163b15611d3e57604051630a85bd0160e11b81526001600160a01b0384169063150b7a0290611c5f908890889087908790600401612e7d565b6020604051808303815f875af1925050508015611c99575060408051601f3d908101601f19168201909252611c9691810190612eb9565b60015b611d00573d808015611cc6576040519150601f19603f3d011682016040523d82523d5f602084013e611ccb565b606091505b5080515f03611cf857604051633250574960e11b81526001600160a01b038516600482015260240161059b565b805160208201fd5b6001600160e01b03198116630a85bd0160e11b14611d3c57604051633250574960e11b81526001600160a01b038516600482015260240161059b565b505b5050505050565b5f818152600b60205260408120600181015460609290611d845760405180604001604052806007815260200166113732bb32b91160c91b815250611d91565b611d918260010154612076565b9050611d9c84612076565b825460028401908190611dae90612172565b84604051602001611dc3959493929190612f59565b60405160208183030381529060405292505050919050565b5f826001600160a01b0316611def836106db565b6001600160a01b03161480610ce55750600a546001600160a01b03166117f3565b610521828260405180602001604052805f815250612267565b5f6001600160e01b031982166380ac58cd60e01b1480611e5957506001600160e01b03198216635b5e139f60e01b145b8061045a57506301ffc9a760e01b6001600160e01b031983161461045a565b8080611e8c57506001600160a01b03821615155b15611f4d575f611e9b84611622565b90506001600160a01b03831615801590611ec75750826001600160a01b0316816001600160a01b031614155b8015611eda5750611ed88184611594565b155b15611f035760405163a9fbf51f60e01b81526001600160a01b038416600482015260240161059b565b8115611f4b5783856001600160a01b0316826001600160a01b03167f8c5be1e5ebec7d5bd14f71427d1e84f3dd0314c0f7b2291e5b200ac8c7c3b92560405160405180910390a45b505b50505f90815260046020526040902080546001600160a01b0319166001600160a01b0392909216919091179055565b5f80611f8985858561227e565b90506001600160a01b038116611fe557611fe084600880545f838152600960205260408120829055600182018355919091527ff3f7a9fe364faab93b216da50a3214154f22a0a2b415b23a84c8169e8b636ee30155565b612008565b846001600160a01b0316816001600160a01b031614612008576120088185612370565b6001600160a01b0385166120245761201f846123ed565b610ba5565b846001600160a01b0316816001600160a01b031614610ba557610ba58585612494565b5f805160206131eb8339815191525460020361073b57604051633ee5aeb560e01b815260040160405180910390fd5b6060815f0361209c5750506040805180820190915260018152600360fc1b602082015290565b815f5b81156120c557806120af81612d23565b91506120be9050600a83613118565b915061209f565b5f816001600160401b038111156120de576120de61299b565b6040519080825280601f01601f191660200182016040528015612108576020820181803683370190505b5090505b8415610ba55761211d60018361312b565b915061212a600a8661313e565b612135906030613151565b60f81b81838151811061214a5761214a612c94565b60200101906001600160f81b03191690815f1a90535061216b600a86613118565b945061210c565b6040805181815260608181018352915f91906020820181803683370190505090505f5b6020811015612260576121c660108583602081106121b5576121b5612c94565b6121c19291901a613164565b6124e2565b826121d2836002613185565b815181106121e2576121e2612c94565b60200101906001600160f81b03191690815f1a90535061221b601085836020811061220f5761220f612c94565b6121c19291901a61319c565b82612227836002613185565b612232906001613151565b8151811061224257612242612c94565b60200101906001600160f81b03191690815f1a905350600101612195565b5092915050565b612271838361250e565b610681335f858585611c1d565b5f828152600260205260408120546001600160a01b03908116908316156122aa576122aa81848661256f565b6001600160a01b038116156122e4576122c55f855f80611e78565b6001600160a01b0381165f90815260036020526040902080545f190190555b6001600160a01b03851615612312576001600160a01b0385165f908152600360205260409020805460010190555b5f8481526002602052604080822080546001600160a01b0319166001600160a01b0389811691821790925591518793918516917fddf252ad1be2c89b69c2b068fc378daa952ba7f163c4a11628f55a4df523b3ef91a4949350505050565b5f61237a836106e5565b5f838152600760209081526040808320546001600160a01b03881684526006909252909120919250908183146123cf575f83815260208281526040808320548584528184208190558352600790915290208290555b5f938452600760209081526040808620869055938552525081205550565b6008545f906123fe9060019061312b565b5f838152600960205260408120546008805493945090928490811061242557612425612c94565b905f5260205f2001549050806008838154811061244457612444612c94565b5f91825260208083209091019290925582815260099091526040808220849055858252812055600880548061247b5761247b6131bd565b600190038181905f5260205f20015f9055905550505050565b5f60016124a0846106e5565b6124aa919061312b565b6001600160a01b039093165f908152600660209081526040808320868452825280832085905593825260079052919091209190915550565b5f600a8260ff161015612503576124fa8260306131d1565b60f81b92915050565b6124fa8260576131d1565b6001600160a01b03821661253757604051633250574960e11b81525f600482015260240161059b565b5f61254383835f611694565b90506001600160a01b03811615610681576040516339e3563760e11b81525f600482015260240161059b565b61257a8383836125d3565b610681576001600160a01b0383166125a857604051637e27328960e01b81526004810182905260240161059b565b60405163177e802f60e01b81526001600160a01b03831660048201526024810182905260440161059b565b5f6001600160a01b03831615801590610ba55750826001600160a01b0316846001600160a01b0316148061260c575061260c8484611594565b80610ba55750505f908152600460205260409020546001600160a01b03908116911614919050565b6001600160e01b0319811681146115fb575f80fd5b5f60208284031215612659575f80fd5b8135610ce581612634565b5f81518084528060208401602086015e5f602082860101526020601f19601f83011685010191505092915050565b602081525f610ce56020830184612664565b5f602082840312156126b4575f80fd5b5035919050565b80356001600160a01b03811681146126d1575f80fd5b919050565b5f80604083850312156126e7575f80fd5b6126f0836126bb565b946020939093013593505050565b5f6020828403121561270e575f80fd5b610ce5826126bb565b5f805f60608486031215612729575f80fd5b612732846126bb565b9250612740602085016126bb565b929592945050506040919091013590565b5f8083601f840112612761575f80fd5b5081356001600160401b03811115612777575f80fd5b60208301915083602082850101111561278e575f80fd5b9250929050565b5f805f604084860312156127a7575f80fd5b8335925060208401356001600160401b038111156127c3575f80fd5b6127cf86828701612751565b9497909650939450505050565b803580151581146126d1575f80fd5b5f80604083850312156127fc575f80fd5b612805836126bb565b9150612813602084016127dc565b90509250929050565b5f805f805f805f60a0888a031215612832575f80fd5b87356001600160401b03811115612847575f80fd5b8801601f81018a13612857575f80fd5b80356001600160401b0381111561286c575f80fd5b8a60208260051b8401011115612880575f80fd5b60209182019850965088013594506040880135935060608801356001600160401b038111156128ad575f80fd5b6128b98a828b01612751565b90945092506128cc9050608089016127dc565b905092959891949750929550565b5f8151808452602084019350602083015f5b8281101561290a5781518652602095860195909101906001016128ec565b5093949350505050565b602081525f610ce560208301846128da565b5f8060408385031215612937575f80fd5b50508035926020909101359150565b5f805f8060608587031215612959575f80fd5b612962856126bb565b93506020850135925060408501356001600160401b03811115612983575f80fd5b61298f87828801612751565b95989497509550505050565b634e487b7160e01b5f52604160045260245ffd5b5f805f80608085870312156129c2575f80fd5b6129cb856126bb565b93506129d9602086016126bb565b92506040850135915060608501356001600160401b038111156129fa575f80fd5b8501601f81018713612a0a575f80fd5b80356001600160401b03811115612a2357612a2361299b565b604051601f8201601f19908116603f011681016001600160401b0381118282101715612a5157612a5161299b565b604052818152828201602001891015612a68575f80fd5b816020840160208301375f6020838301015280935050505092959194509250565b604081525f612a9b60408301856128da565b828103602084015280845180835260208301915060208160051b840101602087015f5b83811015612b4057601f1986840301855281518051845260208101516020850152604081015160c06040860152612af860c0860182612664565b905060608201518582036060870152612b118282612664565b60808481015115159088015260a093840151939096019290925250506020948501949190910190600101612abe565b509098975050505050505050565b5f805f805f805f8060c0898b031215612b65575f80fd5b612b6e896126bb565b9750602089013596506040890135955060608901356001600160401b03811115612b96575f80fd5b612ba28b828c01612751565b90965094505060808901356001600160401b03811115612bc0575f80fd5b612bcc8b828c01612751565b9094509250612bdf905060a08a016127dc565b90509295985092959890939650565b86815285602082015260c060408201525f612c0c60c0830187612664565b8281036060840152612c1e8187612664565b9415156080840152505060a00152949350505050565b5f8060408385031215612c45575f80fd5b612c4e836126bb565b9150612813602084016126bb565b600181811c90821680612c7057607f821691505b602082108103612c8e57634e487b7160e01b5f52602260045260245ffd5b50919050565b634e487b7160e01b5f52603260045260245ffd5b60609190911b6bffffffffffffffffffffffff1916815260140190565b81835281816020850137505f828201602090810191909152601f909101601f19169091010190565b602081525f610ba5602083018486612cc5565b818382375f9101908152919050565b634e487b7160e01b5f52601160045260245ffd5b5f60018201612d3457612d34612d0f565b5060010190565b601f82111561068157805f5260205f20601f840160051c81016020851015612d605750805b601f840160051c820191505b81811015611d3e575f8155600101612d6c565b81516001600160401b03811115612d9857612d9861299b565b612dac81612da68454612c5c565b84612d3b565b6020601f821160018114612dde575f8315612dc75750848201515b5f19600385901b1c1916600184901b178455611d3e565b5f84815260208120601f198516915b82811015612e0d5787850151825560209485019460019092019101612ded565b5084821015612e2a57868401515f19600387901b60f8161c191681555b50505050600190811b01905550565b604081525f612e4c604083018587612cc5565b9050826020830152949350505050565b604081525f612e6e6040830185612664565b90508260208301529392505050565b6001600160a01b03858116825284166020820152604081018390526080606082018190525f90612eaf90830184612664565b9695505050505050565b5f60208284031215612ec9575f80fd5b8151610ce581612634565b5f81518060208401855e5f93019283525090919050565b5f8154612ef781612c5c565b600182168015612f0e5760018114612f2357612f50565b60ff1983168652811515820286019350612f50565b845f5260205f205f5b83811015612f4857815488820152600190910190602001612f2c565b505081860193505b50505092915050565b7f7b226e616d65223a224d656d6f7279204163636573732043726564656e7469618152626c202360e81b60208201525f612f966023830188612ed4565b7f222c226465736372697074696f6e223a224772616e74732000000000000000008152612fc66018820188612eeb565b7f2061636365737320746f206d656d6f72696573222c2261747472696275746573815262223a5b60e81b60208201527f7b2274726169745f74797065223a22416363657373204c6576656c222c227661602382015265363ab2911d1160d11b604382015290506130396049820187612eeb565b62089f4b60ea1b81527f7b2274726169745f74797065223a22546172676574222c2276616c7565223a226003820190815291506023016130798187612ed4565b62089f4b60ea1b8152915050600381016130f76130e86130e2837f7b2274726169745f74797065223a2245787069726174696f6e222c226469737081527f6c61795f74797065223a2264617465222c2276616c7565223a00000000000000602082015260390190565b87612ed4565b627d5d7d60e81b815260030190565b9998505050505050505050565b634e487b7160e01b5f52601260045260245ffd5b5f8261312657613126613104565b500490565b8181038181111561045a5761045a612d0f565b5f8261314c5761314c613104565b500690565b8082018082111561045a5761045a612d0f565b5f60ff83168061317657613176613104565b8060ff84160491505092915050565b808202811582820484141761045a5761045a612d0f565b5f60ff8316806131ae576131ae613104565b8060ff84160691505092915050565b634e487b7160e01b5f52603160045260245ffd5b60ff818116838216019081111561045a5761045a612d0f56fe9b779b17422d0df92223018b32b4d1fa46e071723d6817e2486d003becc55f00a2646970667358221220fc7c6299f29b6ce45d77bd38e6c2442946d40c3aa7e2c7ccb071a1e19bfe507464736f6c634300081a0033","opcodes":"PUSH1 0x80 PUSH1 0x40 MSTORE CALLVALUE DUP1 ISZERO PUSH2 0xF JUMPI PUSH0 DUP1 REVERT JUMPDEST POP PUSH1 0x40 MLOAD PUSH2 0x35CD CODESIZE SUB DUP1 PUSH2 0x35CD DUP4 CODECOPY DUP2 ADD PUSH1 0x40 DUP2 SWAP1 MSTORE PUSH2 0x2E SWAP2 PUSH2 0x1BD JUMP JUMPDEST CALLER DUP4 DUP4 PUSH0 PUSH2 0x3C DUP4 DUP3 PUSH2 0x2C6 JUMP JUMPDEST POP PUSH1 0x1 PUSH2 0x49 DUP3 DUP3 PUSH2 0x2C6 JUMP JUMPDEST POP POP POP PUSH1 0x1 PUSH1 0x1 PUSH1 0xA0 SHL SUB DUP2 AND PUSH2 0x79 JUMPI PUSH1 0x40 MLOAD PUSH4 0x1E4FBDF7 PUSH1 0xE0 SHL DUP2 MSTORE PUSH0 PUSH1 0x4 DUP3 ADD MSTORE PUSH1 0x24 ADD PUSH1 0x40 MLOAD DUP1 SWAP2 SUB SWAP1 REVERT JUMPDEST PUSH2 0x82 DUP2 PUSH2 0xCF JUMP JUMPDEST POP PUSH1 0x1 PUSH32 0x9B779B17422D0DF92223018B32B4D1FA46E071723D6817E2486D003BECC55F00 SSTORE PUSH1 0xE DUP1 SLOAD PUSH1 0x1 PUSH1 0x1 PUSH1 0xA0 SHL SUB NOT AND PUSH1 0x1 PUSH1 0x1 PUSH1 0xA0 SHL SUB SWAP3 SWAP1 SWAP3 AND SWAP2 SWAP1 SWAP2 OR SWAP1 SSTORE POP PUSH2 0x380 SWAP1 POP JUMP JUMPDEST PUSH1 0xA DUP1 SLOAD PUSH1 0x1 PUSH1 0x1 PUSH1 0xA0 SHL SUB DUP4 DUP2 AND PUSH1 0x1 PUSH1 0x1 PUSH1 0xA0 SHL SUB NOT DUP4 AND DUP2 OR SWAP1 SWAP4 SSTORE PUSH1 0x40 MLOAD SWAP2 AND SWAP2 SWAP1 DUP3 SWAP1 PUSH32 0x8BE0079C531659141344CD1FD0A4F28419497F9722A3DAAFE3B4186F6B6457E0 SWAP1 PUSH0 SWAP1 LOG3 POP POP JUMP JUMPDEST PUSH4 0x4E487B71 PUSH1 0xE0 SHL PUSH0 MSTORE PUSH1 0x41 PUSH1 0x4 MSTORE PUSH1 0x24 PUSH0 REVERT JUMPDEST PUSH0 DUP3 PUSH1 0x1F DUP4 ADD SLT PUSH2 0x143 JUMPI PUSH0 DUP1 REVERT JUMPDEST DUP2 MLOAD PUSH1 0x1 PUSH1 0x1 PUSH1 0x40 SHL SUB DUP2 GT ISZERO PUSH2 0x15C JUMPI PUSH2 0x15C PUSH2 0x120 JUMP JUMPDEST PUSH1 0x40 MLOAD PUSH1 0x1F DUP3 ADD PUSH1 0x1F NOT SWAP1 DUP2 AND PUSH1 0x3F ADD AND DUP2 ADD PUSH1 0x1 PUSH1 0x1 PUSH1 0x40 SHL SUB DUP2 GT DUP3 DUP3 LT OR ISZERO PUSH2 0x18A JUMPI PUSH2 0x18A PUSH2 0x120 JUMP JUMPDEST PUSH1 0x40 MSTORE DUP2 DUP2 MSTORE DUP4 DUP3 ADD PUSH1 0x20 ADD DUP6 LT ISZERO PUSH2 0x1A1 JUMPI PUSH0 DUP1 REVERT JUMPDEST DUP2 PUSH1 0x20 DUP6 ADD PUSH1 0x20 DUP4 ADD MCOPY PUSH0 SWAP2 DUP2 ADD PUSH1 0x20 ADD SWAP2 SWAP1 SWAP2 MSTORE SWAP4 SWAP3 POP POP POP JUMP JUMPDEST PUSH0 DUP1 PUSH0 PUSH1 0x60 DUP5 DUP7 SUB SLT ISZERO PUSH2 0x1CF JUMPI PUSH0 DUP1 REVERT JUMPDEST DUP4 MLOAD PUSH1 0x1 PUSH1 0x1 PUSH1 0x40 SHL SUB DUP2 GT ISZERO PUSH2 0x1E4 JUMPI PUSH0 DUP1 REVERT JUMPDEST PUSH2 0x1F0 DUP7 DUP3 DUP8 ADD PUSH2 0x134 JUMP JUMPDEST PUSH1 0x20 DUP7 ADD MLOAD SWAP1 SWAP5 POP SWAP1 POP PUSH1 0x1 PUSH1 0x1 PUSH1 0x40 SHL SUB DUP2 GT ISZERO PUSH2 0x20D JUMPI PUSH0 DUP1 REVERT JUMPDEST PUSH2 0x219 DUP7 DUP3 DUP8 ADD PUSH2 0x134 JUMP JUMPDEST PUSH1 0x40 DUP7 ADD MLOAD SWAP1 SWAP4 POP SWAP1 POP PUSH1 0x1 PUSH1 0x1 PUSH1 0xA0 SHL SUB DUP2 AND DUP2 EQ PUSH2 0x237 JUMPI PUSH0 DUP1 REVERT JUMPDEST DUP1 SWAP2 POP POP SWAP3 POP SWAP3 POP SWAP3 JUMP JUMPDEST PUSH1 0x1 DUP2 DUP2 SHR SWAP1 DUP3 AND DUP1 PUSH2 0x256 JUMPI PUSH1 0x7F DUP3 AND SWAP2 POP JUMPDEST PUSH1 0x20 DUP3 LT DUP2 SUB PUSH2 0x274 JUMPI PUSH4 0x4E487B71 PUSH1 0xE0 SHL PUSH0 MSTORE PUSH1 0x22 PUSH1 0x4 MSTORE PUSH1 0x24 PUSH0 REVERT JUMPDEST POP SWAP2 SWAP1 POP JUMP JUMPDEST PUSH1 0x1F DUP3 GT ISZERO PUSH2 0x2C1 JUMPI DUP1 PUSH0 MSTORE PUSH1 0x20 PUSH0 KECCAK256 PUSH1 0x1F DUP5 ADD PUSH1 0x5 SHR DUP2 ADD PUSH1 0x20 DUP6 LT ISZERO PUSH2 0x29F JUMPI POP DUP1 JUMPDEST PUSH1 0x1F DUP5 ADD PUSH1 0x5 SHR DUP3 ADD SWAP2 POP JUMPDEST DUP2 DUP2 LT ISZERO PUSH2 0x2BE JUMPI PUSH0 DUP2 SSTORE PUSH1 0x1 ADD PUSH2 0x2AB JUMP JUMPDEST POP POP JUMPDEST POP POP POP JUMP JUMPDEST DUP2 MLOAD PUSH1 0x1 PUSH1 0x1 PUSH1 0x40 SHL SUB DUP2 GT ISZERO PUSH2 0x2DF JUMPI PUSH2 0x2DF PUSH2 0x120 JUMP JUMPDEST PUSH2 0x2F3 DUP2 PUSH2 0x2ED DUP5 SLOAD PUSH2 0x242 JUMP JUMPDEST DUP5 PUSH2 0x27A JUMP JUMPDEST PUSH1 0x20 PUSH1 0x1F DUP3 GT PUSH1 0x1 DUP2 EQ PUSH2 0x325 JUMPI PUSH0 DUP4 ISZERO PUSH2 0x30E JUMPI POP DUP5 DUP3 ADD MLOAD JUMPDEST PUSH0 NOT PUSH1 0x3 DUP6 SWAP1 SHL SHR NOT AND PUSH1 0x1 DUP5 SWAP1 SHL OR DUP5 SSTORE PUSH2 0x2BE JUMP JUMPDEST PUSH0 DUP5 DUP2 MSTORE PUSH1 0x20 DUP2 KECCAK256 PUSH1 0x1F NOT DUP6 AND SWAP2 JUMPDEST DUP3 DUP2 LT ISZERO PUSH2 0x354 JUMPI DUP8 DUP6 ADD MLOAD DUP3 SSTORE PUSH1 0x20 SWAP5 DUP6 ADD SWAP5 PUSH1 0x1 SWAP1 SWAP3 ADD SWAP2 ADD PUSH2 0x334 JUMP JUMPDEST POP DUP5 DUP3 LT ISZERO PUSH2 0x371 JUMPI DUP7 DUP5 ADD MLOAD PUSH0 NOT PUSH1 0x3 DUP8 SWAP1 SHL PUSH1 0xF8 AND SHR NOT AND DUP2 SSTORE JUMPDEST POP POP POP POP PUSH1 0x1 SWAP1 DUP2 SHL ADD SWAP1 SSTORE POP JUMP JUMPDEST PUSH2 0x3240 DUP1 PUSH2 0x38D PUSH0 CODECOPY PUSH0 RETURN INVALID PUSH1 0x80 PUSH1 0x40 MSTORE CALLVALUE DUP1 ISZERO PUSH2 0xF JUMPI PUSH0 DUP1 REVERT JUMPDEST POP PUSH1 0x4 CALLDATASIZE LT PUSH2 0x1C6 JUMPI PUSH0 CALLDATALOAD PUSH1 0xE0 SHR DUP1 PUSH4 0x957A3205 GT PUSH2 0xFE JUMPI DUP1 PUSH4 0xB88D4FDE GT PUSH2 0x9E JUMPI DUP1 PUSH4 0xCD05DFBC GT PUSH2 0x6E JUMPI DUP1 PUSH4 0xCD05DFBC EQ PUSH2 0x3F2 JUMPI DUP1 PUSH4 0xE0574E3F EQ PUSH2 0x405 JUMPI DUP1 PUSH4 0xE985E9C5 EQ PUSH2 0x42A JUMPI DUP1 PUSH4 0xF2FDE38B EQ PUSH2 0x43D JUMPI PUSH0 DUP1 REVERT JUMPDEST DUP1 PUSH4 0xB88D4FDE EQ PUSH2 0x398 JUMPI DUP1 PUSH4 0xC87B56DD EQ PUSH2 0x3AB JUMPI DUP1 PUSH4 0xC96015DB EQ PUSH2 0x3BE JUMPI DUP1 PUSH4 0xC99C2FDF EQ PUSH2 0x3DF JUMPI PUSH0 DUP1 REVERT JUMPDEST DUP1 PUSH4 0xA22CB465 GT PUSH2 0xD9 JUMPI DUP1 PUSH4 0xA22CB465 EQ PUSH2 0x325 JUMPI DUP1 PUSH4 0xAF8CA1A7 EQ PUSH2 0x338 JUMPI DUP1 PUSH4 0xAFFDA6C9 EQ PUSH2 0x358 JUMPI DUP1 PUSH4 0xB4B7580D EQ PUSH2 0x385 JUMPI PUSH0 DUP1 REVERT JUMPDEST DUP1 PUSH4 0x957A3205 EQ PUSH2 0x2F7 JUMPI DUP1 PUSH4 0x95D89B41 EQ PUSH2 0x30A JUMPI DUP1 PUSH4 0x96CDE355 EQ PUSH2 0x312 JUMPI PUSH0 DUP1 REVERT JUMPDEST DUP1 PUSH4 0x2F745C59 GT PUSH2 0x169 JUMPI DUP1 PUSH4 0x6352211E GT PUSH2 0x144 JUMPI DUP1 PUSH4 0x6352211E EQ PUSH2 0x2B8 JUMPI DUP1 PUSH4 0x70A08231 EQ PUSH2 0x2CB JUMPI DUP1 PUSH4 0x715018A6 EQ PUSH2 0x2DE JUMPI DUP1 PUSH4 0x8DA5CB5B EQ PUSH2 0x2E6 JUMPI PUSH0 DUP1 REVERT JUMPDEST DUP1 PUSH4 0x2F745C59 EQ PUSH2 0x27F JUMPI DUP1 PUSH4 0x42842E0E EQ PUSH2 0x292 JUMPI DUP1 PUSH4 0x4F6CCCE7 EQ PUSH2 0x2A5 JUMPI PUSH0 DUP1 REVERT JUMPDEST DUP1 PUSH4 0x95EA7B3 GT PUSH2 0x1A4 JUMPI DUP1 PUSH4 0x95EA7B3 EQ PUSH2 0x232 JUMPI DUP1 PUSH4 0x18160DDD EQ PUSH2 0x247 JUMPI DUP1 PUSH4 0x1A5DA6C8 EQ PUSH2 0x259 JUMPI DUP1 PUSH4 0x23B872DD EQ PUSH2 0x26C JUMPI PUSH0 DUP1 REVERT JUMPDEST DUP1 PUSH4 0x1FFC9A7 EQ PUSH2 0x1CA JUMPI DUP1 PUSH4 0x6FDDE03 EQ PUSH2 0x1F2 JUMPI DUP1 PUSH4 0x81812FC EQ PUSH2 0x207 JUMPI JUMPDEST PUSH0 DUP1 REVERT JUMPDEST PUSH2 0x1DD PUSH2 0x1D8 CALLDATASIZE PUSH1 0x4 PUSH2 0x2649 JUMP JUMPDEST PUSH2 0x450 JUMP JUMPDEST PUSH1 0x40 MLOAD SWAP1 ISZERO ISZERO DUP2 MSTORE PUSH1 0x20 ADD JUMPDEST PUSH1 0x40 MLOAD DUP1 SWAP2 SUB SWAP1 RETURN JUMPDEST PUSH2 0x1FA PUSH2 0x460 JUMP JUMPDEST PUSH1 0x40 MLOAD PUSH2 0x1E9 SWAP2 SWAP1 PUSH2 0x2692 JUMP JUMPDEST PUSH2 0x21A PUSH2 0x215 CALLDATASIZE PUSH1 0x4 PUSH2 0x26A4 JUMP JUMPDEST PUSH2 0x4EF JUMP JUMPDEST PUSH1 0x40 MLOAD PUSH1 0x1 PUSH1 0x1 PUSH1 0xA0 SHL SUB SWAP1 SWAP2 AND DUP2 MSTORE PUSH1 0x20 ADD PUSH2 0x1E9 JUMP JUMPDEST PUSH2 0x245 PUSH2 0x240 CALLDATASIZE PUSH1 0x4 PUSH2 0x26D6 JUMP JUMPDEST PUSH2 0x516 JUMP JUMPDEST STOP JUMPDEST PUSH1 0x8 SLOAD JUMPDEST PUSH1 0x40 MLOAD SWAP1 DUP2 MSTORE PUSH1 0x20 ADD PUSH2 0x1E9 JUMP JUMPDEST PUSH2 0x245 PUSH2 0x267 CALLDATASIZE PUSH1 0x4 PUSH2 0x26FE JUMP JUMPDEST PUSH2 0x525 JUMP JUMPDEST PUSH2 0x245 PUSH2 0x27A CALLDATASIZE PUSH1 0x4 PUSH2 0x2717 JUMP JUMPDEST PUSH2 0x576 JUMP JUMPDEST PUSH2 0x24B PUSH2 0x28D CALLDATASIZE PUSH1 0x4 PUSH2 0x26D6 JUMP JUMPDEST PUSH2 0x604 JUMP JUMPDEST PUSH2 0x245 PUSH2 0x2A0 CALLDATASIZE PUSH1 0x4 PUSH2 0x2717 JUMP JUMPDEST PUSH2 0x667 JUMP JUMPDEST PUSH2 0x24B PUSH2 0x2B3 CALLDATASIZE PUSH1 0x4 PUSH2 0x26A4 JUMP JUMPDEST PUSH2 0x686 JUMP JUMPDEST PUSH2 0x21A PUSH2 0x2C6 CALLDATASIZE PUSH1 0x4 PUSH2 0x26A4 JUMP JUMPDEST PUSH2 0x6DB JUMP JUMPDEST PUSH2 0x24B PUSH2 0x2D9 CALLDATASIZE PUSH1 0x4 PUSH2 0x26FE JUMP JUMPDEST PUSH2 0x6E5 JUMP JUMPDEST PUSH2 0x245 PUSH2 0x72A JUMP JUMPDEST PUSH1 0xA SLOAD PUSH1 0x1 PUSH1 0x1 PUSH1 0xA0 SHL SUB AND PUSH2 0x21A JUMP JUMPDEST PUSH2 0x245 PUSH2 0x305 CALLDATASIZE PUSH1 0x4 PUSH2 0x2795 JUMP JUMPDEST PUSH2 0x73D JUMP JUMPDEST PUSH2 0x1FA PUSH2 0x925 JUMP JUMPDEST PUSH1 0xE SLOAD PUSH2 0x21A SWAP1 PUSH1 0x1 PUSH1 0x1 PUSH1 0xA0 SHL SUB AND DUP2 JUMP JUMPDEST PUSH2 0x245 PUSH2 0x333 CALLDATASIZE PUSH1 0x4 PUSH2 0x27EB JUMP JUMPDEST PUSH2 0x934 JUMP JUMPDEST PUSH2 0x34B PUSH2 0x346 CALLDATASIZE PUSH1 0x4 PUSH2 0x281C JUMP JUMPDEST PUSH2 0x93F JUMP JUMPDEST PUSH1 0x40 MLOAD PUSH2 0x1E9 SWAP2 SWAP1 PUSH2 0x2914 JUMP JUMPDEST PUSH2 0x1DD PUSH2 0x366 CALLDATASIZE PUSH1 0x4 PUSH2 0x2926 JUMP JUMPDEST PUSH1 0xC PUSH1 0x20 SWAP1 DUP2 MSTORE PUSH0 SWAP3 DUP4 MSTORE PUSH1 0x40 DUP1 DUP5 KECCAK256 SWAP1 SWAP2 MSTORE SWAP1 DUP3 MSTORE SWAP1 KECCAK256 SLOAD PUSH1 0xFF AND DUP2 JUMP JUMPDEST PUSH2 0x1DD PUSH2 0x393 CALLDATASIZE PUSH1 0x4 PUSH2 0x2946 JUMP JUMPDEST PUSH2 0xA55 JUMP JUMPDEST PUSH2 0x245 PUSH2 0x3A6 CALLDATASIZE PUSH1 0x4 PUSH2 0x29AF JUMP JUMPDEST PUSH2 0xBAD JUMP JUMPDEST PUSH2 0x1FA PUSH2 0x3B9 CALLDATASIZE PUSH1 0x4 PUSH2 0x26A4 JUMP JUMPDEST PUSH2 0xBC5 JUMP JUMPDEST PUSH2 0x3D1 PUSH2 0x3CC CALLDATASIZE PUSH1 0x4 PUSH2 0x26FE JUMP JUMPDEST PUSH2 0xCEC JUMP JUMPDEST PUSH1 0x40 MLOAD PUSH2 0x1E9 SWAP3 SWAP2 SWAP1 PUSH2 0x2A89 JUMP JUMPDEST PUSH2 0x245 PUSH2 0x3ED CALLDATASIZE PUSH1 0x4 PUSH2 0x2926 JUMP JUMPDEST PUSH2 0xF93 JUMP JUMPDEST PUSH2 0x24B PUSH2 0x400 CALLDATASIZE PUSH1 0x4 PUSH2 0x2B4E JUMP JUMPDEST PUSH2 0x10E9 JUMP JUMPDEST PUSH2 0x418 PUSH2 0x413 CALLDATASIZE PUSH1 0x4 PUSH2 0x26A4 JUMP JUMPDEST PUSH2 0x1450 JUMP JUMPDEST PUSH1 0x40 MLOAD PUSH2 0x1E9 SWAP7 SWAP6 SWAP5 SWAP4 SWAP3 SWAP2 SWAP1 PUSH2 0x2BEE JUMP JUMPDEST PUSH2 0x1DD PUSH2 0x438 CALLDATASIZE PUSH1 0x4 PUSH2 0x2C34 JUMP JUMPDEST PUSH2 0x1594 JUMP JUMPDEST PUSH2 0x245 PUSH2 0x44B CALLDATASIZE PUSH1 0x4 PUSH2 0x26FE JUMP JUMPDEST PUSH2 0x15C1 JUMP JUMPDEST PUSH0 PUSH2 0x45A DUP3 PUSH2 0x15FE JUMP JUMPDEST SWAP3 SWAP2 POP POP JUMP JUMPDEST PUSH1 0x60 PUSH0 DUP1 SLOAD PUSH2 0x46E SWAP1 PUSH2 0x2C5C JUMP JUMPDEST DUP1 PUSH1 0x1F ADD PUSH1 0x20 DUP1 SWAP2 DIV MUL PUSH1 0x20 ADD PUSH1 0x40 MLOAD SWAP1 DUP2 ADD PUSH1 0x40 MSTORE DUP1 SWAP3 SWAP2 SWAP1 DUP2 DUP2 MSTORE PUSH1 0x20 ADD DUP3 DUP1 SLOAD PUSH2 0x49A SWAP1 PUSH2 0x2C5C JUMP JUMPDEST DUP1 ISZERO PUSH2 0x4E5 JUMPI DUP1 PUSH1 0x1F LT PUSH2 0x4BC JUMPI PUSH2 0x100 DUP1 DUP4 SLOAD DIV MUL DUP4 MSTORE SWAP2 PUSH1 0x20 ADD SWAP2 PUSH2 0x4E5 JUMP JUMPDEST DUP3 ADD SWAP2 SWAP1 PUSH0 MSTORE PUSH1 0x20 PUSH0 KECCAK256 SWAP1 JUMPDEST DUP2 SLOAD DUP2 MSTORE SWAP1 PUSH1 0x1 ADD SWAP1 PUSH1 0x20 ADD DUP1 DUP4 GT PUSH2 0x4C8 JUMPI DUP3 SWAP1 SUB PUSH1 0x1F AND DUP3 ADD SWAP2 JUMPDEST POP POP POP POP POP SWAP1 POP SWAP1 JUMP JUMPDEST PUSH0 PUSH2 0x4F9 DUP3 PUSH2 0x1622 JUMP JUMPDEST POP PUSH0 DUP3 DUP2 MSTORE PUSH1 0x4 PUSH1 0x20 MSTORE PUSH1 0x40 SWAP1 KECCAK256 SLOAD PUSH1 0x1 PUSH1 0x1 PUSH1 0xA0 SHL SUB AND PUSH2 0x45A JUMP JUMPDEST PUSH2 0x521 DUP3 DUP3 CALLER PUSH2 0x165A JUMP JUMPDEST POP POP JUMP JUMPDEST PUSH2 0x52D PUSH2 0x1667 JUMP JUMPDEST PUSH1 0xE DUP1 SLOAD PUSH1 0x1 PUSH1 0x1 PUSH1 0xA0 SHL SUB NOT AND PUSH1 0x1 PUSH1 0x1 PUSH1 0xA0 SHL SUB DUP4 AND SWAP1 DUP2 OR SWAP1 SWAP2 SSTORE PUSH1 0x40 MLOAD PUSH32 0xD6CEDDF6D2A22F21C7C81675C518004EFF43BC5C8A6FC32A0B748E69D58671CD SWAP1 PUSH0 SWAP1 LOG2 POP JUMP JUMPDEST PUSH1 0x1 PUSH1 0x1 PUSH1 0xA0 SHL SUB DUP3 AND PUSH2 0x5A4 JUMPI PUSH1 0x40 MLOAD PUSH4 0x32505749 PUSH1 0xE1 SHL DUP2 MSTORE PUSH0 PUSH1 0x4 DUP3 ADD MSTORE PUSH1 0x24 ADD JUMPDEST PUSH1 0x40 MLOAD DUP1 SWAP2 SUB SWAP1 REVERT JUMPDEST PUSH0 PUSH2 0x5B0 DUP4 DUP4 CALLER PUSH2 0x1694 JUMP JUMPDEST SWAP1 POP DUP4 PUSH1 0x1 PUSH1 0x1 PUSH1 0xA0 SHL SUB AND DUP2 PUSH1 0x1 PUSH1 0x1 PUSH1 0xA0 SHL SUB AND EQ PUSH2 0x5FE JUMPI PUSH1 0x40 MLOAD PUSH4 0x64283D7B PUSH1 0xE0 SHL DUP2 MSTORE PUSH1 0x1 PUSH1 0x1 PUSH1 0xA0 SHL SUB DUP1 DUP7 AND PUSH1 0x4 DUP4 ADD MSTORE PUSH1 0x24 DUP3 ADD DUP5 SWAP1 MSTORE DUP3 AND PUSH1 0x44 DUP3 ADD MSTORE PUSH1 0x64 ADD PUSH2 0x59B JUMP JUMPDEST POP POP POP POP JUMP JUMPDEST PUSH0 PUSH2 0x60E DUP4 PUSH2 0x6E5 JUMP JUMPDEST DUP3 LT PUSH2 0x63F JUMPI PUSH1 0x40 MLOAD PUSH4 0x295F44F7 PUSH1 0xE2 SHL DUP2 MSTORE PUSH1 0x1 PUSH1 0x1 PUSH1 0xA0 SHL SUB DUP5 AND PUSH1 0x4 DUP3 ADD MSTORE PUSH1 0x24 DUP2 ADD DUP4 SWAP1 MSTORE PUSH1 0x44 ADD PUSH2 0x59B JUMP JUMPDEST POP PUSH1 0x1 PUSH1 0x1 PUSH1 0xA0 SHL SUB SWAP2 SWAP1 SWAP2 AND PUSH0 SWAP1 DUP2 MSTORE PUSH1 0x6 PUSH1 0x20 SWAP1 DUP2 MSTORE PUSH1 0x40 DUP1 DUP4 KECCAK256 SWAP4 DUP4 MSTORE SWAP3 SWAP1 MSTORE KECCAK256 SLOAD SWAP1 JUMP JUMPDEST PUSH2 0x681 DUP4 DUP4 DUP4 PUSH1 0x40 MLOAD DUP1 PUSH1 0x20 ADD PUSH1 0x40 MSTORE DUP1 PUSH0 DUP2 MSTORE POP PUSH2 0xBAD JUMP JUMPDEST POP POP POP JUMP JUMPDEST PUSH0 PUSH2 0x690 PUSH1 0x8 SLOAD SWAP1 JUMP JUMPDEST DUP3 LT PUSH2 0x6B8 JUMPI PUSH1 0x40 MLOAD PUSH4 0x295F44F7 PUSH1 0xE2 SHL DUP2 MSTORE PUSH0 PUSH1 0x4 DUP3 ADD MSTORE PUSH1 0x24 DUP2 ADD DUP4 SWAP1 MSTORE PUSH1 0x44 ADD PUSH2 0x59B JUMP JUMPDEST PUSH1 0x8 DUP3 DUP2 SLOAD DUP2 LT PUSH2 0x6CB JUMPI PUSH2 0x6CB PUSH2 0x2C94 JUMP JUMPDEST SWAP1 PUSH0 MSTORE PUSH1 0x20 PUSH0 KECCAK256 ADD SLOAD SWAP1 POP SWAP2 SWAP1 POP JUMP JUMPDEST PUSH0 PUSH2 0x45A DUP3 PUSH2 0x1622 JUMP JUMPDEST PUSH0 PUSH1 0x1 PUSH1 0x1 PUSH1 0xA0 SHL SUB DUP3 AND PUSH2 0x70F JUMPI PUSH1 0x40 MLOAD PUSH4 0x22718AD9 PUSH1 0xE2 SHL DUP2 MSTORE PUSH0 PUSH1 0x4 DUP3 ADD MSTORE PUSH1 0x24 ADD PUSH2 0x59B JUMP JUMPDEST POP PUSH1 0x1 PUSH1 0x1 PUSH1 0xA0 SHL SUB AND PUSH0 SWAP1 DUP2 MSTORE PUSH1 0x3 PUSH1 0x20 MSTORE PUSH1 0x40 SWAP1 KECCAK256 SLOAD SWAP1 JUMP JUMPDEST PUSH2 0x732 PUSH2 0x1667 JUMP JUMPDEST PUSH2 0x73B PUSH0 PUSH2 0x1774 JUMP JUMPDEST JUMP JUMPDEST PUSH2 0x745 PUSH2 0x17C5 JUMP JUMPDEST PUSH0 DUP4 DUP2 MSTORE PUSH1 0x2 PUSH1 0x20 MSTORE PUSH1 0x40 SWAP1 KECCAK256 SLOAD PUSH1 0x1 PUSH1 0x1 PUSH1 0xA0 SHL SUB AND PUSH2 0x7A4 JUMPI PUSH1 0x40 MLOAD PUSH3 0x461BCD PUSH1 0xE5 SHL DUP2 MSTORE PUSH1 0x20 PUSH1 0x4 DUP3 ADD MSTORE PUSH1 0x19 PUSH1 0x24 DUP3 ADD MSTORE PUSH25 0x10DC9959195B9D1A585B08191BD95CC81B9BDD08195E1A5CDD PUSH1 0x3A SHL PUSH1 0x44 DUP3 ADD MSTORE PUSH1 0x64 ADD PUSH2 0x59B JUMP JUMPDEST PUSH0 DUP4 DUP2 MSTORE PUSH1 0xB PUSH1 0x20 MSTORE PUSH1 0x40 SWAP1 KECCAK256 PUSH1 0x4 DUP2 ADD SLOAD PUSH1 0xFF AND PUSH2 0x805 JUMPI PUSH1 0x40 MLOAD PUSH3 0x461BCD PUSH1 0xE5 SHL DUP2 MSTORE PUSH1 0x20 PUSH1 0x4 DUP3 ADD MSTORE PUSH1 0x1B PUSH1 0x24 DUP3 ADD MSTORE PUSH32 0x43726564656E7469616C206973206E6F74207265766F6361626C650000000000 PUSH1 0x44 DUP3 ADD MSTORE PUSH1 0x64 ADD PUSH2 0x59B JUMP JUMPDEST PUSH0 PUSH2 0x80F DUP6 PUSH2 0x6DB JUMP JUMPDEST SWAP1 POP CALLER PUSH1 0x1 PUSH1 0x1 PUSH1 0xA0 SHL SUB DUP3 AND EQ DUP1 PUSH2 0x830 JUMPI POP PUSH2 0x830 CALLER DUP4 PUSH0 ADD SLOAD PUSH2 0x17E0 JUMP JUMPDEST PUSH2 0x87C JUMPI PUSH1 0x40 MLOAD PUSH3 0x461BCD PUSH1 0xE5 SHL DUP2 MSTORE PUSH1 0x20 PUSH1 0x4 DUP3 ADD MSTORE PUSH1 0x18 PUSH1 0x24 DUP3 ADD MSTORE PUSH32 0x4E6F7420617574686F72697A656420746F207265766F6B650000000000000000 PUSH1 0x44 DUP3 ADD MSTORE PUSH1 0x64 ADD PUSH2 0x59B JUMP JUMPDEST PUSH0 DUP2 PUSH1 0x40 MLOAD PUSH1 0x20 ADD PUSH2 0x88E SWAP2 SWAP1 PUSH2 0x2CA8 JUMP JUMPDEST PUSH1 0x40 DUP1 MLOAD PUSH1 0x1F NOT DUP2 DUP5 SUB ADD DUP2 MSTORE SWAP2 DUP2 MSTORE DUP2 MLOAD PUSH1 0x20 SWAP3 DUP4 ADD KECCAK256 DUP6 SLOAD PUSH0 SWAP1 DUP2 MSTORE PUSH1 0xC DUP5 MSTORE DUP3 DUP2 KECCAK256 DUP3 DUP3 MSTORE SWAP1 SWAP4 MSTORE SWAP2 KECCAK256 DUP1 SLOAD PUSH1 0xFF NOT AND SWAP1 SSTORE SWAP1 POP PUSH2 0x8CE DUP7 PUSH2 0x180F JUMP JUMPDEST DUP3 PUSH0 ADD SLOAD DUP7 PUSH32 0x434CF493785E8BF15F783F381EA893196A735A6BAAC38B2C67A7A4DDA3F9A4ED DUP8 DUP8 PUSH1 0x40 MLOAD PUSH2 0x904 SWAP3 SWAP2 SWAP1 PUSH2 0x2CED JUMP JUMPDEST PUSH1 0x40 MLOAD DUP1 SWAP2 SUB SWAP1 LOG3 POP POP POP PUSH2 0x681 PUSH1 0x1 PUSH0 DUP1 MLOAD PUSH1 0x20 PUSH2 0x31EB DUP4 CODECOPY DUP2 MLOAD SWAP2 MSTORE SSTORE JUMP JUMPDEST PUSH1 0x60 PUSH1 0x1 DUP1 SLOAD PUSH2 0x46E SWAP1 PUSH2 0x2C5C JUMP JUMPDEST PUSH2 0x521 CALLER DUP4 DUP4 PUSH2 0x1847 JUMP JUMPDEST PUSH1 0x60 PUSH2 0x949 PUSH2 0x17C5 JUMP JUMPDEST DUP7 PUSH1 0x1 PUSH1 0x1 PUSH1 0x40 SHL SUB DUP2 GT ISZERO PUSH2 0x961 JUMPI PUSH2 0x961 PUSH2 0x299B JUMP JUMPDEST PUSH1 0x40 MLOAD SWAP1 DUP1 DUP3 MSTORE DUP1 PUSH1 0x20 MUL PUSH1 0x20 ADD DUP3 ADD PUSH1 0x40 MSTORE DUP1 ISZERO PUSH2 0x98A JUMPI DUP2 PUSH1 0x20 ADD PUSH1 0x20 DUP3 MUL DUP1 CALLDATASIZE DUP4 CALLDATACOPY ADD SWAP1 POP JUMPDEST POP SWAP1 POP PUSH0 JUMPDEST DUP8 DUP2 LT ISZERO PUSH2 0xA33 JUMPI PUSH2 0xA0E DUP10 DUP10 DUP4 DUP2 DUP2 LT PUSH2 0x9AC JUMPI PUSH2 0x9AC PUSH2 0x2C94 JUMP JUMPDEST SWAP1 POP PUSH1 0x20 MUL ADD PUSH1 0x20 DUP2 ADD SWAP1 PUSH2 0x9C1 SWAP2 SWAP1 PUSH2 0x26FE JUMP JUMPDEST DUP9 DUP9 DUP9 DUP9 DUP1 DUP1 PUSH1 0x1F ADD PUSH1 0x20 DUP1 SWAP2 DIV MUL PUSH1 0x20 ADD PUSH1 0x40 MLOAD SWAP1 DUP2 ADD PUSH1 0x40 MSTORE DUP1 SWAP4 SWAP3 SWAP2 SWAP1 DUP2 DUP2 MSTORE PUSH1 0x20 ADD DUP4 DUP4 DUP1 DUP3 DUP5 CALLDATACOPY PUSH0 SWAP3 ADD DUP3 SWAP1 MSTORE POP PUSH1 0x40 DUP1 MLOAD PUSH1 0x20 DUP2 ADD SWAP1 SWAP2 MSTORE SWAP1 DUP2 MSTORE SWAP3 POP DUP11 SWAP2 POP PUSH2 0x190E SWAP1 POP JUMP JUMPDEST DUP3 DUP3 DUP2 MLOAD DUP2 LT PUSH2 0xA20 JUMPI PUSH2 0xA20 PUSH2 0x2C94 JUMP JUMPDEST PUSH1 0x20 SWAP1 DUP2 MUL SWAP2 SWAP1 SWAP2 ADD ADD MSTORE PUSH1 0x1 ADD PUSH2 0x98F JUMP JUMPDEST POP PUSH2 0xA4A PUSH1 0x1 PUSH0 DUP1 MLOAD PUSH1 0x20 PUSH2 0x31EB DUP4 CODECOPY DUP2 MLOAD SWAP2 MSTORE SSTORE JUMP JUMPDEST SWAP8 SWAP7 POP POP POP POP POP POP POP JUMP JUMPDEST PUSH0 DUP1 PUSH2 0xA60 DUP7 PUSH2 0x6E5 JUMP JUMPDEST SWAP1 POP PUSH0 JUMPDEST DUP2 DUP2 LT ISZERO PUSH2 0xB9F JUMPI PUSH0 PUSH2 0xA77 DUP9 DUP4 PUSH2 0x604 JUMP JUMPDEST PUSH0 DUP2 DUP2 MSTORE PUSH1 0xB PUSH1 0x20 MSTORE PUSH1 0x40 SWAP1 KECCAK256 DUP1 SLOAD SWAP2 SWAP3 POP SWAP1 DUP9 EQ PUSH2 0xA97 JUMPI POP POP PUSH2 0xB97 JUMP JUMPDEST PUSH0 DUP2 PUSH1 0x1 ADD SLOAD GT DUP1 ISZERO PUSH2 0xAAD JUMPI POP DUP1 PUSH1 0x1 ADD SLOAD TIMESTAMP GT JUMPDEST ISZERO PUSH2 0xAB9 JUMPI POP POP PUSH2 0xB97 JUMP JUMPDEST PUSH2 0xB82 DUP2 PUSH1 0x2 ADD DUP1 SLOAD PUSH2 0xACB SWAP1 PUSH2 0x2C5C JUMP JUMPDEST DUP1 PUSH1 0x1F ADD PUSH1 0x20 DUP1 SWAP2 DIV MUL PUSH1 0x20 ADD PUSH1 0x40 MLOAD SWAP1 DUP2 ADD PUSH1 0x40 MSTORE DUP1 SWAP3 SWAP2 SWAP1 DUP2 DUP2 MSTORE PUSH1 0x20 ADD DUP3 DUP1 SLOAD PUSH2 0xAF7 SWAP1 PUSH2 0x2C5C JUMP JUMPDEST DUP1 ISZERO PUSH2 0xB42 JUMPI DUP1 PUSH1 0x1F LT PUSH2 0xB19 JUMPI PUSH2 0x100 DUP1 DUP4 SLOAD DIV MUL DUP4 MSTORE SWAP2 PUSH1 0x20 ADD SWAP2 PUSH2 0xB42 JUMP JUMPDEST DUP3 ADD SWAP2 SWAP1 PUSH0 MSTORE PUSH1 0x20 PUSH0 KECCAK256 SWAP1 JUMPDEST DUP2 SLOAD DUP2 MSTORE SWAP1 PUSH1 0x1 ADD SWAP1 PUSH1 0x20 ADD DUP1 DUP4 GT PUSH2 0xB25 JUMPI DUP3 SWAP1 SUB PUSH1 0x1F AND DUP3 ADD SWAP2 JUMPDEST POP POP POP POP POP DUP9 DUP9 DUP1 DUP1 PUSH1 0x1F ADD PUSH1 0x20 DUP1 SWAP2 DIV MUL PUSH1 0x20 ADD PUSH1 0x40 MLOAD SWAP1 DUP2 ADD PUSH1 0x40 MSTORE DUP1 SWAP4 SWAP3 SWAP2 SWAP1 DUP2 DUP2 MSTORE PUSH1 0x20 ADD DUP4 DUP4 DUP1 DUP3 DUP5 CALLDATACOPY PUSH0 SWAP3 ADD SWAP2 SWAP1 SWAP2 MSTORE POP PUSH2 0x1A54 SWAP3 POP POP POP JUMP JUMPDEST ISZERO PUSH2 0xB94 JUMPI PUSH1 0x1 SWAP5 POP POP POP POP POP PUSH2 0xBA5 JUMP JUMPDEST POP POP JUMPDEST PUSH1 0x1 ADD PUSH2 0xA64 JUMP JUMPDEST POP PUSH0 SWAP2 POP POP JUMPDEST SWAP5 SWAP4 POP POP POP POP JUMP JUMPDEST PUSH2 0xBB8 DUP5 DUP5 DUP5 PUSH2 0x576 JUMP JUMPDEST PUSH2 0x5FE CALLER DUP6 DUP6 DUP6 DUP6 PUSH2 0x1C1D JUMP JUMPDEST PUSH0 DUP2 DUP2 MSTORE PUSH1 0x2 PUSH1 0x20 MSTORE PUSH1 0x40 SWAP1 KECCAK256 SLOAD PUSH1 0x60 SWAP1 PUSH1 0x1 PUSH1 0x1 PUSH1 0xA0 SHL SUB AND PUSH2 0xC22 JUMPI PUSH1 0x40 MLOAD PUSH3 0x461BCD PUSH1 0xE5 SHL DUP2 MSTORE PUSH1 0x20 PUSH1 0x4 DUP3 ADD MSTORE PUSH1 0x14 PUSH1 0x24 DUP3 ADD MSTORE PUSH20 0x151BDAD95B88191BD95CC81B9BDD08195E1A5CDD PUSH1 0x62 SHL PUSH1 0x44 DUP3 ADD MSTORE PUSH1 0x64 ADD PUSH2 0x59B JUMP JUMPDEST PUSH0 DUP3 DUP2 MSTORE PUSH1 0xB PUSH1 0x20 MSTORE PUSH1 0x40 DUP2 KECCAK256 PUSH1 0x3 DUP2 ADD DUP1 SLOAD SWAP2 SWAP3 SWAP2 PUSH2 0xC41 SWAP1 PUSH2 0x2C5C JUMP JUMPDEST SWAP1 POP GT ISZERO PUSH2 0xCDC JUMPI DUP1 PUSH1 0x3 ADD DUP1 SLOAD PUSH2 0xC58 SWAP1 PUSH2 0x2C5C JUMP JUMPDEST DUP1 PUSH1 0x1F ADD PUSH1 0x20 DUP1 SWAP2 DIV MUL PUSH1 0x20 ADD PUSH1 0x40 MLOAD SWAP1 DUP2 ADD PUSH1 0x40 MSTORE DUP1 SWAP3 SWAP2 SWAP1 DUP2 DUP2 MSTORE PUSH1 0x20 ADD DUP3 DUP1 SLOAD PUSH2 0xC84 SWAP1 PUSH2 0x2C5C JUMP JUMPDEST DUP1 ISZERO PUSH2 0xCCF JUMPI DUP1 PUSH1 0x1F LT PUSH2 0xCA6 JUMPI PUSH2 0x100 DUP1 DUP4 SLOAD DIV MUL DUP4 MSTORE SWAP2 PUSH1 0x20 ADD SWAP2 PUSH2 0xCCF JUMP JUMPDEST DUP3 ADD SWAP2 SWAP1 PUSH0 MSTORE PUSH1 0x20 PUSH0 KECCAK256 SWAP1 JUMPDEST DUP2 SLOAD DUP2 MSTORE SWAP1 PUSH1 0x1 ADD SWAP1 PUSH1 0x20 ADD DUP1 DUP4 GT PUSH2 0xCB2 JUMPI DUP3 SWAP1 SUB PUSH1 0x1F AND DUP3 ADD SWAP2 JUMPDEST POP POP POP POP POP SWAP2 POP POP SWAP2 SWAP1 POP JUMP JUMPDEST PUSH2 0xCE5 DUP4 PUSH2 0x1D45 JUMP JUMPDEST SWAP4 SWAP3 POP POP POP JUMP JUMPDEST PUSH1 0x60 DUP1 PUSH0 PUSH2 0xCF9 DUP5 PUSH2 0x6E5 JUMP JUMPDEST SWAP1 POP DUP1 PUSH1 0x1 PUSH1 0x1 PUSH1 0x40 SHL SUB DUP2 GT ISZERO PUSH2 0xD13 JUMPI PUSH2 0xD13 PUSH2 0x299B JUMP JUMPDEST PUSH1 0x40 MLOAD SWAP1 DUP1 DUP3 MSTORE DUP1 PUSH1 0x20 MUL PUSH1 0x20 ADD DUP3 ADD PUSH1 0x40 MSTORE DUP1 ISZERO PUSH2 0xD3C JUMPI DUP2 PUSH1 0x20 ADD PUSH1 0x20 DUP3 MUL DUP1 CALLDATASIZE DUP4 CALLDATACOPY ADD SWAP1 POP JUMPDEST POP SWAP3 POP DUP1 PUSH1 0x1 PUSH1 0x1 PUSH1 0x40 SHL SUB DUP2 GT ISZERO PUSH2 0xD57 JUMPI PUSH2 0xD57 PUSH2 0x299B JUMP JUMPDEST PUSH1 0x40 MLOAD SWAP1 DUP1 DUP3 MSTORE DUP1 PUSH1 0x20 MUL PUSH1 0x20 ADD DUP3 ADD PUSH1 0x40 MSTORE DUP1 ISZERO PUSH2 0xDC2 JUMPI DUP2 PUSH1 0x20 ADD JUMPDEST PUSH2 0xDAF PUSH1 0x40 MLOAD DUP1 PUSH1 0xC0 ADD PUSH1 0x40 MSTORE DUP1 PUSH0 DUP1 NOT AND DUP2 MSTORE PUSH1 0x20 ADD PUSH0 DUP2 MSTORE PUSH1 0x20 ADD PUSH1 0x60 DUP2 MSTORE PUSH1 0x20 ADD PUSH1 0x60 DUP2 MSTORE PUSH1 0x20 ADD PUSH0 ISZERO ISZERO DUP2 MSTORE PUSH1 0x20 ADD PUSH0 DUP2 MSTORE POP SWAP1 JUMP JUMPDEST DUP2 MSTORE PUSH1 0x20 ADD SWAP1 PUSH1 0x1 SWAP1 SUB SWAP1 DUP2 PUSH2 0xD75 JUMPI SWAP1 POP JUMPDEST POP SWAP2 POP PUSH0 JUMPDEST DUP2 DUP2 LT ISZERO PUSH2 0xF8C JUMPI PUSH0 PUSH2 0xDDA DUP7 DUP4 PUSH2 0x604 JUMP JUMPDEST SWAP1 POP DUP1 DUP6 DUP4 DUP2 MLOAD DUP2 LT PUSH2 0xDEF JUMPI PUSH2 0xDEF PUSH2 0x2C94 JUMP JUMPDEST PUSH1 0x20 MUL PUSH1 0x20 ADD ADD DUP2 DUP2 MSTORE POP POP PUSH1 0xB PUSH0 DUP3 DUP2 MSTORE PUSH1 0x20 ADD SWAP1 DUP2 MSTORE PUSH1 0x20 ADD PUSH0 KECCAK256 PUSH1 0x40 MLOAD DUP1 PUSH1 0xC0 ADD PUSH1 0x40 MSTORE SWAP1 DUP2 PUSH0 DUP3 ADD SLOAD DUP2 MSTORE PUSH1 0x20 ADD PUSH1 0x1 DUP3 ADD SLOAD DUP2 MSTORE PUSH1 0x20 ADD PUSH1 0x2 DUP3 ADD DUP1 SLOAD PUSH2 0xE3A SWAP1 PUSH2 0x2C5C JUMP JUMPDEST DUP1 PUSH1 0x1F ADD PUSH1 0x20 DUP1 SWAP2 DIV MUL PUSH1 0x20 ADD PUSH1 0x40 MLOAD SWAP1 DUP2 ADD PUSH1 0x40 MSTORE DUP1 SWAP3 SWAP2 SWAP1 DUP2 DUP2 MSTORE PUSH1 0x20 ADD DUP3 DUP1 SLOAD PUSH2 0xE66 SWAP1 PUSH2 0x2C5C JUMP JUMPDEST DUP1 ISZERO PUSH2 0xEB1 JUMPI DUP1 PUSH1 0x1F LT PUSH2 0xE88 JUMPI PUSH2 0x100 DUP1 DUP4 SLOAD DIV MUL DUP4 MSTORE SWAP2 PUSH1 0x20 ADD SWAP2 PUSH2 0xEB1 JUMP JUMPDEST DUP3 ADD SWAP2 SWAP1 PUSH0 MSTORE PUSH1 0x20 PUSH0 KECCAK256 SWAP1 JUMPDEST DUP2 SLOAD DUP2 MSTORE SWAP1 PUSH1 0x1 ADD SWAP1 PUSH1 0x20 ADD DUP1 DUP4 GT PUSH2 0xE94 JUMPI DUP3 SWAP1 SUB PUSH1 0x1F AND DUP3 ADD SWAP2 JUMPDEST POP POP POP POP POP DUP2 MSTORE PUSH1 0x20 ADD PUSH1 0x3 DUP3 ADD DUP1 SLOAD PUSH2 0xECA SWAP1 PUSH2 0x2C5C JUMP JUMPDEST DUP1 PUSH1 0x1F ADD PUSH1 0x20 DUP1 SWAP2 DIV MUL PUSH1 0x20 ADD PUSH1 0x40 MLOAD SWAP1 DUP2 ADD PUSH1 0x40 MSTORE DUP1 SWAP3 SWAP2 SWAP1 DUP2 DUP2 MSTORE PUSH1 0x20 ADD DUP3 DUP1 SLOAD PUSH2 0xEF6 SWAP1 PUSH2 0x2C5C JUMP JUMPDEST DUP1 ISZERO PUSH2 0xF41 JUMPI DUP1 PUSH1 0x1F LT PUSH2 0xF18 JUMPI PUSH2 0x100 DUP1 DUP4 SLOAD DIV MUL DUP4 MSTORE SWAP2 PUSH1 0x20 ADD SWAP2 PUSH2 0xF41 JUMP JUMPDEST DUP3 ADD SWAP2 SWAP1 PUSH0 MSTORE PUSH1 0x20 PUSH0 KECCAK256 SWAP1 JUMPDEST DUP2 SLOAD DUP2 MSTORE SWAP1 PUSH1 0x1 ADD SWAP1 PUSH1 0x20 ADD DUP1 DUP4 GT PUSH2 0xF24 JUMPI DUP3 SWAP1 SUB PUSH1 0x1F AND DUP3 ADD SWAP2 JUMPDEST POP POP POP SWAP2 DUP4 MSTORE POP POP PUSH1 0x4 DUP3 ADD SLOAD PUSH1 0xFF AND ISZERO ISZERO PUSH1 0x20 DUP3 ADD MSTORE PUSH1 0x5 SWAP1 SWAP2 ADD SLOAD PUSH1 0x40 SWAP1 SWAP2 ADD MSTORE DUP5 MLOAD DUP6 SWAP1 DUP5 SWAP1 DUP2 LT PUSH2 0xF78 JUMPI PUSH2 0xF78 PUSH2 0x2C94 JUMP JUMPDEST PUSH1 0x20 SWAP1 DUP2 MUL SWAP2 SWAP1 SWAP2 ADD ADD MSTORE POP PUSH1 0x1 ADD PUSH2 0xDC7 JUMP JUMPDEST POP POP SWAP2 POP SWAP2 JUMP JUMPDEST PUSH0 DUP3 DUP2 MSTORE PUSH1 0x2 PUSH1 0x20 MSTORE PUSH1 0x40 SWAP1 KECCAK256 SLOAD PUSH1 0x1 PUSH1 0x1 PUSH1 0xA0 SHL SUB AND PUSH2 0xFF2 JUMPI PUSH1 0x40 MLOAD PUSH3 0x461BCD PUSH1 0xE5 SHL DUP2 MSTORE PUSH1 0x20 PUSH1 0x4 DUP3 ADD MSTORE PUSH1 0x19 PUSH1 0x24 DUP3 ADD MSTORE PUSH25 0x10DC9959195B9D1A585B08191BD95CC81B9BDD08195E1A5CDD PUSH1 0x3A SHL PUSH1 0x44 DUP3 ADD MSTORE PUSH1 0x64 ADD PUSH2 0x59B JUMP JUMPDEST PUSH2 0xFFC CALLER DUP4 PUSH2 0x1DDB JUMP JUMPDEST PUSH2 0x1048 JUMPI PUSH1 0x40 MLOAD PUSH3 0x461BCD PUSH1 0xE5 SHL DUP2 MSTORE PUSH1 0x20 PUSH1 0x4 DUP3 ADD MSTORE PUSH1 0x17 PUSH1 0x24 DUP3 ADD MSTORE PUSH32 0x4E6F7420617574686F72697A656420746F2072656E6577000000000000000000 PUSH1 0x44 DUP3 ADD MSTORE PUSH1 0x64 ADD PUSH2 0x59B JUMP JUMPDEST PUSH0 DUP3 DUP2 MSTORE PUSH1 0xB PUSH1 0x20 MSTORE PUSH1 0x40 SWAP1 KECCAK256 PUSH1 0x1 DUP2 ADD SLOAD DUP3 GT PUSH2 0x10A8 JUMPI PUSH1 0x40 MLOAD PUSH3 0x461BCD PUSH1 0xE5 SHL DUP2 MSTORE PUSH1 0x20 PUSH1 0x4 DUP3 ADD MSTORE PUSH1 0x1C PUSH1 0x24 DUP3 ADD MSTORE PUSH32 0x4E65772065787069726174696F6E206D757374206265206C6174657200000000 PUSH1 0x44 DUP3 ADD MSTORE PUSH1 0x64 ADD PUSH2 0x59B JUMP JUMPDEST PUSH1 0x1 DUP2 ADD DUP3 SWAP1 SSTORE PUSH1 0x40 MLOAD DUP3 DUP2 MSTORE DUP4 SWAP1 PUSH32 0x904A7FADCC0111D8FBDE980820D8CBF110E0457EAC3B3FA7D4F58D6A4CD890A SWAP1 PUSH1 0x20 ADD PUSH1 0x40 MLOAD DUP1 SWAP2 SUB SWAP1 LOG2 POP POP POP JUMP JUMPDEST PUSH0 PUSH2 0x10F2 PUSH2 0x17C5 JUMP JUMPDEST DUP5 PUSH2 0x1137 JUMPI PUSH1 0x40 MLOAD PUSH3 0x461BCD PUSH1 0xE5 SHL DUP2 MSTORE PUSH1 0x20 PUSH1 0x4 DUP3 ADD MSTORE PUSH1 0x15 PUSH1 0x24 DUP3 ADD MSTORE PUSH21 0x1058D8D95CDCC81B195D995B081C995C5D5A5C9959 PUSH1 0x5A SHL PUSH1 0x44 DUP3 ADD MSTORE PUSH1 0x64 ADD PUSH2 0x59B JUMP JUMPDEST PUSH1 0x40 DUP1 MLOAD DUP1 DUP3 ADD DUP3 MSTORE PUSH1 0x4 DUP2 MSTORE PUSH4 0x1C995859 PUSH1 0xE2 SHL PUSH1 0x20 SWAP1 SWAP2 ADD MSTORE MLOAD PUSH32 0xE49EDE7C272D2D65E6EA541CD18A0E88D67917E802FD62BBFB6A63E7C3529891 SWAP1 PUSH2 0x1182 SWAP1 DUP9 SWAP1 DUP9 SWAP1 PUSH2 0x2D00 JUMP JUMPDEST PUSH1 0x40 MLOAD DUP1 SWAP2 SUB SWAP1 KECCAK256 EQ DUP1 PUSH2 0x11E7 JUMPI POP PUSH1 0x40 DUP1 MLOAD DUP1 DUP3 ADD DUP3 MSTORE PUSH1 0x5 DUP2 MSTORE PUSH5 0x7772697465 PUSH1 0xD8 SHL PUSH1 0x20 SWAP1 SWAP2 ADD MSTORE MLOAD PUSH32 0xA9FA01C26207C18282C14B44C5F0897B971E27A185537FE05A841A47D4B51454 SWAP1 PUSH2 0x11DD SWAP1 DUP9 SWAP1 DUP9 SWAP1 PUSH2 0x2D00 JUMP JUMPDEST PUSH1 0x40 MLOAD DUP1 SWAP2 SUB SWAP1 KECCAK256 EQ JUMPDEST DUP1 PUSH2 0x1243 JUMPI POP PUSH1 0x40 DUP1 MLOAD DUP1 DUP3 ADD DUP3 MSTORE PUSH1 0x5 DUP2 MSTORE PUSH5 0x30B236B4B7 PUSH1 0xD9 SHL PUSH1 0x20 SWAP1 SWAP2 ADD MSTORE MLOAD PUSH32 0xF23EC0BB4210EDD5CBA85AFD05127EFCD2FC6A781BFED49188DA1081670B22D8 SWAP1 PUSH2 0x1239 SWAP1 DUP9 SWAP1 DUP9 SWAP1 PUSH2 0x2D00 JUMP JUMPDEST PUSH1 0x40 MLOAD DUP1 SWAP2 SUB SWAP1 KECCAK256 EQ JUMPDEST PUSH2 0x1286 JUMPI PUSH1 0x40 MLOAD PUSH3 0x461BCD PUSH1 0xE5 SHL DUP2 MSTORE PUSH1 0x20 PUSH1 0x4 DUP3 ADD MSTORE PUSH1 0x14 PUSH1 0x24 DUP3 ADD MSTORE PUSH20 0x125B9D985B1A59081858D8D95CDCC81B195D995B PUSH1 0x62 SHL PUSH1 0x44 DUP3 ADD MSTORE PUSH1 0x64 ADD PUSH2 0x59B JUMP JUMPDEST PUSH1 0xD DUP1 SLOAD SWAP1 PUSH0 PUSH2 0x1295 DUP4 PUSH2 0x2D23 JUMP JUMPDEST SWAP2 SWAP1 POP SSTORE SWAP1 POP PUSH1 0x40 MLOAD DUP1 PUSH1 0xC0 ADD PUSH1 0x40 MSTORE DUP1 DUP10 DUP2 MSTORE PUSH1 0x20 ADD DUP9 DUP2 MSTORE PUSH1 0x20 ADD DUP8 DUP8 DUP1 DUP1 PUSH1 0x1F ADD PUSH1 0x20 DUP1 SWAP2 DIV MUL PUSH1 0x20 ADD PUSH1 0x40 MLOAD SWAP1 DUP2 ADD PUSH1 0x40 MSTORE DUP1 SWAP4 SWAP3 SWAP2 SWAP1 DUP2 DUP2 MSTORE PUSH1 0x20 ADD DUP4 DUP4 DUP1 DUP3 DUP5 CALLDATACOPY PUSH0 SWAP3 ADD SWAP2 SWAP1 SWAP2 MSTORE POP POP POP SWAP1 DUP3 MSTORE POP PUSH1 0x40 DUP1 MLOAD PUSH1 0x20 PUSH1 0x1F DUP9 ADD DUP2 SWAP1 DIV DUP2 MUL DUP3 ADD DUP2 ADD SWAP1 SWAP3 MSTORE DUP7 DUP2 MSTORE SWAP2 DUP2 ADD SWAP2 SWAP1 DUP8 SWAP1 DUP8 SWAP1 DUP2 SWAP1 DUP5 ADD DUP4 DUP3 DUP1 DUP3 DUP5 CALLDATACOPY PUSH0 SWAP3 ADD DUP3 SWAP1 MSTORE POP SWAP4 DUP6 MSTORE POP POP POP DUP5 ISZERO ISZERO PUSH1 0x20 DUP1 DUP5 ADD SWAP2 SWAP1 SWAP2 MSTORE TIMESTAMP PUSH1 0x40 SWAP4 DUP5 ADD MSTORE DUP5 DUP3 MSTORE PUSH1 0xB DUP2 MSTORE SWAP1 DUP3 SWAP1 KECCAK256 DUP4 MLOAD DUP2 SSTORE SWAP1 DUP4 ADD MLOAD PUSH1 0x1 DUP3 ADD SSTORE SWAP1 DUP3 ADD MLOAD PUSH1 0x2 DUP3 ADD SWAP1 PUSH2 0x1361 SWAP1 DUP3 PUSH2 0x2D7F JUMP JUMPDEST POP PUSH1 0x60 DUP3 ADD MLOAD PUSH1 0x3 DUP3 ADD SWAP1 PUSH2 0x1376 SWAP1 DUP3 PUSH2 0x2D7F JUMP JUMPDEST POP PUSH1 0x80 DUP3 ADD MLOAD PUSH1 0x4 DUP3 ADD DUP1 SLOAD PUSH1 0xFF NOT AND SWAP2 ISZERO ISZERO SWAP2 SWAP1 SWAP2 OR SWAP1 SSTORE PUSH1 0xA0 SWAP1 SWAP2 ADD MLOAD PUSH1 0x5 SWAP1 SWAP2 ADD SSTORE PUSH1 0x40 MLOAD PUSH0 SWAP1 PUSH2 0x13AE SWAP1 DUP12 SWAP1 PUSH1 0x20 ADD PUSH2 0x2CA8 JUMP JUMPDEST PUSH1 0x40 DUP1 MLOAD PUSH1 0x1F NOT DUP2 DUP5 SUB ADD DUP2 MSTORE SWAP2 DUP2 MSTORE DUP2 MLOAD PUSH1 0x20 SWAP3 DUP4 ADD KECCAK256 PUSH0 DUP13 DUP2 MSTORE PUSH1 0xC DUP5 MSTORE DUP3 DUP2 KECCAK256 DUP3 DUP3 MSTORE SWAP1 SWAP4 MSTORE SWAP2 KECCAK256 DUP1 SLOAD PUSH1 0xFF NOT AND PUSH1 0x1 OR SWAP1 SSTORE SWAP1 POP PUSH2 0x13F0 DUP11 DUP4 PUSH2 0x1E10 JUMP JUMPDEST DUP1 DUP10 DUP4 PUSH31 0x378AE68C594277665841034DC68781AB7B07DC963A3533BD9DCC398D771D24 DUP11 DUP11 DUP14 PUSH1 0x40 MLOAD PUSH2 0x1425 SWAP4 SWAP3 SWAP2 SWAP1 PUSH2 0x2E39 JUMP JUMPDEST PUSH1 0x40 MLOAD DUP1 SWAP2 SUB SWAP1 LOG4 POP PUSH2 0x1444 PUSH1 0x1 PUSH0 DUP1 MLOAD PUSH1 0x20 PUSH2 0x31EB DUP4 CODECOPY DUP2 MLOAD SWAP2 MSTORE SSTORE JUMP JUMPDEST SWAP9 SWAP8 POP POP POP POP POP POP POP POP JUMP JUMPDEST PUSH1 0xB PUSH1 0x20 MSTORE PUSH0 SWAP1 DUP2 MSTORE PUSH1 0x40 SWAP1 KECCAK256 DUP1 SLOAD PUSH1 0x1 DUP3 ADD SLOAD PUSH1 0x2 DUP4 ADD DUP1 SLOAD SWAP3 SWAP4 SWAP2 SWAP3 PUSH2 0x1477 SWAP1 PUSH2 0x2C5C JUMP JUMPDEST DUP1 PUSH1 0x1F ADD PUSH1 0x20 DUP1 SWAP2 DIV MUL PUSH1 0x20 ADD PUSH1 0x40 MLOAD SWAP1 DUP2 ADD PUSH1 0x40 MSTORE DUP1 SWAP3 SWAP2 SWAP1 DUP2 DUP2 MSTORE PUSH1 0x20 ADD DUP3 DUP1 SLOAD PUSH2 0x14A3 SWAP1 PUSH2 0x2C5C JUMP JUMPDEST DUP1 ISZERO PUSH2 0x14EE JUMPI DUP1 PUSH1 0x1F LT PUSH2 0x14C5 JUMPI PUSH2 0x100 DUP1 DUP4 SLOAD DIV MUL DUP4 MSTORE SWAP2 PUSH1 0x20 ADD SWAP2 PUSH2 0x14EE JUMP JUMPDEST DUP3 ADD SWAP2 SWAP1 PUSH0 MSTORE PUSH1 0x20 PUSH0 KECCAK256 SWAP1 JUMPDEST DUP2 SLOAD DUP2 MSTORE SWAP1 PUSH1 0x1 ADD SWAP1 PUSH1 0x20 ADD DUP1 DUP4 GT PUSH2 0x14D1 JUMPI DUP3 SWAP1 SUB PUSH1 0x1F AND DUP3 ADD SWAP2 JUMPDEST POP POP POP POP POP SWAP1 DUP1 PUSH1 0x3 ADD DUP1 SLOAD PUSH2 0x1503 SWAP1 PUSH2 0x2C5C JUMP JUMPDEST DUP1 PUSH1 0x1F ADD PUSH1 0x20 DUP1 SWAP2 DIV MUL PUSH1 0x20 ADD PUSH1 0x40 MLOAD SWAP1 DUP2 ADD PUSH1 0x40 MSTORE DUP1 SWAP3 SWAP2 SWAP1 DUP2 DUP2 MSTORE PUSH1 0x20 ADD DUP3 DUP1 SLOAD PUSH2 0x152F SWAP1 PUSH2 0x2C5C JUMP JUMPDEST DUP1 ISZERO PUSH2 0x157A JUMPI DUP1 PUSH1 0x1F LT PUSH2 0x1551 JUMPI PUSH2 0x100 DUP1 DUP4 SLOAD DIV MUL DUP4 MSTORE SWAP2 PUSH1 0x20 ADD SWAP2 PUSH2 0x157A JUMP JUMPDEST DUP3 ADD SWAP2 SWAP1 PUSH0 MSTORE PUSH1 0x20 PUSH0 KECCAK256 SWAP1 JUMPDEST DUP2 SLOAD DUP2 MSTORE SWAP1 PUSH1 0x1 ADD SWAP1 PUSH1 0x20 ADD DUP1 DUP4 GT PUSH2 0x155D JUMPI DUP3 SWAP1 SUB PUSH1 0x1F AND DUP3 ADD SWAP2 JUMPDEST POP POP POP POP PUSH1 0x4 DUP4 ADD SLOAD PUSH1 0x5 SWAP1 SWAP4 ADD SLOAD SWAP2 SWAP3 PUSH1 0xFF AND SWAP2 SWAP1 POP DUP7 JUMP JUMPDEST PUSH1 0x1 PUSH1 0x1 PUSH1 0xA0 SHL SUB SWAP2 DUP3 AND PUSH0 SWAP1 DUP2 MSTORE PUSH1 0x5 PUSH1 0x20 SWAP1 DUP2 MSTORE PUSH1 0x40 DUP1 DUP4 KECCAK256 SWAP4 SWAP1 SWAP5 AND DUP3 MSTORE SWAP2 SWAP1 SWAP2 MSTORE KECCAK256 SLOAD PUSH1 0xFF AND SWAP1 JUMP JUMPDEST PUSH2 0x15C9 PUSH2 0x1667 JUMP JUMPDEST PUSH1 0x1 PUSH1 0x1 PUSH1 0xA0 SHL SUB DUP2 AND PUSH2 0x15F2 JUMPI PUSH1 0x40 MLOAD PUSH4 0x1E4FBDF7 PUSH1 0xE0 SHL DUP2 MSTORE PUSH0 PUSH1 0x4 DUP3 ADD MSTORE PUSH1 0x24 ADD PUSH2 0x59B JUMP JUMPDEST PUSH2 0x15FB DUP2 PUSH2 0x1774 JUMP JUMPDEST POP JUMP JUMPDEST PUSH0 PUSH1 0x1 PUSH1 0x1 PUSH1 0xE0 SHL SUB NOT DUP3 AND PUSH4 0x780E9D63 PUSH1 0xE0 SHL EQ DUP1 PUSH2 0x45A JUMPI POP PUSH2 0x45A DUP3 PUSH2 0x1E29 JUMP JUMPDEST PUSH0 DUP2 DUP2 MSTORE PUSH1 0x2 PUSH1 0x20 MSTORE PUSH1 0x40 DUP2 KECCAK256 SLOAD PUSH1 0x1 PUSH1 0x1 PUSH1 0xA0 SHL SUB AND DUP1 PUSH2 0x45A JUMPI PUSH1 0x40 MLOAD PUSH4 0x7E273289 PUSH1 0xE0 SHL DUP2 MSTORE PUSH1 0x4 DUP2 ADD DUP5 SWAP1 MSTORE PUSH1 0x24 ADD PUSH2 0x59B JUMP JUMPDEST PUSH2 0x681 DUP4 DUP4 DUP4 PUSH1 0x1 PUSH2 0x1E78 JUMP JUMPDEST PUSH1 0xA SLOAD PUSH1 0x1 PUSH1 0x1 PUSH1 0xA0 SHL SUB AND CALLER EQ PUSH2 0x73B JUMPI PUSH1 0x40 MLOAD PUSH4 0x118CDAA7 PUSH1 0xE0 SHL DUP2 MSTORE CALLER PUSH1 0x4 DUP3 ADD MSTORE PUSH1 0x24 ADD PUSH2 0x59B JUMP JUMPDEST PUSH0 DUP1 PUSH2 0x16A1 DUP6 DUP6 DUP6 PUSH2 0x1F7C JUMP JUMPDEST SWAP1 POP PUSH1 0x1 PUSH1 0x1 PUSH1 0xA0 SHL SUB DUP2 AND ISZERO DUP1 ISZERO SWAP1 PUSH2 0x16C3 JUMPI POP PUSH1 0x1 PUSH1 0x1 PUSH1 0xA0 SHL SUB DUP6 AND ISZERO ISZERO JUMPDEST ISZERO PUSH2 0xBA5 JUMPI PUSH0 DUP5 DUP2 MSTORE PUSH1 0xB PUSH1 0x20 SWAP1 DUP2 MSTORE PUSH1 0x40 DUP1 DUP4 KECCAK256 SWAP1 MLOAD SWAP1 SWAP3 SWAP2 PUSH2 0x16E9 SWAP2 DUP6 SWAP2 ADD PUSH2 0x2CA8 JUMP JUMPDEST PUSH1 0x40 MLOAD PUSH1 0x20 DUP2 DUP4 SUB SUB DUP2 MSTORE SWAP1 PUSH1 0x40 MSTORE DUP1 MLOAD SWAP1 PUSH1 0x20 ADD KECCAK256 SWAP1 POP PUSH0 DUP8 PUSH1 0x40 MLOAD PUSH1 0x20 ADD PUSH2 0x1713 SWAP2 SWAP1 PUSH2 0x2CA8 JUMP JUMPDEST PUSH1 0x40 DUP1 MLOAD PUSH1 0x1F NOT DUP2 DUP5 SUB ADD DUP2 MSTORE SWAP2 DUP2 MSTORE DUP2 MLOAD PUSH1 0x20 SWAP3 DUP4 ADD KECCAK256 DUP6 SLOAD PUSH0 SWAP1 DUP2 MSTORE PUSH1 0xC DUP1 DUP6 MSTORE DUP4 DUP3 KECCAK256 SWAP7 DUP3 MSTORE SWAP6 DUP5 MSTORE DUP3 DUP2 KECCAK256 DUP1 SLOAD PUSH1 0xFF NOT SWAP1 DUP2 AND SWAP1 SWAP2 SSTORE SWAP7 SLOAD DUP2 MSTORE SWAP5 DUP4 MSTORE DUP2 DUP6 KECCAK256 SWAP1 DUP6 MSTORE SWAP1 SWAP2 MSTORE SWAP1 SWAP2 KECCAK256 DUP1 SLOAD SWAP1 SWAP3 AND PUSH1 0x1 OR SWAP1 SWAP2 SSTORE POP SWAP5 SWAP4 POP POP POP POP JUMP JUMPDEST PUSH1 0xA DUP1 SLOAD PUSH1 0x1 PUSH1 0x1 PUSH1 0xA0 SHL SUB DUP4 DUP2 AND PUSH1 0x1 PUSH1 0x1 PUSH1 0xA0 SHL SUB NOT DUP4 AND DUP2 OR SWAP1 SWAP4 SSTORE PUSH1 0x40 MLOAD SWAP2 AND SWAP2 SWAP1 DUP3 SWAP1 PUSH32 0x8BE0079C531659141344CD1FD0A4F28419497F9722A3DAAFE3B4186F6B6457E0 SWAP1 PUSH0 SWAP1 LOG3 POP POP JUMP JUMPDEST PUSH2 0x17CD PUSH2 0x2047 JUMP JUMPDEST PUSH1 0x2 PUSH0 DUP1 MLOAD PUSH1 0x20 PUSH2 0x31EB DUP4 CODECOPY DUP2 MLOAD SWAP2 MSTORE SSTORE JUMP JUMPDEST PUSH0 PUSH2 0x17F3 PUSH1 0xA SLOAD PUSH1 0x1 PUSH1 0x1 PUSH1 0xA0 SHL SUB AND SWAP1 JUMP JUMPDEST PUSH1 0x1 PUSH1 0x1 PUSH1 0xA0 SHL SUB AND DUP4 PUSH1 0x1 PUSH1 0x1 PUSH1 0xA0 SHL SUB AND EQ SWAP1 POP SWAP3 SWAP2 POP POP JUMP JUMPDEST PUSH0 PUSH2 0x181B PUSH0 DUP4 PUSH0 PUSH2 0x1694 JUMP JUMPDEST SWAP1 POP PUSH1 0x1 PUSH1 0x1 PUSH1 0xA0 SHL SUB DUP2 AND PUSH2 0x521 JUMPI PUSH1 0x40 MLOAD PUSH4 0x7E273289 PUSH1 0xE0 SHL DUP2 MSTORE PUSH1 0x4 DUP2 ADD DUP4 SWAP1 MSTORE PUSH1 0x24 ADD PUSH2 0x59B JUMP JUMPDEST PUSH1 0x1 PUSH1 0x1 PUSH1 0xA0 SHL SUB DUP4 AND PUSH2 0x1870 JUMPI PUSH1 0x40 MLOAD PUSH4 0xA9FBF51F PUSH1 0xE0 SHL DUP2 MSTORE PUSH0 PUSH1 0x4 DUP3 ADD MSTORE PUSH1 0x24 ADD PUSH2 0x59B JUMP JUMPDEST PUSH1 0x1 PUSH1 0x1 PUSH1 0xA0 SHL SUB DUP3 AND PUSH2 0x18A2 JUMPI PUSH1 0x40 MLOAD PUSH4 0xB611743 PUSH1 0xE3 SHL DUP2 MSTORE PUSH1 0x1 PUSH1 0x1 PUSH1 0xA0 SHL SUB DUP4 AND PUSH1 0x4 DUP3 ADD MSTORE PUSH1 0x24 ADD PUSH2 0x59B JUMP JUMPDEST PUSH1 0x1 PUSH1 0x1 PUSH1 0xA0 SHL SUB DUP4 DUP2 AND PUSH0 DUP2 DUP2 MSTORE PUSH1 0x5 PUSH1 0x20 SWAP1 DUP2 MSTORE PUSH1 0x40 DUP1 DUP4 KECCAK256 SWAP5 DUP8 AND DUP1 DUP5 MSTORE SWAP5 DUP3 MSTORE SWAP2 DUP3 SWAP1 KECCAK256 DUP1 SLOAD PUSH1 0xFF NOT AND DUP7 ISZERO ISZERO SWAP1 DUP2 OR SWAP1 SWAP2 SSTORE SWAP2 MLOAD SWAP2 DUP3 MSTORE PUSH32 0x17307EAB39AB6107E8899845AD3D59BD9653F200F220920489CA2B5937696C31 SWAP2 ADD PUSH1 0x40 MLOAD DUP1 SWAP2 SUB SWAP1 LOG3 POP POP POP JUMP JUMPDEST PUSH1 0xD DUP1 SLOAD PUSH0 SWAP2 DUP3 PUSH2 0x191E DUP4 PUSH2 0x2D23 JUMP JUMPDEST SWAP1 SWAP2 SSTORE POP PUSH1 0x40 DUP1 MLOAD PUSH1 0xC0 DUP2 ADD DUP3 MSTORE DUP9 DUP2 MSTORE PUSH1 0x20 DUP1 DUP3 ADD DUP10 DUP2 MSTORE DUP3 DUP5 ADD DUP10 DUP2 MSTORE PUSH1 0x60 DUP5 ADD DUP10 SWAP1 MSTORE DUP8 ISZERO ISZERO PUSH1 0x80 DUP6 ADD MSTORE TIMESTAMP PUSH1 0xA0 DUP6 ADD MSTORE PUSH0 DUP7 DUP2 MSTORE PUSH1 0xB SWAP1 SWAP4 MSTORE SWAP4 SWAP1 SWAP2 KECCAK256 DUP3 MLOAD DUP2 SSTORE SWAP1 MLOAD PUSH1 0x1 DUP3 ADD SSTORE SWAP2 MLOAD SWAP3 SWAP4 POP SWAP2 PUSH1 0x2 DUP3 ADD SWAP1 PUSH2 0x197F SWAP1 DUP3 PUSH2 0x2D7F JUMP JUMPDEST POP PUSH1 0x60 DUP3 ADD MLOAD PUSH1 0x3 DUP3 ADD SWAP1 PUSH2 0x1994 SWAP1 DUP3 PUSH2 0x2D7F JUMP JUMPDEST POP PUSH1 0x80 DUP3 ADD MLOAD PUSH1 0x4 DUP3 ADD DUP1 SLOAD PUSH1 0xFF NOT AND SWAP2 ISZERO ISZERO SWAP2 SWAP1 SWAP2 OR SWAP1 SSTORE PUSH1 0xA0 SWAP1 SWAP2 ADD MLOAD PUSH1 0x5 SWAP1 SWAP2 ADD SSTORE PUSH1 0x40 MLOAD PUSH0 SWAP1 PUSH2 0x19CC SWAP1 DUP10 SWAP1 PUSH1 0x20 ADD PUSH2 0x2CA8 JUMP JUMPDEST PUSH1 0x40 DUP1 MLOAD PUSH1 0x1F NOT DUP2 DUP5 SUB ADD DUP2 MSTORE SWAP2 DUP2 MSTORE DUP2 MLOAD PUSH1 0x20 SWAP3 DUP4 ADD KECCAK256 PUSH0 DUP11 DUP2 MSTORE PUSH1 0xC DUP5 MSTORE DUP3 DUP2 KECCAK256 DUP3 DUP3 MSTORE SWAP1 SWAP4 MSTORE SWAP2 KECCAK256 DUP1 SLOAD PUSH1 0xFF NOT AND PUSH1 0x1 OR SWAP1 SSTORE SWAP1 POP PUSH2 0x1A0E DUP9 DUP4 PUSH2 0x1E10 JUMP JUMPDEST DUP1 DUP8 DUP4 PUSH31 0x378AE68C594277665841034DC68781AB7B07DC963A3533BD9DCC398D771D24 DUP9 DUP11 PUSH1 0x40 MLOAD PUSH2 0x1A41 SWAP3 SWAP2 SWAP1 PUSH2 0x2E5C JUMP JUMPDEST PUSH1 0x40 MLOAD DUP1 SWAP2 SUB SWAP1 LOG4 POP SWAP7 SWAP6 POP POP POP POP POP POP JUMP JUMPDEST DUP2 MLOAD PUSH1 0x20 DUP1 DUP5 ADD SWAP2 SWAP1 SWAP2 KECCAK256 DUP3 MLOAD DUP4 DUP4 ADD KECCAK256 PUSH1 0x40 DUP1 MLOAD DUP1 DUP3 ADD SWAP1 SWAP2 MSTORE PUSH1 0x5 DUP2 MSTORE PUSH5 0x30B236B4B7 PUSH1 0xD9 SHL SWAP4 ADD SWAP3 SWAP1 SWAP3 MSTORE PUSH0 SWAP2 PUSH32 0xDC13F44BDEF122A3457A502FAED81032D039587E4012B6E7725EF7E98F4DD28 DUP3 ADD PUSH2 0x1AB6 JUMPI PUSH1 0x1 SWAP3 POP POP POP PUSH2 0x45A JUMP JUMPDEST PUSH1 0x40 DUP1 MLOAD DUP1 DUP3 ADD SWAP1 SWAP2 MSTORE PUSH1 0x5 DUP2 MSTORE PUSH5 0x7772697465 PUSH1 0xD8 SHL PUSH1 0x20 SWAP1 SWAP2 ADD MSTORE PUSH32 0x5605FE3D9DF83E7D7D3EB4BB3A0F768468E1D85E7AAC801FA57BE5B82B4AEBAC DUP3 ADD PUSH2 0x1B89 JUMPI PUSH1 0x40 DUP1 MLOAD DUP1 DUP3 ADD SWAP1 SWAP2 MSTORE PUSH1 0x4 DUP2 MSTORE PUSH4 0x1C995859 PUSH1 0xE2 SHL PUSH1 0x20 SWAP1 SWAP2 ADD MSTORE PUSH32 0xE49EDE7C272D2D65E6EA541CD18A0E88D67917E802FD62BBFB6A63E7C3529891 DUP2 EQ DUP1 PUSH2 0x1B80 JUMPI POP PUSH1 0x40 DUP1 MLOAD DUP1 DUP3 ADD SWAP1 SWAP2 MSTORE PUSH1 0x5 DUP2 MSTORE PUSH5 0x7772697465 PUSH1 0xD8 SHL PUSH1 0x20 SWAP1 SWAP2 ADD MSTORE PUSH32 0xA9FA01C26207C18282C14B44C5F0897B971E27A185537FE05A841A47D4B51454 DUP2 EQ JUMPDEST SWAP3 POP POP POP PUSH2 0x45A JUMP JUMPDEST PUSH1 0x40 DUP1 MLOAD DUP1 DUP3 ADD SWAP1 SWAP2 MSTORE PUSH1 0x4 DUP2 MSTORE PUSH4 0x1C995859 PUSH1 0xE2 SHL PUSH1 0x20 SWAP1 SWAP2 ADD MSTORE PUSH32 0x1B612183D8D2D29A1915ABE32E75F1772986E817FD029D4404959C183CAD676F DUP3 ADD PUSH2 0x1C13 JUMPI PUSH1 0x40 DUP1 MLOAD DUP1 DUP3 ADD SWAP1 SWAP2 MSTORE PUSH1 0x4 DUP2 MSTORE PUSH4 0x1C995859 PUSH1 0xE2 SHL PUSH1 0x20 SWAP1 SWAP2 ADD MSTORE PUSH32 0xE49EDE7C272D2D65E6EA541CD18A0E88D67917E802FD62BBFB6A63E7C3529891 EQ SWAP2 POP PUSH2 0x45A SWAP1 POP JUMP JUMPDEST POP PUSH0 SWAP5 SWAP4 POP POP POP POP JUMP JUMPDEST PUSH1 0x1 PUSH1 0x1 PUSH1 0xA0 SHL SUB DUP4 AND EXTCODESIZE ISZERO PUSH2 0x1D3E JUMPI PUSH1 0x40 MLOAD PUSH4 0xA85BD01 PUSH1 0xE1 SHL DUP2 MSTORE PUSH1 0x1 PUSH1 0x1 PUSH1 0xA0 SHL SUB DUP5 AND SWAP1 PUSH4 0x150B7A02 SWAP1 PUSH2 0x1C5F SWAP1 DUP9 SWAP1 DUP9 SWAP1 DUP8 SWAP1 DUP8 SWAP1 PUSH1 0x4 ADD PUSH2 0x2E7D JUMP JUMPDEST PUSH1 0x20 PUSH1 0x40 MLOAD DUP1 DUP4 SUB DUP2 PUSH0 DUP8 GAS CALL SWAP3 POP POP POP DUP1 ISZERO PUSH2 0x1C99 JUMPI POP PUSH1 0x40 DUP1 MLOAD PUSH1 0x1F RETURNDATASIZE SWAP1 DUP2 ADD PUSH1 0x1F NOT AND DUP3 ADD SWAP1 SWAP3 MSTORE PUSH2 0x1C96 SWAP2 DUP2 ADD SWAP1 PUSH2 0x2EB9 JUMP JUMPDEST PUSH1 0x1 JUMPDEST PUSH2 0x1D00 JUMPI RETURNDATASIZE DUP1 DUP1 ISZERO PUSH2 0x1CC6 JUMPI PUSH1 0x40 MLOAD SWAP2 POP PUSH1 0x1F NOT PUSH1 0x3F RETURNDATASIZE ADD AND DUP3 ADD PUSH1 0x40 MSTORE RETURNDATASIZE DUP3 MSTORE RETURNDATASIZE PUSH0 PUSH1 0x20 DUP5 ADD RETURNDATACOPY PUSH2 0x1CCB JUMP JUMPDEST PUSH1 0x60 SWAP2 POP JUMPDEST POP DUP1 MLOAD PUSH0 SUB PUSH2 0x1CF8 JUMPI PUSH1 0x40 MLOAD PUSH4 0x32505749 PUSH1 0xE1 SHL DUP2 MSTORE PUSH1 0x1 PUSH1 0x1 PUSH1 0xA0 SHL SUB DUP6 AND PUSH1 0x4 DUP3 ADD MSTORE PUSH1 0x24 ADD PUSH2 0x59B JUMP JUMPDEST DUP1 MLOAD PUSH1 0x20 DUP3 ADD REVERT JUMPDEST PUSH1 0x1 PUSH1 0x1 PUSH1 0xE0 SHL SUB NOT DUP2 AND PUSH4 0xA85BD01 PUSH1 0xE1 SHL EQ PUSH2 0x1D3C JUMPI PUSH1 0x40 MLOAD PUSH4 0x32505749 PUSH1 0xE1 SHL DUP2 MSTORE PUSH1 0x1 PUSH1 0x1 PUSH1 0xA0 SHL SUB DUP6 AND PUSH1 0x4 DUP3 ADD MSTORE PUSH1 0x24 ADD PUSH2 0x59B JUMP JUMPDEST POP JUMPDEST POP POP POP POP POP JUMP JUMPDEST PUSH0 DUP2 DUP2 MSTORE PUSH1 0xB PUSH1 0x20 MSTORE PUSH1 0x40 DUP2 KECCAK256 PUSH1 0x1 DUP2 ADD SLOAD PUSH1 0x60 SWAP3 SWAP1 PUSH2 0x1D84 JUMPI PUSH1 0x40 MLOAD DUP1 PUSH1 0x40 ADD PUSH1 0x40 MSTORE DUP1 PUSH1 0x7 DUP2 MSTORE PUSH1 0x20 ADD PUSH7 0x113732BB32B911 PUSH1 0xC9 SHL DUP2 MSTORE POP PUSH2 0x1D91 JUMP JUMPDEST PUSH2 0x1D91 DUP3 PUSH1 0x1 ADD SLOAD PUSH2 0x2076 JUMP JUMPDEST SWAP1 POP PUSH2 0x1D9C DUP5 PUSH2 0x2076 JUMP JUMPDEST DUP3 SLOAD PUSH1 0x2 DUP5 ADD SWAP1 DUP2 SWAP1 PUSH2 0x1DAE SWAP1 PUSH2 0x2172 JUMP JUMPDEST DUP5 PUSH1 0x40 MLOAD PUSH1 0x20 ADD PUSH2 0x1DC3 SWAP6 SWAP5 SWAP4 SWAP3 SWAP2 SWAP1 PUSH2 0x2F59 JUMP JUMPDEST PUSH1 0x40 MLOAD PUSH1 0x20 DUP2 DUP4 SUB SUB DUP2 MSTORE SWAP1 PUSH1 0x40 MSTORE SWAP3 POP POP POP SWAP2 SWAP1 POP JUMP JUMPDEST PUSH0 DUP3 PUSH1 0x1 PUSH1 0x1 PUSH1 0xA0 SHL SUB AND PUSH2 0x1DEF DUP4 PUSH2 0x6DB JUMP JUMPDEST PUSH1 0x1 PUSH1 0x1 PUSH1 0xA0 SHL SUB AND EQ DUP1 PUSH2 0xCE5 JUMPI POP PUSH1 0xA SLOAD PUSH1 0x1 PUSH1 0x1 PUSH1 0xA0 SHL SUB AND PUSH2 0x17F3 JUMP JUMPDEST PUSH2 0x521 DUP3 DUP3 PUSH1 0x40 MLOAD DUP1 PUSH1 0x20 ADD PUSH1 0x40 MSTORE DUP1 PUSH0 DUP2 MSTORE POP PUSH2 0x2267 JUMP JUMPDEST PUSH0 PUSH1 0x1 PUSH1 0x1 PUSH1 0xE0 SHL SUB NOT DUP3 AND PUSH4 0x80AC58CD PUSH1 0xE0 SHL EQ DUP1 PUSH2 0x1E59 JUMPI POP PUSH1 0x1 PUSH1 0x1 PUSH1 0xE0 SHL SUB NOT DUP3 AND PUSH4 0x5B5E139F PUSH1 0xE0 SHL EQ JUMPDEST DUP1 PUSH2 0x45A JUMPI POP PUSH4 0x1FFC9A7 PUSH1 0xE0 SHL PUSH1 0x1 PUSH1 0x1 PUSH1 0xE0 SHL SUB NOT DUP4 AND EQ PUSH2 0x45A JUMP JUMPDEST DUP1 DUP1 PUSH2 0x1E8C JUMPI POP PUSH1 0x1 PUSH1 0x1 PUSH1 0xA0 SHL SUB DUP3 AND ISZERO ISZERO JUMPDEST ISZERO PUSH2 0x1F4D JUMPI PUSH0 PUSH2 0x1E9B DUP5 PUSH2 0x1622 JUMP JUMPDEST SWAP1 POP PUSH1 0x1 PUSH1 0x1 PUSH1 0xA0 SHL SUB DUP4 AND ISZERO DUP1 ISZERO SWAP1 PUSH2 0x1EC7 JUMPI POP DUP3 PUSH1 0x1 PUSH1 0x1 PUSH1 0xA0 SHL SUB AND DUP2 PUSH1 0x1 PUSH1 0x1 PUSH1 0xA0 SHL SUB AND EQ ISZERO JUMPDEST DUP1 ISZERO PUSH2 0x1EDA JUMPI POP PUSH2 0x1ED8 DUP2 DUP5 PUSH2 0x1594 JUMP JUMPDEST ISZERO JUMPDEST ISZERO PUSH2 0x1F03 JUMPI PUSH1 0x40 MLOAD PUSH4 0xA9FBF51F PUSH1 0xE0 SHL DUP2 MSTORE PUSH1 0x1 PUSH1 0x1 PUSH1 0xA0 SHL SUB DUP5 AND PUSH1 0x4 DUP3 ADD MSTORE PUSH1 0x24 ADD PUSH2 0x59B JUMP JUMPDEST DUP2 ISZERO PUSH2 0x1F4B JUMPI DUP4 DUP6 PUSH1 0x1 PUSH1 0x1 PUSH1 0xA0 SHL SUB AND DUP3 PUSH1 0x1 PUSH1 0x1 PUSH1 0xA0 SHL SUB AND PUSH32 0x8C5BE1E5EBEC7D5BD14F71427D1E84F3DD0314C0F7B2291E5B200AC8C7C3B925 PUSH1 0x40 MLOAD PUSH1 0x40 MLOAD DUP1 SWAP2 SUB SWAP1 LOG4 JUMPDEST POP JUMPDEST POP POP PUSH0 SWAP1 DUP2 MSTORE PUSH1 0x4 PUSH1 0x20 MSTORE PUSH1 0x40 SWAP1 KECCAK256 DUP1 SLOAD PUSH1 0x1 PUSH1 0x1 PUSH1 0xA0 SHL SUB NOT AND PUSH1 0x1 PUSH1 0x1 PUSH1 0xA0 SHL SUB SWAP3 SWAP1 SWAP3 AND SWAP2 SWAP1 SWAP2 OR SWAP1 SSTORE JUMP JUMPDEST PUSH0 DUP1 PUSH2 0x1F89 DUP6 DUP6 DUP6 PUSH2 0x227E JUMP JUMPDEST SWAP1 POP PUSH1 0x1 PUSH1 0x1 PUSH1 0xA0 SHL SUB DUP2 AND PUSH2 0x1FE5 JUMPI PUSH2 0x1FE0 DUP5 PUSH1 0x8 DUP1 SLOAD PUSH0 DUP4 DUP2 MSTORE PUSH1 0x9 PUSH1 0x20 MSTORE PUSH1 0x40 DUP2 KECCAK256 DUP3 SWAP1 SSTORE PUSH1 0x1 DUP3 ADD DUP4 SSTORE SWAP2 SWAP1 SWAP2 MSTORE PUSH32 0xF3F7A9FE364FAAB93B216DA50A3214154F22A0A2B415B23A84C8169E8B636EE3 ADD SSTORE JUMP JUMPDEST PUSH2 0x2008 JUMP JUMPDEST DUP5 PUSH1 0x1 PUSH1 0x1 PUSH1 0xA0 SHL SUB AND DUP2 PUSH1 0x1 PUSH1 0x1 PUSH1 0xA0 SHL SUB AND EQ PUSH2 0x2008 JUMPI PUSH2 0x2008 DUP2 DUP6 PUSH2 0x2370 JUMP JUMPDEST PUSH1 0x1 PUSH1 0x1 PUSH1 0xA0 SHL SUB DUP6 AND PUSH2 0x2024 JUMPI PUSH2 0x201F DUP5 PUSH2 0x23ED JUMP JUMPDEST PUSH2 0xBA5 JUMP JUMPDEST DUP5 PUSH1 0x1 PUSH1 0x1 PUSH1 0xA0 SHL SUB AND DUP2 PUSH1 0x1 PUSH1 0x1 PUSH1 0xA0 SHL SUB AND EQ PUSH2 0xBA5 JUMPI PUSH2 0xBA5 DUP6 DUP6 PUSH2 0x2494 JUMP JUMPDEST PUSH0 DUP1 MLOAD PUSH1 0x20 PUSH2 0x31EB DUP4 CODECOPY DUP2 MLOAD SWAP2 MSTORE SLOAD PUSH1 0x2 SUB PUSH2 0x73B JUMPI PUSH1 0x40 MLOAD PUSH4 0x3EE5AEB5 PUSH1 0xE0 SHL DUP2 MSTORE PUSH1 0x4 ADD PUSH1 0x40 MLOAD DUP1 SWAP2 SUB SWAP1 REVERT JUMPDEST PUSH1 0x60 DUP2 PUSH0 SUB PUSH2 0x209C JUMPI POP POP PUSH1 0x40 DUP1 MLOAD DUP1 DUP3 ADD SWAP1 SWAP2 MSTORE PUSH1 0x1 DUP2 MSTORE PUSH1 0x3 PUSH1 0xFC SHL PUSH1 0x20 DUP3 ADD MSTORE SWAP1 JUMP JUMPDEST DUP2 PUSH0 JUMPDEST DUP2 ISZERO PUSH2 0x20C5 JUMPI DUP1 PUSH2 0x20AF DUP2 PUSH2 0x2D23 JUMP JUMPDEST SWAP2 POP PUSH2 0x20BE SWAP1 POP PUSH1 0xA DUP4 PUSH2 0x3118 JUMP JUMPDEST SWAP2 POP PUSH2 0x209F JUMP JUMPDEST PUSH0 DUP2 PUSH1 0x1 PUSH1 0x1 PUSH1 0x40 SHL SUB DUP2 GT ISZERO PUSH2 0x20DE JUMPI PUSH2 0x20DE PUSH2 0x299B JUMP JUMPDEST PUSH1 0x40 MLOAD SWAP1 DUP1 DUP3 MSTORE DUP1 PUSH1 0x1F ADD PUSH1 0x1F NOT AND PUSH1 0x20 ADD DUP3 ADD PUSH1 0x40 MSTORE DUP1 ISZERO PUSH2 0x2108 JUMPI PUSH1 0x20 DUP3 ADD DUP2 DUP1 CALLDATASIZE DUP4 CALLDATACOPY ADD SWAP1 POP JUMPDEST POP SWAP1 POP JUMPDEST DUP5 ISZERO PUSH2 0xBA5 JUMPI PUSH2 0x211D PUSH1 0x1 DUP4 PUSH2 0x312B JUMP JUMPDEST SWAP2 POP PUSH2 0x212A PUSH1 0xA DUP7 PUSH2 0x313E JUMP JUMPDEST PUSH2 0x2135 SWAP1 PUSH1 0x30 PUSH2 0x3151 JUMP JUMPDEST PUSH1 0xF8 SHL DUP2 DUP4 DUP2 MLOAD DUP2 LT PUSH2 0x214A JUMPI PUSH2 0x214A PUSH2 0x2C94 JUMP JUMPDEST PUSH1 0x20 ADD ADD SWAP1 PUSH1 0x1 PUSH1 0x1 PUSH1 0xF8 SHL SUB NOT AND SWAP1 DUP2 PUSH0 BYTE SWAP1 MSTORE8 POP PUSH2 0x216B PUSH1 0xA DUP7 PUSH2 0x3118 JUMP JUMPDEST SWAP5 POP PUSH2 0x210C JUMP JUMPDEST PUSH1 0x40 DUP1 MLOAD DUP2 DUP2 MSTORE PUSH1 0x60 DUP2 DUP2 ADD DUP4 MSTORE SWAP2 PUSH0 SWAP2 SWAP1 PUSH1 0x20 DUP3 ADD DUP2 DUP1 CALLDATASIZE DUP4 CALLDATACOPY ADD SWAP1 POP POP SWAP1 POP PUSH0 JUMPDEST PUSH1 0x20 DUP2 LT ISZERO PUSH2 0x2260 JUMPI PUSH2 0x21C6 PUSH1 0x10 DUP6 DUP4 PUSH1 0x20 DUP2 LT PUSH2 0x21B5 JUMPI PUSH2 0x21B5 PUSH2 0x2C94 JUMP JUMPDEST PUSH2 0x21C1 SWAP3 SWAP2 SWAP1 BYTE PUSH2 0x3164 JUMP JUMPDEST PUSH2 0x24E2 JUMP JUMPDEST DUP3 PUSH2 0x21D2 DUP4 PUSH1 0x2 PUSH2 0x3185 JUMP JUMPDEST DUP2 MLOAD DUP2 LT PUSH2 0x21E2 JUMPI PUSH2 0x21E2 PUSH2 0x2C94 JUMP JUMPDEST PUSH1 0x20 ADD ADD SWAP1 PUSH1 0x1 PUSH1 0x1 PUSH1 0xF8 SHL SUB NOT AND SWAP1 DUP2 PUSH0 BYTE SWAP1 MSTORE8 POP PUSH2 0x221B PUSH1 0x10 DUP6 DUP4 PUSH1 0x20 DUP2 LT PUSH2 0x220F JUMPI PUSH2 0x220F PUSH2 0x2C94 JUMP JUMPDEST PUSH2 0x21C1 SWAP3 SWAP2 SWAP1 BYTE PUSH2 0x319C JUMP JUMPDEST DUP3 PUSH2 0x2227 DUP4 PUSH1 0x2 PUSH2 0x3185 JUMP JUMPDEST PUSH2 0x2232 SWAP1 PUSH1 0x1 PUSH2 0x3151 JUMP JUMPDEST DUP2 MLOAD DUP2 LT PUSH2 0x2242 JUMPI PUSH2 0x2242 PUSH2 0x2C94 JUMP JUMPDEST PUSH1 0x20 ADD ADD SWAP1 PUSH1 0x1 PUSH1 0x1 PUSH1 0xF8 SHL SUB NOT AND SWAP1 DUP2 PUSH0 BYTE SWAP1 MSTORE8 POP PUSH1 0x1 ADD PUSH2 0x2195 JUMP JUMPDEST POP SWAP3 SWAP2 POP POP JUMP JUMPDEST PUSH2 0x2271 DUP4 DUP4 PUSH2 0x250E JUMP JUMPDEST PUSH2 0x681 CALLER PUSH0 DUP6 DUP6 DUP6 PUSH2 0x1C1D JUMP JUMPDEST PUSH0 DUP3 DUP2 MSTORE PUSH1 0x2 PUSH1 0x20 MSTORE PUSH1 0x40 DUP2 KECCAK256 SLOAD PUSH1 0x1 PUSH1 0x1 PUSH1 0xA0 SHL SUB SWAP1 DUP2 AND SWAP1 DUP4 AND ISZERO PUSH2 0x22AA JUMPI PUSH2 0x22AA DUP2 DUP5 DUP7 PUSH2 0x256F JUMP JUMPDEST PUSH1 0x1 PUSH1 0x1 PUSH1 0xA0 SHL SUB DUP2 AND ISZERO PUSH2 0x22E4 JUMPI PUSH2 0x22C5 PUSH0 DUP6 PUSH0 DUP1 PUSH2 0x1E78 JUMP JUMPDEST PUSH1 0x1 PUSH1 0x1 PUSH1 0xA0 SHL SUB DUP2 AND PUSH0 SWAP1 DUP2 MSTORE PUSH1 0x3 PUSH1 0x20 MSTORE PUSH1 0x40 SWAP1 KECCAK256 DUP1 SLOAD PUSH0 NOT ADD SWAP1 SSTORE JUMPDEST PUSH1 0x1 PUSH1 0x1 PUSH1 0xA0 SHL SUB DUP6 AND ISZERO PUSH2 0x2312 JUMPI PUSH1 0x1 PUSH1 0x1 PUSH1 0xA0 SHL SUB DUP6 AND PUSH0 SWAP1 DUP2 MSTORE PUSH1 0x3 PUSH1 0x20 MSTORE PUSH1 0x40 SWAP1 KECCAK256 DUP1 SLOAD PUSH1 0x1 ADD SWAP1 SSTORE JUMPDEST PUSH0 DUP5 DUP2 MSTORE PUSH1 0x2 PUSH1 0x20 MSTORE PUSH1 0x40 DUP1 DUP3 KECCAK256 DUP1 SLOAD PUSH1 0x1 PUSH1 0x1 PUSH1 0xA0 SHL SUB NOT AND PUSH1 0x1 PUSH1 0x1 PUSH1 0xA0 SHL SUB DUP10 DUP2 AND SWAP2 DUP3 OR SWAP1 SWAP3 SSTORE SWAP2 MLOAD DUP8 SWAP4 SWAP2 DUP6 AND SWAP2 PUSH32 0xDDF252AD1BE2C89B69C2B068FC378DAA952BA7F163C4A11628F55A4DF523B3EF SWAP2 LOG4 SWAP5 SWAP4 POP POP POP POP JUMP JUMPDEST PUSH0 PUSH2 0x237A DUP4 PUSH2 0x6E5 JUMP JUMPDEST PUSH0 DUP4 DUP2 MSTORE PUSH1 0x7 PUSH1 0x20 SWAP1 DUP2 MSTORE PUSH1 0x40 DUP1 DUP4 KECCAK256 SLOAD PUSH1 0x1 PUSH1 0x1 PUSH1 0xA0 SHL SUB DUP9 AND DUP5 MSTORE PUSH1 0x6 SWAP1 SWAP3 MSTORE SWAP1 SWAP2 KECCAK256 SWAP2 SWAP3 POP SWAP1 DUP2 DUP4 EQ PUSH2 0x23CF JUMPI PUSH0 DUP4 DUP2 MSTORE PUSH1 0x20 DUP3 DUP2 MSTORE PUSH1 0x40 DUP1 DUP4 KECCAK256 SLOAD DUP6 DUP5 MSTORE DUP2 DUP5 KECCAK256 DUP2 SWAP1 SSTORE DUP4 MSTORE PUSH1 0x7 SWAP1 SWAP2 MSTORE SWAP1 KECCAK256 DUP3 SWAP1 SSTORE JUMPDEST PUSH0 SWAP4 DUP5 MSTORE PUSH1 0x7 PUSH1 0x20 SWAP1 DUP2 MSTORE PUSH1 0x40 DUP1 DUP7 KECCAK256 DUP7 SWAP1 SSTORE SWAP4 DUP6 MSTORE MSTORE POP DUP2 KECCAK256 SSTORE POP JUMP JUMPDEST PUSH1 0x8 SLOAD PUSH0 SWAP1 PUSH2 0x23FE SWAP1 PUSH1 0x1 SWAP1 PUSH2 0x312B JUMP JUMPDEST PUSH0 DUP4 DUP2 MSTORE PUSH1 0x9 PUSH1 0x20 MSTORE PUSH1 0x40 DUP2 KECCAK256 SLOAD PUSH1 0x8 DUP1 SLOAD SWAP4 SWAP5 POP SWAP1 SWAP3 DUP5 SWAP1 DUP2 LT PUSH2 0x2425 JUMPI PUSH2 0x2425 PUSH2 0x2C94 JUMP JUMPDEST SWAP1 PUSH0 MSTORE PUSH1 0x20 PUSH0 KECCAK256 ADD SLOAD SWAP1 POP DUP1 PUSH1 0x8 DUP4 DUP2 SLOAD DUP2 LT PUSH2 0x2444 JUMPI PUSH2 0x2444 PUSH2 0x2C94 JUMP JUMPDEST PUSH0 SWAP2 DUP3 MSTORE PUSH1 0x20 DUP1 DUP4 KECCAK256 SWAP1 SWAP2 ADD SWAP3 SWAP1 SWAP3 SSTORE DUP3 DUP2 MSTORE PUSH1 0x9 SWAP1 SWAP2 MSTORE PUSH1 0x40 DUP1 DUP3 KECCAK256 DUP5 SWAP1 SSTORE DUP6 DUP3 MSTORE DUP2 KECCAK256 SSTORE PUSH1 0x8 DUP1 SLOAD DUP1 PUSH2 0x247B JUMPI PUSH2 0x247B PUSH2 0x31BD JUMP JUMPDEST PUSH1 0x1 SWAP1 SUB DUP2 DUP2 SWAP1 PUSH0 MSTORE PUSH1 0x20 PUSH0 KECCAK256 ADD PUSH0 SWAP1 SSTORE SWAP1 SSTORE POP POP POP POP JUMP JUMPDEST PUSH0 PUSH1 0x1 PUSH2 0x24A0 DUP5 PUSH2 0x6E5 JUMP JUMPDEST PUSH2 0x24AA SWAP2 SWAP1 PUSH2 0x312B JUMP JUMPDEST PUSH1 0x1 PUSH1 0x1 PUSH1 0xA0 SHL SUB SWAP1 SWAP4 AND PUSH0 SWAP1 DUP2 MSTORE PUSH1 0x6 PUSH1 0x20 SWAP1 DUP2 MSTORE PUSH1 0x40 DUP1 DUP4 KECCAK256 DUP7 DUP5 MSTORE DUP3 MSTORE DUP1 DUP4 KECCAK256 DUP6 SWAP1 SSTORE SWAP4 DUP3 MSTORE PUSH1 0x7 SWAP1 MSTORE SWAP2 SWAP1 SWAP2 KECCAK256 SWAP2 SWAP1 SWAP2 SSTORE POP JUMP JUMPDEST PUSH0 PUSH1 0xA DUP3 PUSH1 0xFF AND LT ISZERO PUSH2 0x2503 JUMPI PUSH2 0x24FA DUP3 PUSH1 0x30 PUSH2 0x31D1 JUMP JUMPDEST PUSH1 0xF8 SHL SWAP3 SWAP2 POP POP JUMP JUMPDEST PUSH2 0x24FA DUP3 PUSH1 0x57 PUSH2 0x31D1 JUMP JUMPDEST PUSH1 0x1 PUSH1 0x1 PUSH1 0xA0 SHL SUB DUP3 AND PUSH2 0x2537 JUMPI PUSH1 0x40 MLOAD PUSH4 0x32505749 PUSH1 0xE1 SHL DUP2 MSTORE PUSH0 PUSH1 0x4 DUP3 ADD MSTORE PUSH1 0x24 ADD PUSH2 0x59B JUMP JUMPDEST PUSH0 PUSH2 0x2543 DUP4 DUP4 PUSH0 PUSH2 0x1694 JUMP JUMPDEST SWAP1 POP PUSH1 0x1 PUSH1 0x1 PUSH1 0xA0 SHL SUB DUP2 AND ISZERO PUSH2 0x681 JUMPI PUSH1 0x40 MLOAD PUSH4 0x39E35637 PUSH1 0xE1 SHL DUP2 MSTORE PUSH0 PUSH1 0x4 DUP3 ADD MSTORE PUSH1 0x24 ADD PUSH2 0x59B JUMP JUMPDEST PUSH2 0x257A DUP4 DUP4 DUP4 PUSH2 0x25D3 JUMP JUMPDEST PUSH2 0x681 JUMPI PUSH1 0x1 PUSH1 0x1 PUSH1 0xA0 SHL SUB DUP4 AND PUSH2 0x25A8 JUMPI PUSH1 0x40 MLOAD PUSH4 0x7E273289 PUSH1 0xE0 SHL DUP2 MSTORE PUSH1 0x4 DUP2 ADD DUP3 SWAP1 MSTORE PUSH1 0x24 ADD PUSH2 0x59B JUMP JUMPDEST PUSH1 0x40 MLOAD PUSH4 0x177E802F PUSH1 0xE0 SHL DUP2 MSTORE PUSH1 0x1 PUSH1 0x1 PUSH1 0xA0 SHL SUB DUP4 AND PUSH1 0x4 DUP3 ADD MSTORE PUSH1 0x24 DUP2 ADD DUP3 SWAP1 MSTORE PUSH1 0x44 ADD PUSH2 0x59B JUMP JUMPDEST PUSH0 PUSH1 0x1 PUSH1 0x1 PUSH1 0xA0 SHL SUB DUP4 AND ISZERO DUP1 ISZERO SWAP1 PUSH2 0xBA5 JUMPI POP DUP3 PUSH1 0x1 PUSH1 0x1 PUSH1 0xA0 SHL SUB AND DUP5 PUSH1 0x1 PUSH1 0x1 PUSH1 0xA0 SHL SUB AND EQ DUP1 PUSH2 0x260C JUMPI POP PUSH2 0x260C DUP5 DUP5 PUSH2 0x1594 JUMP JUMPDEST DUP1 PUSH2 0xBA5 JUMPI POP POP PUSH0 SWAP1 DUP2 MSTORE PUSH1 0x4 PUSH1 0x20 MSTORE PUSH1 0x40 SWAP1 KECCAK256 SLOAD PUSH1 0x1 PUSH1 0x1 PUSH1 0xA0 SHL SUB SWAP1 DUP2 AND SWAP2 AND EQ SWAP2 SWAP1 POP JUMP JUMPDEST PUSH1 0x1 PUSH1 0x1 PUSH1 0xE0 SHL SUB NOT DUP2 AND DUP2 EQ PUSH2 0x15FB JUMPI PUSH0 DUP1 REVERT JUMPDEST PUSH0 PUSH1 0x20 DUP3 DUP5 SUB SLT ISZERO PUSH2 0x2659 JUMPI PUSH0 DUP1 REVERT JUMPDEST DUP2 CALLDATALOAD PUSH2 0xCE5 DUP2 PUSH2 0x2634 JUMP JUMPDEST PUSH0 DUP2 MLOAD DUP1 DUP5 MSTORE DUP1 PUSH1 0x20 DUP5 ADD PUSH1 0x20 DUP7 ADD MCOPY PUSH0 PUSH1 0x20 DUP3 DUP7 ADD ADD MSTORE PUSH1 0x20 PUSH1 0x1F NOT PUSH1 0x1F DUP4 ADD AND DUP6 ADD ADD SWAP2 POP POP SWAP3 SWAP2 POP POP JUMP JUMPDEST PUSH1 0x20 DUP2 MSTORE PUSH0 PUSH2 0xCE5 PUSH1 0x20 DUP4 ADD DUP5 PUSH2 0x2664 JUMP JUMPDEST PUSH0 PUSH1 0x20 DUP3 DUP5 SUB SLT ISZERO PUSH2 0x26B4 JUMPI PUSH0 DUP1 REVERT JUMPDEST POP CALLDATALOAD SWAP2 SWAP1 POP JUMP JUMPDEST DUP1 CALLDATALOAD PUSH1 0x1 PUSH1 0x1 PUSH1 0xA0 SHL SUB DUP2 AND DUP2 EQ PUSH2 0x26D1 JUMPI PUSH0 DUP1 REVERT JUMPDEST SWAP2 SWAP1 POP JUMP JUMPDEST PUSH0 DUP1 PUSH1 0x40 DUP4 DUP6 SUB SLT ISZERO PUSH2 0x26E7 JUMPI PUSH0 DUP1 REVERT JUMPDEST PUSH2 0x26F0 DUP4 PUSH2 0x26BB JUMP JUMPDEST SWAP5 PUSH1 0x20 SWAP4 SWAP1 SWAP4 ADD CALLDATALOAD SWAP4 POP POP POP JUMP JUMPDEST PUSH0 PUSH1 0x20 DUP3 DUP5 SUB SLT ISZERO PUSH2 0x270E JUMPI PUSH0 DUP1 REVERT JUMPDEST PUSH2 0xCE5 DUP3 PUSH2 0x26BB JUMP JUMPDEST PUSH0 DUP1 PUSH0 PUSH1 0x60 DUP5 DUP7 SUB SLT ISZERO PUSH2 0x2729 JUMPI PUSH0 DUP1 REVERT JUMPDEST PUSH2 0x2732 DUP5 PUSH2 0x26BB JUMP JUMPDEST SWAP3 POP PUSH2 0x2740 PUSH1 0x20 DUP6 ADD PUSH2 0x26BB JUMP JUMPDEST SWAP3 SWAP6 SWAP3 SWAP5 POP POP POP PUSH1 0x40 SWAP2 SWAP1 SWAP2 ADD CALLDATALOAD SWAP1 JUMP JUMPDEST PUSH0 DUP1 DUP4 PUSH1 0x1F DUP5 ADD SLT PUSH2 0x2761 JUMPI PUSH0 DUP1 REVERT JUMPDEST POP DUP2 CALLDATALOAD PUSH1 0x1 PUSH1 0x1 PUSH1 0x40 SHL SUB DUP2 GT ISZERO PUSH2 0x2777 JUMPI PUSH0 DUP1 REVERT JUMPDEST PUSH1 0x20 DUP4 ADD SWAP2 POP DUP4 PUSH1 0x20 DUP3 DUP6 ADD ADD GT ISZERO PUSH2 0x278E JUMPI PUSH0 DUP1 REVERT JUMPDEST SWAP3 POP SWAP3 SWAP1 POP JUMP JUMPDEST PUSH0 DUP1 PUSH0 PUSH1 0x40 DUP5 DUP7 SUB SLT ISZERO PUSH2 0x27A7 JUMPI PUSH0 DUP1 REVERT JUMPDEST DUP4 CALLDATALOAD SWAP3 POP PUSH1 0x20 DUP5 ADD CALLDATALOAD PUSH1 0x1 PUSH1 0x1 PUSH1 0x40 SHL SUB DUP2 GT ISZERO PUSH2 0x27C3 JUMPI PUSH0 DUP1 REVERT JUMPDEST PUSH2 0x27CF DUP7 DUP3 DUP8 ADD PUSH2 0x2751 JUMP JUMPDEST SWAP5 SWAP8 SWAP1 SWAP7 POP SWAP4 SWAP5 POP POP POP POP JUMP JUMPDEST DUP1 CALLDATALOAD DUP1 ISZERO ISZERO DUP2 EQ PUSH2 0x26D1 JUMPI PUSH0 DUP1 REVERT JUMPDEST PUSH0 DUP1 PUSH1 0x40 DUP4 DUP6 SUB SLT ISZERO PUSH2 0x27FC JUMPI PUSH0 DUP1 REVERT JUMPDEST PUSH2 0x2805 DUP4 PUSH2 0x26BB JUMP JUMPDEST SWAP2 POP PUSH2 0x2813 PUSH1 0x20 DUP5 ADD PUSH2 0x27DC JUMP JUMPDEST SWAP1 POP SWAP3 POP SWAP3 SWAP1 POP JUMP JUMPDEST PUSH0 DUP1 PUSH0 DUP1 PUSH0 DUP1 PUSH0 PUSH1 0xA0 DUP9 DUP11 SUB SLT ISZERO PUSH2 0x2832 JUMPI PUSH0 DUP1 REVERT JUMPDEST DUP8 CALLDATALOAD PUSH1 0x1 PUSH1 0x1 PUSH1 0x40 SHL SUB DUP2 GT ISZERO PUSH2 0x2847 JUMPI PUSH0 DUP1 REVERT JUMPDEST DUP9 ADD PUSH1 0x1F DUP2 ADD DUP11 SGT PUSH2 0x2857 JUMPI PUSH0 DUP1 REVERT JUMPDEST DUP1 CALLDATALOAD PUSH1 0x1 PUSH1 0x1 PUSH1 0x40 SHL SUB DUP2 GT ISZERO PUSH2 0x286C JUMPI PUSH0 DUP1 REVERT JUMPDEST DUP11 PUSH1 0x20 DUP3 PUSH1 0x5 SHL DUP5 ADD ADD GT ISZERO PUSH2 0x2880 JUMPI PUSH0 DUP1 REVERT JUMPDEST PUSH1 0x20 SWAP2 DUP3 ADD SWAP9 POP SWAP7 POP DUP9 ADD CALLDATALOAD SWAP5 POP PUSH1 0x40 DUP9 ADD CALLDATALOAD SWAP4 POP PUSH1 0x60 DUP9 ADD CALLDATALOAD PUSH1 0x1 PUSH1 0x1 PUSH1 0x40 SHL SUB DUP2 GT ISZERO PUSH2 0x28AD JUMPI PUSH0 DUP1 REVERT JUMPDEST PUSH2 0x28B9 DUP11 DUP3 DUP12 ADD PUSH2 0x2751 JUMP JUMPDEST SWAP1 SWAP5 POP SWAP3 POP PUSH2 0x28CC SWAP1 POP PUSH1 0x80 DUP10 ADD PUSH2 0x27DC JUMP JUMPDEST SWAP1 POP SWAP3 SWAP6 SWAP9 SWAP2 SWAP5 SWAP8 POP SWAP3 SWAP6 POP JUMP JUMPDEST PUSH0 DUP2 MLOAD DUP1 DUP5 MSTORE PUSH1 0x20 DUP5 ADD SWAP4 POP PUSH1 0x20 DUP4 ADD PUSH0 JUMPDEST DUP3 DUP2 LT ISZERO PUSH2 0x290A JUMPI DUP2 MLOAD DUP7 MSTORE PUSH1 0x20 SWAP6 DUP7 ADD SWAP6 SWAP1 SWAP2 ADD SWAP1 PUSH1 0x1 ADD PUSH2 0x28EC JUMP JUMPDEST POP SWAP4 SWAP5 SWAP4 POP POP POP POP JUMP JUMPDEST PUSH1 0x20 DUP2 MSTORE PUSH0 PUSH2 0xCE5 PUSH1 0x20 DUP4 ADD DUP5 PUSH2 0x28DA JUMP JUMPDEST PUSH0 DUP1 PUSH1 0x40 DUP4 DUP6 SUB SLT ISZERO PUSH2 0x2937 JUMPI PUSH0 DUP1 REVERT JUMPDEST POP POP DUP1 CALLDATALOAD SWAP3 PUSH1 0x20 SWAP1 SWAP2 ADD CALLDATALOAD SWAP2 POP JUMP JUMPDEST PUSH0 DUP1 PUSH0 DUP1 PUSH1 0x60 DUP6 DUP8 SUB SLT ISZERO PUSH2 0x2959 JUMPI PUSH0 DUP1 REVERT JUMPDEST PUSH2 0x2962 DUP6 PUSH2 0x26BB JUMP JUMPDEST SWAP4 POP PUSH1 0x20 DUP6 ADD CALLDATALOAD SWAP3 POP PUSH1 0x40 DUP6 ADD CALLDATALOAD PUSH1 0x1 PUSH1 0x1 PUSH1 0x40 SHL SUB DUP2 GT ISZERO PUSH2 0x2983 JUMPI PUSH0 DUP1 REVERT JUMPDEST PUSH2 0x298F DUP8 DUP3 DUP9 ADD PUSH2 0x2751 JUMP JUMPDEST SWAP6 SWAP9 SWAP5 SWAP8 POP SWAP6 POP POP POP POP JUMP JUMPDEST PUSH4 0x4E487B71 PUSH1 0xE0 SHL PUSH0 MSTORE PUSH1 0x41 PUSH1 0x4 MSTORE PUSH1 0x24 PUSH0 REVERT JUMPDEST PUSH0 DUP1 PUSH0 DUP1 PUSH1 0x80 DUP6 DUP8 SUB SLT ISZERO PUSH2 0x29C2 JUMPI PUSH0 DUP1 REVERT JUMPDEST PUSH2 0x29CB DUP6 PUSH2 0x26BB JUMP JUMPDEST SWAP4 POP PUSH2 0x29D9 PUSH1 0x20 DUP7 ADD PUSH2 0x26BB JUMP JUMPDEST SWAP3 POP PUSH1 0x40 DUP6 ADD CALLDATALOAD SWAP2 POP PUSH1 0x60 DUP6 ADD CALLDATALOAD PUSH1 0x1 PUSH1 0x1 PUSH1 0x40 SHL SUB DUP2 GT ISZERO PUSH2 0x29FA JUMPI PUSH0 DUP1 REVERT JUMPDEST DUP6 ADD PUSH1 0x1F DUP2 ADD DUP8 SGT PUSH2 0x2A0A JUMPI PUSH0 DUP1 REVERT JUMPDEST DUP1 CALLDATALOAD PUSH1 0x1 PUSH1 0x1 PUSH1 0x40 SHL SUB DUP2 GT ISZERO PUSH2 0x2A23 JUMPI PUSH2 0x2A23 PUSH2 0x299B JUMP JUMPDEST PUSH1 0x40 MLOAD PUSH1 0x1F DUP3 ADD PUSH1 0x1F NOT SWAP1 DUP2 AND PUSH1 0x3F ADD AND DUP2 ADD PUSH1 0x1 PUSH1 0x1 PUSH1 0x40 SHL SUB DUP2 GT DUP3 DUP3 LT OR ISZERO PUSH2 0x2A51 JUMPI PUSH2 0x2A51 PUSH2 0x299B JUMP JUMPDEST PUSH1 0x40 MSTORE DUP2 DUP2 MSTORE DUP3 DUP3 ADD PUSH1 0x20 ADD DUP10 LT ISZERO PUSH2 0x2A68 JUMPI PUSH0 DUP1 REVERT JUMPDEST DUP2 PUSH1 0x20 DUP5 ADD PUSH1 0x20 DUP4 ADD CALLDATACOPY PUSH0 PUSH1 0x20 DUP4 DUP4 ADD ADD MSTORE DUP1 SWAP4 POP POP POP POP SWAP3 SWAP6 SWAP2 SWAP5 POP SWAP3 POP JUMP JUMPDEST PUSH1 0x40 DUP2 MSTORE PUSH0 PUSH2 0x2A9B PUSH1 0x40 DUP4 ADD DUP6 PUSH2 0x28DA JUMP JUMPDEST DUP3 DUP2 SUB PUSH1 0x20 DUP5 ADD MSTORE DUP1 DUP5 MLOAD DUP1 DUP4 MSTORE PUSH1 0x20 DUP4 ADD SWAP2 POP PUSH1 0x20 DUP2 PUSH1 0x5 SHL DUP5 ADD ADD PUSH1 0x20 DUP8 ADD PUSH0 JUMPDEST DUP4 DUP2 LT ISZERO PUSH2 0x2B40 JUMPI PUSH1 0x1F NOT DUP7 DUP5 SUB ADD DUP6 MSTORE DUP2 MLOAD DUP1 MLOAD DUP5 MSTORE PUSH1 0x20 DUP2 ADD MLOAD PUSH1 0x20 DUP6 ADD MSTORE PUSH1 0x40 DUP2 ADD MLOAD PUSH1 0xC0 PUSH1 0x40 DUP7 ADD MSTORE PUSH2 0x2AF8 PUSH1 0xC0 DUP7 ADD DUP3 PUSH2 0x2664 JUMP JUMPDEST SWAP1 POP PUSH1 0x60 DUP3 ADD MLOAD DUP6 DUP3 SUB PUSH1 0x60 DUP8 ADD MSTORE PUSH2 0x2B11 DUP3 DUP3 PUSH2 0x2664 JUMP JUMPDEST PUSH1 0x80 DUP5 DUP2 ADD MLOAD ISZERO ISZERO SWAP1 DUP9 ADD MSTORE PUSH1 0xA0 SWAP4 DUP5 ADD MLOAD SWAP4 SWAP1 SWAP7 ADD SWAP3 SWAP1 SWAP3 MSTORE POP POP PUSH1 0x20 SWAP5 DUP6 ADD SWAP5 SWAP2 SWAP1 SWAP2 ADD SWAP1 PUSH1 0x1 ADD PUSH2 0x2ABE JUMP JUMPDEST POP SWAP1 SWAP9 SWAP8 POP POP POP POP POP POP POP POP JUMP JUMPDEST PUSH0 DUP1 PUSH0 DUP1 PUSH0 DUP1 PUSH0 DUP1 PUSH1 0xC0 DUP10 DUP12 SUB SLT ISZERO PUSH2 0x2B65 JUMPI PUSH0 DUP1 REVERT JUMPDEST PUSH2 0x2B6E DUP10 PUSH2 0x26BB JUMP JUMPDEST SWAP8 POP PUSH1 0x20 DUP10 ADD CALLDATALOAD SWAP7 POP PUSH1 0x40 DUP10 ADD CALLDATALOAD SWAP6 POP PUSH1 0x60 DUP10 ADD CALLDATALOAD PUSH1 0x1 PUSH1 0x1 PUSH1 0x40 SHL SUB DUP2 GT ISZERO PUSH2 0x2B96 JUMPI PUSH0 DUP1 REVERT JUMPDEST PUSH2 0x2BA2 DUP12 DUP3 DUP13 ADD PUSH2 0x2751 JUMP JUMPDEST SWAP1 SWAP7 POP SWAP5 POP POP PUSH1 0x80 DUP10 ADD CALLDATALOAD PUSH1 0x1 PUSH1 0x1 PUSH1 0x40 SHL SUB DUP2 GT ISZERO PUSH2 0x2BC0 JUMPI PUSH0 DUP1 REVERT JUMPDEST PUSH2 0x2BCC DUP12 DUP3 DUP13 ADD PUSH2 0x2751 JUMP JUMPDEST SWAP1 SWAP5 POP SWAP3 POP PUSH2 0x2BDF SWAP1 POP PUSH1 0xA0 DUP11 ADD PUSH2 0x27DC JUMP JUMPDEST SWAP1 POP SWAP3 SWAP6 SWAP9 POP SWAP3 SWAP6 SWAP9 SWAP1 SWAP4 SWAP7 POP JUMP JUMPDEST DUP7 DUP2 MSTORE DUP6 PUSH1 0x20 DUP3 ADD MSTORE PUSH1 0xC0 PUSH1 0x40 DUP3 ADD MSTORE PUSH0 PUSH2 0x2C0C PUSH1 0xC0 DUP4 ADD DUP8 PUSH2 0x2664 JUMP JUMPDEST DUP3 DUP2 SUB PUSH1 0x60 DUP5 ADD MSTORE PUSH2 0x2C1E DUP2 DUP8 PUSH2 0x2664 JUMP JUMPDEST SWAP5 ISZERO ISZERO PUSH1 0x80 DUP5 ADD MSTORE POP POP PUSH1 0xA0 ADD MSTORE SWAP5 SWAP4 POP POP POP POP JUMP JUMPDEST PUSH0 DUP1 PUSH1 0x40 DUP4 DUP6 SUB SLT ISZERO PUSH2 0x2C45 JUMPI PUSH0 DUP1 REVERT JUMPDEST PUSH2 0x2C4E DUP4 PUSH2 0x26BB JUMP JUMPDEST SWAP2 POP PUSH2 0x2813 PUSH1 0x20 DUP5 ADD PUSH2 0x26BB JUMP JUMPDEST PUSH1 0x1 DUP2 DUP2 SHR SWAP1 DUP3 AND DUP1 PUSH2 0x2C70 JUMPI PUSH1 0x7F DUP3 AND SWAP2 POP JUMPDEST PUSH1 0x20 DUP3 LT DUP2 SUB PUSH2 0x2C8E JUMPI PUSH4 0x4E487B71 PUSH1 0xE0 SHL PUSH0 MSTORE PUSH1 0x22 PUSH1 0x4 MSTORE PUSH1 0x24 PUSH0 REVERT JUMPDEST POP SWAP2 SWAP1 POP JUMP JUMPDEST PUSH4 0x4E487B71 PUSH1 0xE0 SHL PUSH0 MSTORE PUSH1 0x32 PUSH1 0x4 MSTORE PUSH1 0x24 PUSH0 REVERT JUMPDEST PUSH1 0x60 SWAP2 SWAP1 SWAP2 SHL PUSH12 0xFFFFFFFFFFFFFFFFFFFFFFFF NOT AND DUP2 MSTORE PUSH1 0x14 ADD SWAP1 JUMP JUMPDEST DUP2 DUP4 MSTORE DUP2 DUP2 PUSH1 0x20 DUP6 ADD CALLDATACOPY POP PUSH0 DUP3 DUP3 ADD PUSH1 0x20 SWAP1 DUP2 ADD SWAP2 SWAP1 SWAP2 MSTORE PUSH1 0x1F SWAP1 SWAP2 ADD PUSH1 0x1F NOT AND SWAP1 SWAP2 ADD ADD SWAP1 JUMP JUMPDEST PUSH1 0x20 DUP2 MSTORE PUSH0 PUSH2 0xBA5 PUSH1 0x20 DUP4 ADD DUP5 DUP7 PUSH2 0x2CC5 JUMP JUMPDEST DUP2 DUP4 DUP3 CALLDATACOPY PUSH0 SWAP2 ADD SWAP1 DUP2 MSTORE SWAP2 SWAP1 POP JUMP JUMPDEST PUSH4 0x4E487B71 PUSH1 0xE0 SHL PUSH0 MSTORE PUSH1 0x11 PUSH1 0x4 MSTORE PUSH1 0x24 PUSH0 REVERT JUMPDEST PUSH0 PUSH1 0x1 DUP3 ADD PUSH2 0x2D34 JUMPI PUSH2 0x2D34 PUSH2 0x2D0F JUMP JUMPDEST POP PUSH1 0x1 ADD SWAP1 JUMP JUMPDEST PUSH1 0x1F DUP3 GT ISZERO PUSH2 0x681 JUMPI DUP1 PUSH0 MSTORE PUSH1 0x20 PUSH0 KECCAK256 PUSH1 0x1F DUP5 ADD PUSH1 0x5 SHR DUP2 ADD PUSH1 0x20 DUP6 LT ISZERO PUSH2 0x2D60 JUMPI POP DUP1 JUMPDEST PUSH1 0x1F DUP5 ADD PUSH1 0x5 SHR DUP3 ADD SWAP2 POP JUMPDEST DUP2 DUP2 LT ISZERO PUSH2 0x1D3E JUMPI PUSH0 DUP2 SSTORE PUSH1 0x1 ADD PUSH2 0x2D6C JUMP JUMPDEST DUP2 MLOAD PUSH1 0x1 PUSH1 0x1 PUSH1 0x40 SHL SUB DUP2 GT ISZERO PUSH2 0x2D98 JUMPI PUSH2 0x2D98 PUSH2 0x299B JUMP JUMPDEST PUSH2 0x2DAC DUP2 PUSH2 0x2DA6 DUP5 SLOAD PUSH2 0x2C5C JUMP JUMPDEST DUP5 PUSH2 0x2D3B JUMP JUMPDEST PUSH1 0x20 PUSH1 0x1F DUP3 GT PUSH1 0x1 DUP2 EQ PUSH2 0x2DDE JUMPI PUSH0 DUP4 ISZERO PUSH2 0x2DC7 JUMPI POP DUP5 DUP3 ADD MLOAD JUMPDEST PUSH0 NOT PUSH1 0x3 DUP6 SWAP1 SHL SHR NOT AND PUSH1 0x1 DUP5 SWAP1 SHL OR DUP5 SSTORE PUSH2 0x1D3E JUMP JUMPDEST PUSH0 DUP5 DUP2 MSTORE PUSH1 0x20 DUP2 KECCAK256 PUSH1 0x1F NOT DUP6 AND SWAP2 JUMPDEST DUP3 DUP2 LT ISZERO PUSH2 0x2E0D JUMPI DUP8 DUP6 ADD MLOAD DUP3 SSTORE PUSH1 0x20 SWAP5 DUP6 ADD SWAP5 PUSH1 0x1 SWAP1 SWAP3 ADD SWAP2 ADD PUSH2 0x2DED JUMP JUMPDEST POP DUP5 DUP3 LT ISZERO PUSH2 0x2E2A JUMPI DUP7 DUP5 ADD MLOAD PUSH0 NOT PUSH1 0x3 DUP8 SWAP1 SHL PUSH1 0xF8 AND SHR NOT AND DUP2 SSTORE JUMPDEST POP POP POP POP PUSH1 0x1 SWAP1 DUP2 SHL ADD SWAP1 SSTORE POP JUMP JUMPDEST PUSH1 0x40 DUP2 MSTORE PUSH0 PUSH2 0x2E4C PUSH1 0x40 DUP4 ADD DUP6 DUP8 PUSH2 0x2CC5 JUMP JUMPDEST SWAP1 POP DUP3 PUSH1 0x20 DUP4 ADD MSTORE SWAP5 SWAP4 POP POP POP POP JUMP JUMPDEST PUSH1 0x40 DUP2 MSTORE PUSH0 PUSH2 0x2E6E PUSH1 0x40 DUP4 ADD DUP6 PUSH2 0x2664 JUMP JUMPDEST SWAP1 POP DUP3 PUSH1 0x20 DUP4 ADD MSTORE SWAP4 SWAP3 POP POP POP JUMP JUMPDEST PUSH1 0x1 PUSH1 0x1 PUSH1 0xA0 SHL SUB DUP6 DUP2 AND DUP3 MSTORE DUP5 AND PUSH1 0x20 DUP3 ADD MSTORE PUSH1 0x40 DUP2 ADD DUP4 SWAP1 MSTORE PUSH1 0x80 PUSH1 0x60 DUP3 ADD DUP2 SWAP1 MSTORE PUSH0 SWAP1 PUSH2 0x2EAF SWAP1 DUP4 ADD DUP5 PUSH2 0x2664 JUMP JUMPDEST SWAP7 SWAP6 POP POP POP POP POP POP JUMP JUMPDEST PUSH0 PUSH1 0x20 DUP3 DUP5 SUB SLT ISZERO PUSH2 0x2EC9 JUMPI PUSH0 DUP1 REVERT JUMPDEST DUP2 MLOAD PUSH2 0xCE5 DUP2 PUSH2 0x2634 JUMP JUMPDEST PUSH0 DUP2 MLOAD DUP1 PUSH1 0x20 DUP5 ADD DUP6 MCOPY PUSH0 SWAP4 ADD SWAP3 DUP4 MSTORE POP SWAP1 SWAP2 SWAP1 POP JUMP JUMPDEST PUSH0 DUP2 SLOAD PUSH2 0x2EF7 DUP2 PUSH2 0x2C5C JUMP JUMPDEST PUSH1 0x1 DUP3 AND DUP1 ISZERO PUSH2 0x2F0E JUMPI PUSH1 0x1 DUP2 EQ PUSH2 0x2F23 JUMPI PUSH2 0x2F50 JUMP JUMPDEST PUSH1 0xFF NOT DUP4 AND DUP7 MSTORE DUP2 ISZERO ISZERO DUP3 MUL DUP7 ADD SWAP4 POP PUSH2 0x2F50 JUMP JUMPDEST DUP5 PUSH0 MSTORE PUSH1 0x20 PUSH0 KECCAK256 PUSH0 JUMPDEST DUP4 DUP2 LT ISZERO PUSH2 0x2F48 JUMPI DUP2 SLOAD DUP9 DUP3 ADD MSTORE PUSH1 0x1 SWAP1 SWAP2 ADD SWAP1 PUSH1 0x20 ADD PUSH2 0x2F2C JUMP JUMPDEST POP POP DUP2 DUP7 ADD SWAP4 POP JUMPDEST POP POP POP SWAP3 SWAP2 POP POP JUMP JUMPDEST PUSH32 0x7B226E616D65223A224D656D6F7279204163636573732043726564656E746961 DUP2 MSTORE PUSH3 0x6C2023 PUSH1 0xE8 SHL PUSH1 0x20 DUP3 ADD MSTORE PUSH0 PUSH2 0x2F96 PUSH1 0x23 DUP4 ADD DUP9 PUSH2 0x2ED4 JUMP JUMPDEST PUSH32 0x222C226465736372697074696F6E223A224772616E7473200000000000000000 DUP2 MSTORE PUSH2 0x2FC6 PUSH1 0x18 DUP3 ADD DUP9 PUSH2 0x2EEB JUMP JUMPDEST PUSH32 0x2061636365737320746F206D656D6F72696573222C2261747472696275746573 DUP2 MSTORE PUSH3 0x223A5B PUSH1 0xE8 SHL PUSH1 0x20 DUP3 ADD MSTORE PUSH32 0x7B2274726169745F74797065223A22416363657373204C6576656C222C227661 PUSH1 0x23 DUP3 ADD MSTORE PUSH6 0x363AB2911D11 PUSH1 0xD1 SHL PUSH1 0x43 DUP3 ADD MSTORE SWAP1 POP PUSH2 0x3039 PUSH1 0x49 DUP3 ADD DUP8 PUSH2 0x2EEB JUMP JUMPDEST PUSH3 0x89F4B PUSH1 0xEA SHL DUP2 MSTORE PUSH32 0x7B2274726169745F74797065223A22546172676574222C2276616C7565223A22 PUSH1 0x3 DUP3 ADD SWAP1 DUP2 MSTORE SWAP2 POP PUSH1 0x23 ADD PUSH2 0x3079 DUP2 DUP8 PUSH2 0x2ED4 JUMP JUMPDEST PUSH3 0x89F4B PUSH1 0xEA SHL DUP2 MSTORE SWAP2 POP POP PUSH1 0x3 DUP2 ADD PUSH2 0x30F7 PUSH2 0x30E8 PUSH2 0x30E2 DUP4 PUSH32 0x7B2274726169745F74797065223A2245787069726174696F6E222C2264697370 DUP2 MSTORE PUSH32 0x6C61795F74797065223A2264617465222C2276616C7565223A00000000000000 PUSH1 0x20 DUP3 ADD MSTORE PUSH1 0x39 ADD SWAP1 JUMP JUMPDEST DUP8 PUSH2 0x2ED4 JUMP JUMPDEST PUSH3 0x7D5D7D PUSH1 0xE8 SHL DUP2 MSTORE PUSH1 0x3 ADD SWAP1 JUMP JUMPDEST SWAP10 SWAP9 POP POP POP POP POP POP POP POP POP JUMP JUMPDEST PUSH4 0x4E487B71 PUSH1 0xE0 SHL PUSH0 MSTORE PUSH1 0x12 PUSH1 0x4 MSTORE PUSH1 0x24 PUSH0 REVERT JUMPDEST PUSH0 DUP3 PUSH2 0x3126 JUMPI PUSH2 0x3126 PUSH2 0x3104 JUMP JUMPDEST POP DIV SWAP1 JUMP JUMPDEST DUP2 DUP2 SUB DUP2 DUP2 GT ISZERO PUSH2 0x45A JUMPI PUSH2 0x45A PUSH2 0x2D0F JUMP JUMPDEST PUSH0 DUP3 PUSH2 0x314C JUMPI PUSH2 0x314C PUSH2 0x3104 JUMP JUMPDEST POP MOD SWAP1 JUMP JUMPDEST DUP1 DUP3 ADD DUP1 DUP3 GT ISZERO PUSH2 0x45A JUMPI PUSH2 0x45A PUSH2 0x2D0F JUMP JUMPDEST PUSH0 PUSH1 0xFF DUP4 AND DUP1 PUSH2 0x3176 JUMPI PUSH2 0x3176 PUSH2 0x3104 JUMP JUMPDEST DUP1 PUSH1 0xFF DUP5 AND DIV SWAP2 POP POP SWAP3 SWAP2 POP POP JUMP JUMPDEST DUP1 DUP3 MUL DUP2 ISZERO DUP3 DUP3 DIV DUP5 EQ OR PUSH2 0x45A JUMPI PUSH2 0x45A PUSH2 0x2D0F JUMP JUMPDEST PUSH0 PUSH1 0xFF DUP4 AND DUP1 PUSH2 0x31AE JUMPI PUSH2 0x31AE PUSH2 0x3104 JUMP JUMPDEST DUP1 PUSH1 0xFF DUP5 AND MOD SWAP2 POP POP SWAP3 SWAP2 POP POP JUMP JUMPDEST PUSH4 0x4E487B71 PUSH1 0xE0 SHL PUSH0 MSTORE PUSH1 0x31 PUSH1 0x4 MSTORE PUSH1 0x24 PUSH0 REVERT JUMPDEST PUSH1 0xFF DUP2 DUP2 AND DUP4 DUP3 AND ADD SWAP1 DUP2 GT ISZERO PUSH2 0x45A JUMPI PUSH2 0x45A PUSH2 0x2D0F JUMP INVALID SWAP12 PUSH24 0x9B17422D0DF92223018B32B4D1FA46E071723D6817E2486D STOP EXTCODESIZE 0xEC 0xC5 PUSH0 STOP LOG2 PUSH5 0x6970667358 0x22 SLT KECCAK256 0xFC PUSH29 0x6299F29B6CE45D77BD38E6C2442946D40C3AA7E2C7CCB071A1E19BFE50 PUSH21 0x64736F6C634300081A003300000000000000000000 "},"methodIdentifiers":{"approve(address,uint256)":"095ea7b3","balanceOf(address)":"70a08231","batchIssueCredentials(address[],bytes32,uint256,string,bool)":"af8ca1a7","credentials(uint256)":"e0574e3f","getApproved(uint256)":"081812fc","getCredentialsByOwner(address)":"c96015db","hasAccess(address,bytes32,string)":"b4b7580d","hasCredential(bytes32,bytes32)":"affda6c9","isApprovedForAll(address,address)":"e985e9c5","issueCredential(address,bytes32,uint256,string,string,bool)":"cd05dfbc","memoryRegistry()":"96cde355","name()":"06fdde03","owner()":"8da5cb5b","ownerOf(uint256)":"6352211e","renewCredential(uint256,uint256)":"c99c2fdf","renounceOwnership()":"715018a6","revokeCredential(uint256,string)":"957a3205","safeTransferFrom(address,address,uint256)":"42842e0e","safeTransferFrom(address,address,uint256,bytes)":"b88d4fde","setApprovalForAll(address,bool)":"a22cb465","supportsInterface(bytes4)":"01ffc9a7","symbol()":"95d89b41","tokenByIndex(uint256)":"4f6ccce7","tokenOfOwnerByIndex(address,uint256)":"2f745c59","tokenURI(uint256)":"c87b56dd","totalSupply()":"18160ddd","transferFrom(address,address,uint256)":"23b872dd","transferOwnership(address)":"f2fde38b","updateRegistry(address)":"1a5da6c8"}}}}}