{"contracts/MemoryRegistry.sol":{"MemoryRegistry":{"abi":[{"inputs":[{"internalType":"address","name":"_accessNFT","type":"address"}],"stateMutability":"nonpayable","type":"constructor"},{"inputs":[{"internalType":"address","name":"owner","type":"address"}],"name":"OwnableInvalidOwner","type":"error"},{"inputs":[{"internalType":"address","name":"account","type":"address"}],"name":"OwnableUnauthorizedAccount","type":"error"},{"inputs":[],"name":"ReentrancyGuardReentrantCall","type":"error"},{"anonymous":false,"inputs":[{"indexed":true,"internalType":"bytes32","name":"owner","type":"bytes32"},{"indexed":true,"internalType":"bytes32","name":"delegate","type":"bytes32"},{"indexed":false,"internalType":"uint256","name":"expiration","type":"uint256"}],"name":"DelegationGranted","type":"event"},{"anonymous":false,"inputs":[{"indexed":true,"internalType":"bytes32","name":"owner","type":"bytes32"},{"indexed":true,"internalType":"bytes32","name":"delegate","type":"bytes32"}],"name":"DelegationRevoked","type":"event"},{"anonymous":false,"inputs":[{"indexed":true,"internalType":"bytes32","name":"participantId","type":"bytes32"},{"indexed":false,"internalType":"string","name":"cid","type":"string"},{"indexed":false,"internalType":"uint256","name":"timestamp","type":"uint256"}],"name":"MemoryRetrieved","type":"event"},{"anonymous":false,"inputs":[{"indexed":true,"internalType":"bytes32","name":"participantId","type":"bytes32"},{"indexed":false,"internalType":"string","name":"cid","type":"string"},{"indexed":false,"internalType":"uint256","name":"timestamp","type":"uint256"},{"indexed":false,"internalType":"bool","name":"isShard","type":"bool"}],"name":"MemoryStored","type":"event"},{"anonymous":false,"inputs":[{"indexed":false,"internalType":"bool","name":"enabled","type":"bool"}],"name":"NFTAccessToggled","type":"event"},{"anonymous":false,"inputs":[{"indexed":true,"internalType":"address","name":"newNFTContract","type":"address"}],"name":"NFTContractUpdated","type":"event"},{"anonymous":false,"inputs":[{"indexed":true,"internalType":"address","name":"previousOwner","type":"address"},{"indexed":true,"internalType":"address","name":"newOwner","type":"address"}],"name":"OwnershipTransferred","type":"event"},{"inputs":[],"name":"accessNFT","outputs":[{"internalType":"contract IMemoryAccessNFT","name":"","type":"address"}],"stateMutability":"view","type":"function"},{"inputs":[{"internalType":"string","name":"","type":"string"}],"name":"cidToOwner","outputs":[{"internalType":"bytes32","name":"","type":"bytes32"}],"stateMutability":"view","type":"function"},{"inputs":[{"internalType":"bytes32","name":"","type":"bytes32"},{"internalType":"bytes32","name":"","type":"bytes32"}],"name":"delegations","outputs":[{"internalType":"uint256","name":"","type":"uint256"}],"stateMutability":"view","type":"function"},{"inputs":[{"internalType":"bytes32","name":"participantId","type":"bytes32"}],"name":"getMemories","outputs":[{"components":[{"internalType":"string","name":"cid","type":"string"},{"internalType":"bytes32","name":"encryptionKeyHash","type":"bytes32"},{"internalType":"uint256","name":"timestamp","type":"uint256"},{"internalType":"uint256","name":"expiration","type":"uint256"},{"internalType":"bool","name":"isShard","type":"bool"},{"internalType":"uint256","name":"totalShards","type":"uint256"},{"internalType":"bytes32[]","name":"shardCids","type":"bytes32[]"}],"internalType":"struct MemoryRegistry.MemoryEntry[]","name":"","type":"tuple[]"}],"stateMutability":"view","type":"function"},{"inputs":[{"internalType":"bytes32","name":"participantId","type":"bytes32"}],"name":"getMemoryCount","outputs":[{"internalType":"uint256","name":"","type":"uint256"}],"stateMutability":"view","type":"function"},{"inputs":[{"internalType":"bytes32","name":"participantId","type":"bytes32"},{"internalType":"bytes32","name":"delegate","type":"bytes32"},{"internalType":"uint256","name":"expiration","type":"uint256"}],"name":"grantDelegation","outputs":[],"stateMutability":"nonpayable","type":"function"},{"inputs":[{"internalType":"bytes32","name":"owner","type":"bytes32"},{"internalType":"bytes32","name":"requester","type":"bytes32"}],"name":"hasAccess","outputs":[{"internalType":"bool","name":"","type":"bool"}],"stateMutability":"view","type":"function"},{"inputs":[{"internalType":"bytes32","name":"","type":"bytes32"},{"internalType":"uint256","name":"","type":"uint256"}],"name":"memories","outputs":[{"internalType":"string","name":"cid","type":"string"},{"internalType":"bytes32","name":"encryptionKeyHash","type":"bytes32"},{"internalType":"uint256","name":"timestamp","type":"uint256"},{"internalType":"uint256","name":"expiration","type":"uint256"},{"internalType":"bool","name":"isShard","type":"bool"},{"internalType":"uint256","name":"totalShards","type":"uint256"}],"stateMutability":"view","type":"function"},{"inputs":[],"name":"nftAccessEnabled","outputs":[{"internalType":"bool","name":"","type":"bool"}],"stateMutability":"view","type":"function"},{"inputs":[],"name":"owner","outputs":[{"internalType":"address","name":"","type":"address"}],"stateMutability":"view","type":"function"},{"inputs":[],"name":"renounceOwnership","outputs":[],"stateMutability":"nonpayable","type":"function"},{"inputs":[{"internalType":"bytes32","name":"participantId","type":"bytes32"},{"internalType":"uint256","name":"memoryId","type":"uint256"},{"internalType":"bytes32","name":"requesterId","type":"bytes32"}],"name":"retrieveMemory","outputs":[{"components":[{"internalType":"string","name":"cid","type":"string"},{"internalType":"bytes32","name":"encryptionKeyHash","type":"bytes32"},{"internalType":"uint256","name":"timestamp","type":"uint256"},{"internalType":"uint256","name":"expiration","type":"uint256"},{"internalType":"bool","name":"isShard","type":"bool"},{"internalType":"uint256","name":"totalShards","type":"uint256"},{"internalType":"bytes32[]","name":"shardCids","type":"bytes32[]"}],"internalType":"struct MemoryRegistry.MemoryEntry","name":"","type":"tuple"}],"stateMutability":"view","type":"function"},{"inputs":[{"internalType":"bytes32","name":"participantId","type":"bytes32"},{"internalType":"bytes32","name":"delegate","type":"bytes32"}],"name":"revokeDelegation","outputs":[],"stateMutability":"nonpayable","type":"function"},{"inputs":[{"internalType":"address","name":"_accessNFT","type":"address"}],"name":"setAccessNFT","outputs":[],"stateMutability":"nonpayable","type":"function"},{"inputs":[{"internalType":"bool","name":"_enabled","type":"bool"}],"name":"setNFTAccessEnabled","outputs":[],"stateMutability":"nonpayable","type":"function"},{"inputs":[{"internalType":"bytes32","name":"participantId","type":"bytes32"},{"internalType":"string","name":"cid","type":"string"},{"internalType":"bytes32","name":"encryptionKeyHash","type":"bytes32"},{"internalType":"uint256","name":"expiration","type":"uint256"},{"internalType":"bool","name":"isShard","type":"bool"},{"internalType":"uint256","name":"totalShards","type":"uint256"},{"internalType":"bytes32[]","name":"shardCids","type":"bytes32[]"}],"name":"storeMemory","outputs":[{"internalType":"uint256","name":"memoryId","type":"uint256"}],"stateMutability":"nonpayable","type":"function"},{"inputs":[{"internalType":"address","name":"newOwner","type":"address"}],"name":"transferOwnership","outputs":[],"stateMutability":"nonpayable","type":"function"}],"evm":{"bytecode":{"linkReferences":{},"object":"60806040526004805460ff60a01b1916600160a01b179055348015610022575f80fd5b506040516115e03803806115e083398101604081905261004191610108565b338061006657604051631e4fbdf760e01b81525f600482015260240160405180910390fd5b61006f816100b9565b5060017f9b779b17422d0df92223018b32b4d1fa46e071723d6817e2486d003becc55f0055600480546001600160a01b0319166001600160a01b0392909216919091179055610135565b5f80546001600160a01b038381166001600160a01b0319831681178455604051919092169283917f8be0079c531659141344cd1fd0a4f28419497f9722a3daafe3b4186f6b6457e09190a35050565b5f60208284031215610118575f80fd5b81516001600160a01b038116811461012e575f80fd5b9392505050565b61149e806101425f395ff3fe608060405234801561000f575f80fd5b5060043610610106575f3560e01c8063715018a61161009e578063da122fe41161006e578063da122fe414610274578063eda3df9d14610294578063f2fde38b146102a7578063fd2275e6146102ba578063fe19a29f146102cd575f80fd5b8063715018a6146102225780638da5cb5b1461022a578063b9352c511461024e578063c841ba9914610261575f80fd5b806347c0aa00116100d957806347c0aa00146101805780635327ca13146101b957806353f91196146101d8578063687b3f39146101f8575f80fd5b806329a048531461010a5780632a2f3072146101335780632fceb89a14610146578063429c9a5a1461016b575b5f80fd5b60045461011e90600160a01b900460ff1681565b60405190151581526020015b60405180910390f35b61011e610141366004610e69565b6102e0565b610159610154366004610e69565b61034c565b60405161012a96959493929190610eb7565b61017e610179366004610ef4565b610429565b005b6101ab61018e366004610f35565b805160208183018101805160028252928201919093012091525481565b60405190815260200161012a565b6101ab6101c7366004610fe8565b5f9081526001602052604090205490565b6101eb6101e6366004610fe8565b61047a565b60405161012a9190611099565b6101ab610206366004610e69565b600360209081525f928352604080842090915290825290205481565b61017e61060e565b5f546001600160a01b03165b6040516001600160a01b03909116815260200161012a565b600454610236906001600160a01b031681565b6101ab61026f366004611161565b610621565b610287610282366004611236565b610886565b60405161012a919061125f565b61017e6102a2366004611236565b610b55565b61017e6102b5366004610ef4565b610bf9565b61017e6102c8366004611271565b610c36565b61017e6102db366004610e69565b610c96565b5f8183036102f057506001610346565b5f83815260036020908152604080832085845290915290205442101561031857506001610346565b600454600160a01b900460ff16801561033657506103368284610cdf565b1561034357506001610346565b505f5b92915050565b6001602052815f5260405f208181548110610365575f80fd5b905f5260205f2090600702015f9150915050805f0180546103859061128c565b80601f01602080910402602001604051908101604052809291908181526020018280546103b19061128c565b80156103fc5780601f106103d3576101008083540402835291602001916103fc565b820191905f5260205f20905b8154815290600101906020018083116103df57829003601f168201915b505050506001830154600284015460038501546004860154600590960154949592949193509160ff169086565b610431610d91565b600480546001600160a01b0319166001600160a01b0383169081179091556040517ff2610996d245d9b77e4ff84c2174eea0b76fb44c422218404f66e28816d78fb9905f90a250565b606060015f8381526020019081526020015f20805480602002602001604051908101604052809291908181526020015f905b82821015610603578382905f5260205f2090600702016040518060e00160405290815f820180546104dc9061128c565b80601f01602080910402602001604051908101604052809291908181526020018280546105089061128c565b80156105535780601f1061052a57610100808354040283529160200191610553565b820191905f5260205f20905b81548152906001019060200180831161053657829003601f168201915b50505050508152602001600182015481526020016002820154815260200160038201548152602001600482015f9054906101000a900460ff1615151515815260200160058201548152602001600682018054806020026020016040519081016040528092919081815260200182805480156105eb57602002820191905f5260205f20905b8154815260200190600101908083116105d7575b505050505081525050815260200190600101906104ac565b505050509050919050565b610616610d91565b61061f5f610dbd565b565b5f876106605760405162461bcd60e51b8152602060048201526009602482015268115b5c1d1e4810d25160ba1b60448201526064015b60405180910390fd5b5f801b60028a8a6040516106759291906112c4565b908152602001604051809103902054146106c65760405162461bcd60e51b815260206004820152601260248201527143494420616c72656164792065786973747360701b6044820152606401610657565b604080516101006020601f8c01819004028201810190925260e081018a81525f928291908d908d90819085018382808284375f9201919091525050509082525060208082018b905242604080840191909152606083018b9052891515608084015260a083018990528051878302818101840190925287815260c09093019291889188918291908501908490808284375f9201829052509390945250508d815260016020818152604083208054928301815583529091208351939450849360079092020191508190610797908261131f565b5060208281015160018301556040830151600283015560608301516003830155608083015160048301805460ff191691151591909117905560a0830151600583015560c083015180516107f09260068501920190610e0c565b5050508a60028b8b6040516108069291906112c4565b9081526020016040518091039020819055506001805f8d81526020019081526020015f208054905061083891906113da565b91508a7f108c42d23f11799a4f0636a811fc090800389c4b1b85fba59d5b9f347412d56f8b8b428a60405161087094939291906113f9565b60405180910390a2509998505050505050505050565b6108c66040518060e00160405280606081526020015f80191681526020015f81526020015f81526020015f151581526020015f8152602001606081525090565b5f8481526001602052604090205483106109165760405162461bcd60e51b8152602060048201526011602482015270125b9d985b1a59081b595b5bdc9e481251607a1b6044820152606401610657565b5f84815260016020526040812080548590811061093557610935611439565b905f5260205f20906007020190505f8160030154111561099357806003015442106109935760405162461bcd60e51b815260206004820152600e60248201526d13595b5bdc9e48195e1c1a5c995960921b6044820152606401610657565b848314806109b857505f85815260036020908152604080832086845290915290205442105b806109dc5750600454600160a01b900460ff1680156109dc57506109dc8386610cdf565b610a185760405162461bcd60e51b815260206004820152600d60248201526c1058d8d95cdcc819195b9a5959609a1b6044820152606401610657565b806040518060e00160405290815f82018054610a339061128c565b80601f0160208091040260200160405190810160405280929190818152602001828054610a5f9061128c565b8015610aaa5780601f10610a8157610100808354040283529160200191610aaa565b820191905f5260205f20905b815481529060010190602001808311610a8d57829003601f168201915b50505050508152602001600182015481526020016002820154815260200160038201548152602001600482015f9054906101000a900460ff161515151581526020016005820154815260200160068201805480602002602001604051908101604052809291908181526020018280548015610b4257602002820191905f5260205f20905b815481526020019060010190808311610b2e575b5050505050815250509150509392505050565b428111610ba45760405162461bcd60e51b815260206004820152601960248201527f45787069726174696f6e206d75737420626520667574757265000000000000006044820152606401610657565b5f8381526003602090815260408083208584528252918290208390559051828152839185917f94dfda7e74e67cdd2b955193e5674fd8b9e08ca9eddbdc5c8ae409224e437bbd910160405180910390a3505050565b610c01610d91565b6001600160a01b038116610c2a57604051631e4fbdf760e01b81525f6004820152602401610657565b610c3381610dbd565b50565b610c3e610d91565b60048054821515600160a01b0260ff60a01b199091161790556040517fb7aa57fcebf80f728c0520321479e135065a6a0f3b1a402e0a977ddb1e6405ae90610c8b90831515815260200190565b60405180910390a150565b5f82815260036020908152604080832084845290915280822082905551829184917faf4fc1e522c8950216ec848aa5414570b302b1b4a392879aff32d629833621359190a35050565b6004545f906001600160a01b0316610cf857505f610346565b6004805460405163b4b7580d60e01b81526001600160a01b038087168285015260248201869052606060448301526064820193909352631c99585960e21b608482015285929091169063b4b7580d9060a401602060405180830381865afa158015610d65573d5f803e3d5ffd5b505050506040513d601f19601f82011682018060405250810190610d89919061144d565b949350505050565b5f546001600160a01b0316331461061f5760405163118cdaa760e01b8152336004820152602401610657565b5f80546001600160a01b038381166001600160a01b0319831681178455604051919092169283917f8be0079c531659141344cd1fd0a4f28419497f9722a3daafe3b4186f6b6457e09190a35050565b828054828255905f5260205f20908101928215610e45579160200282015b82811115610e45578251825591602001919060010190610e2a565b50610e51929150610e55565b5090565b5b80821115610e51575f8155600101610e56565b5f8060408385031215610e7a575f80fd5b50508035926020909101359150565b5f81518084528060208401602086015e5f602082860101526020601f19601f83011685010191505092915050565b60c081525f610ec960c0830189610e89565b602083019790975250604081019490945260608401929092521515608083015260a090910152919050565b5f60208284031215610f04575f80fd5b81356001600160a01b0381168114610f1a575f80fd5b9392505050565b634e487b7160e01b5f52604160045260245ffd5b5f60208284031215610f45575f80fd5b813567ffffffffffffffff811115610f5b575f80fd5b8201601f81018413610f6b575f80fd5b803567ffffffffffffffff811115610f8557610f85610f21565b604051601f8201601f19908116603f0116810167ffffffffffffffff81118282101715610fb457610fb4610f21565b604052818152828201602001861015610fcb575f80fd5b816020840160208301375f91810160200191909152949350505050565b5f60208284031215610ff8575f80fd5b5035919050565b5f815160e0845261101360e0850182610e89565b905060208301516020850152604083015160408501526060830151606085015260808301511515608085015260a083015160a085015260c083015184820360c08601528181518084526020840191506020830193505f92505b8083101561108f578351825260208201915060208401935060018301925061106c565b5095945050505050565b5f602082016020835280845180835260408501915060408160051b8601019250602086015f5b828110156110f057603f198786030184526110db858351610fff565b945060209384019391909101906001016110bf565b50929695505050505050565b8015158114610c33575f80fd5b8035611114816110fc565b919050565b5f8083601f840112611129575f80fd5b50813567ffffffffffffffff811115611140575f80fd5b6020830191508360208260051b850101111561115a575f80fd5b9250929050565b5f805f805f805f805f60e08a8c031215611179575f80fd5b8935985060208a013567ffffffffffffffff811115611196575f80fd5b8a01601f81018c136111a6575f80fd5b803567ffffffffffffffff8111156111bc575f80fd5b8c60208284010111156111cd575f80fd5b6020919091019850965060408a0135955060608a013594506111f160808b01611109565b935060a08a0135925060c08a013567ffffffffffffffff811115611213575f80fd5b61121f8c828d01611119565b915080935050809150509295985092959850929598565b5f805f60608486031215611248575f80fd5b505081359360208301359350604090920135919050565b602081525f610f1a6020830184610fff565b5f60208284031215611281575f80fd5b8135610f1a816110fc565b600181811c908216806112a057607f821691505b6020821081036112be57634e487b7160e01b5f52602260045260245ffd5b50919050565b818382375f9101908152919050565b601f82111561131a57805f5260205f20601f840160051c810160208510156112f85750805b601f840160051c820191505b81811015611317575f8155600101611304565b50505b505050565b815167ffffffffffffffff81111561133957611339610f21565b61134d81611347845461128c565b846112d3565b6020601f82116001811461137f575f83156113685750848201515b5f19600385901b1c1916600184901b178455611317565b5f84815260208120601f198516915b828110156113ae578785015182556020948501946001909201910161138e565b50848210156113cb57868401515f19600387901b60f8161c191681555b50505050600190811b01905550565b8181038181111561034657634e487b7160e01b5f52601160045260245ffd5b60608152836060820152838560808301375f608085830101525f6080601f19601f8701168301019050836020830152821515604083015295945050505050565b634e487b7160e01b5f52603260045260245ffd5b5f6020828403121561145d575f80fd5b8151610f1a816110fc56fea26469706673582212207e5038840370b40ba43b5bfd7a787d7e9390366874b172cd2bca07cf4633c05964736f6c634300081a0033","opcodes":"PUSH1 0x80 PUSH1 0x40 MSTORE PUSH1 0x4 DUP1 SLOAD PUSH1 0xFF PUSH1 0xA0 SHL NOT AND PUSH1 0x1 PUSH1 0xA0 SHL OR SWAP1 SSTORE CALLVALUE DUP1 ISZERO PUSH2 0x22 JUMPI PUSH0 DUP1 REVERT JUMPDEST POP PUSH1 0x40 MLOAD PUSH2 0x15E0 CODESIZE SUB DUP1 PUSH2 0x15E0 DUP4 CODECOPY DUP2 ADD PUSH1 0x40 DUP2 SWAP1 MSTORE PUSH2 0x41 SWAP2 PUSH2 0x108 JUMP JUMPDEST CALLER DUP1 PUSH2 0x66 JUMPI PUSH1 0x40 MLOAD PUSH4 0x1E4FBDF7 PUSH1 0xE0 SHL DUP2 MSTORE PUSH0 PUSH1 0x4 DUP3 ADD MSTORE PUSH1 0x24 ADD PUSH1 0x40 MLOAD DUP1 SWAP2 SUB SWAP1 REVERT JUMPDEST PUSH2 0x6F DUP2 PUSH2 0xB9 JUMP JUMPDEST POP PUSH1 0x1 PUSH32 0x9B779B17422D0DF92223018B32B4D1FA46E071723D6817E2486D003BECC55F00 SSTORE PUSH1 0x4 DUP1 SLOAD PUSH1 0x1 PUSH1 0x1 PUSH1 0xA0 SHL SUB NOT AND PUSH1 0x1 PUSH1 0x1 PUSH1 0xA0 SHL SUB SWAP3 SWAP1 SWAP3 AND SWAP2 SWAP1 SWAP2 OR SWAP1 SSTORE PUSH2 0x135 JUMP JUMPDEST PUSH0 DUP1 SLOAD PUSH1 0x1 PUSH1 0x1 PUSH1 0xA0 SHL SUB DUP4 DUP2 AND PUSH1 0x1 PUSH1 0x1 PUSH1 0xA0 SHL SUB NOT DUP4 AND DUP2 OR DUP5 SSTORE PUSH1 0x40 MLOAD SWAP2 SWAP1 SWAP3 AND SWAP3 DUP4 SWAP2 PUSH32 0x8BE0079C531659141344CD1FD0A4F28419497F9722A3DAAFE3B4186F6B6457E0 SWAP2 SWAP1 LOG3 POP POP JUMP JUMPDEST PUSH0 PUSH1 0x20 DUP3 DUP5 SUB SLT ISZERO PUSH2 0x118 JUMPI PUSH0 DUP1 REVERT JUMPDEST DUP2 MLOAD PUSH1 0x1 PUSH1 0x1 PUSH1 0xA0 SHL SUB DUP2 AND DUP2 EQ PUSH2 0x12E JUMPI PUSH0 DUP1 REVERT JUMPDEST SWAP4 SWAP3 POP POP POP JUMP JUMPDEST PUSH2 0x149E DUP1 PUSH2 0x142 PUSH0 CODECOPY PUSH0 RETURN INVALID PUSH1 0x80 PUSH1 0x40 MSTORE CALLVALUE DUP1 ISZERO PUSH2 0xF JUMPI PUSH0 DUP1 REVERT JUMPDEST POP PUSH1 0x4 CALLDATASIZE LT PUSH2 0x106 JUMPI PUSH0 CALLDATALOAD PUSH1 0xE0 SHR DUP1 PUSH4 0x715018A6 GT PUSH2 0x9E JUMPI DUP1 PUSH4 0xDA122FE4 GT PUSH2 0x6E JUMPI DUP1 PUSH4 0xDA122FE4 EQ PUSH2 0x274 JUMPI DUP1 PUSH4 0xEDA3DF9D EQ PUSH2 0x294 JUMPI DUP1 PUSH4 0xF2FDE38B EQ PUSH2 0x2A7 JUMPI DUP1 PUSH4 0xFD2275E6 EQ PUSH2 0x2BA JUMPI DUP1 PUSH4 0xFE19A29F EQ PUSH2 0x2CD JUMPI PUSH0 DUP1 REVERT JUMPDEST DUP1 PUSH4 0x715018A6 EQ PUSH2 0x222 JUMPI DUP1 PUSH4 0x8DA5CB5B EQ PUSH2 0x22A JUMPI DUP1 PUSH4 0xB9352C51 EQ PUSH2 0x24E JUMPI DUP1 PUSH4 0xC841BA99 EQ PUSH2 0x261 JUMPI PUSH0 DUP1 REVERT JUMPDEST DUP1 PUSH4 0x47C0AA00 GT PUSH2 0xD9 JUMPI DUP1 PUSH4 0x47C0AA00 EQ PUSH2 0x180 JUMPI DUP1 PUSH4 0x5327CA13 EQ PUSH2 0x1B9 JUMPI DUP1 PUSH4 0x53F91196 EQ PUSH2 0x1D8 JUMPI DUP1 PUSH4 0x687B3F39 EQ PUSH2 0x1F8 JUMPI PUSH0 DUP1 REVERT JUMPDEST DUP1 PUSH4 0x29A04853 EQ PUSH2 0x10A JUMPI DUP1 PUSH4 0x2A2F3072 EQ PUSH2 0x133 JUMPI DUP1 PUSH4 0x2FCEB89A EQ PUSH2 0x146 JUMPI DUP1 PUSH4 0x429C9A5A EQ PUSH2 0x16B JUMPI JUMPDEST PUSH0 DUP1 REVERT JUMPDEST PUSH1 0x4 SLOAD PUSH2 0x11E SWAP1 PUSH1 0x1 PUSH1 0xA0 SHL SWAP1 DIV PUSH1 0xFF AND DUP2 JUMP JUMPDEST PUSH1 0x40 MLOAD SWAP1 ISZERO ISZERO DUP2 MSTORE PUSH1 0x20 ADD JUMPDEST PUSH1 0x40 MLOAD DUP1 SWAP2 SUB SWAP1 RETURN JUMPDEST PUSH2 0x11E PUSH2 0x141 CALLDATASIZE PUSH1 0x4 PUSH2 0xE69 JUMP JUMPDEST PUSH2 0x2E0 JUMP JUMPDEST PUSH2 0x159 PUSH2 0x154 CALLDATASIZE PUSH1 0x4 PUSH2 0xE69 JUMP JUMPDEST PUSH2 0x34C JUMP JUMPDEST PUSH1 0x40 MLOAD PUSH2 0x12A SWAP7 SWAP6 SWAP5 SWAP4 SWAP3 SWAP2 SWAP1 PUSH2 0xEB7 JUMP JUMPDEST PUSH2 0x17E PUSH2 0x179 CALLDATASIZE PUSH1 0x4 PUSH2 0xEF4 JUMP JUMPDEST PUSH2 0x429 JUMP JUMPDEST STOP JUMPDEST PUSH2 0x1AB PUSH2 0x18E CALLDATASIZE PUSH1 0x4 PUSH2 0xF35 JUMP JUMPDEST DUP1 MLOAD PUSH1 0x20 DUP2 DUP4 ADD DUP2 ADD DUP1 MLOAD PUSH1 0x2 DUP3 MSTORE SWAP3 DUP3 ADD SWAP2 SWAP1 SWAP4 ADD KECCAK256 SWAP2 MSTORE SLOAD DUP2 JUMP JUMPDEST PUSH1 0x40 MLOAD SWAP1 DUP2 MSTORE PUSH1 0x20 ADD PUSH2 0x12A JUMP JUMPDEST PUSH2 0x1AB PUSH2 0x1C7 CALLDATASIZE PUSH1 0x4 PUSH2 0xFE8 JUMP JUMPDEST PUSH0 SWAP1 DUP2 MSTORE PUSH1 0x1 PUSH1 0x20 MSTORE PUSH1 0x40 SWAP1 KECCAK256 SLOAD SWAP1 JUMP JUMPDEST PUSH2 0x1EB PUSH2 0x1E6 CALLDATASIZE PUSH1 0x4 PUSH2 0xFE8 JUMP JUMPDEST PUSH2 0x47A JUMP JUMPDEST PUSH1 0x40 MLOAD PUSH2 0x12A SWAP2 SWAP1 PUSH2 0x1099 JUMP JUMPDEST PUSH2 0x1AB PUSH2 0x206 CALLDATASIZE PUSH1 0x4 PUSH2 0xE69 JUMP JUMPDEST PUSH1 0x3 PUSH1 0x20 SWAP1 DUP2 MSTORE PUSH0 SWAP3 DUP4 MSTORE PUSH1 0x40 DUP1 DUP5 KECCAK256 SWAP1 SWAP2 MSTORE SWAP1 DUP3 MSTORE SWAP1 KECCAK256 SLOAD DUP2 JUMP JUMPDEST PUSH2 0x17E PUSH2 0x60E JUMP JUMPDEST PUSH0 SLOAD PUSH1 0x1 PUSH1 0x1 PUSH1 0xA0 SHL SUB AND JUMPDEST PUSH1 0x40 MLOAD PUSH1 0x1 PUSH1 0x1 PUSH1 0xA0 SHL SUB SWAP1 SWAP2 AND DUP2 MSTORE PUSH1 0x20 ADD PUSH2 0x12A JUMP JUMPDEST PUSH1 0x4 SLOAD PUSH2 0x236 SWAP1 PUSH1 0x1 PUSH1 0x1 PUSH1 0xA0 SHL SUB AND DUP2 JUMP JUMPDEST PUSH2 0x1AB PUSH2 0x26F CALLDATASIZE PUSH1 0x4 PUSH2 0x1161 JUMP JUMPDEST PUSH2 0x621 JUMP JUMPDEST PUSH2 0x287 PUSH2 0x282 CALLDATASIZE PUSH1 0x4 PUSH2 0x1236 JUMP JUMPDEST PUSH2 0x886 JUMP JUMPDEST PUSH1 0x40 MLOAD PUSH2 0x12A SWAP2 SWAP1 PUSH2 0x125F JUMP JUMPDEST PUSH2 0x17E PUSH2 0x2A2 CALLDATASIZE PUSH1 0x4 PUSH2 0x1236 JUMP JUMPDEST PUSH2 0xB55 JUMP JUMPDEST PUSH2 0x17E PUSH2 0x2B5 CALLDATASIZE PUSH1 0x4 PUSH2 0xEF4 JUMP JUMPDEST PUSH2 0xBF9 JUMP JUMPDEST PUSH2 0x17E PUSH2 0x2C8 CALLDATASIZE PUSH1 0x4 PUSH2 0x1271 JUMP JUMPDEST PUSH2 0xC36 JUMP JUMPDEST PUSH2 0x17E PUSH2 0x2DB CALLDATASIZE PUSH1 0x4 PUSH2 0xE69 JUMP JUMPDEST PUSH2 0xC96 JUMP JUMPDEST PUSH0 DUP2 DUP4 SUB PUSH2 0x2F0 JUMPI POP PUSH1 0x1 PUSH2 0x346 JUMP JUMPDEST PUSH0 DUP4 DUP2 MSTORE PUSH1 0x3 PUSH1 0x20 SWAP1 DUP2 MSTORE PUSH1 0x40 DUP1 DUP4 KECCAK256 DUP6 DUP5 MSTORE SWAP1 SWAP2 MSTORE SWAP1 KECCAK256 SLOAD TIMESTAMP LT ISZERO PUSH2 0x318 JUMPI POP PUSH1 0x1 PUSH2 0x346 JUMP JUMPDEST PUSH1 0x4 SLOAD PUSH1 0x1 PUSH1 0xA0 SHL SWAP1 DIV PUSH1 0xFF AND DUP1 ISZERO PUSH2 0x336 JUMPI POP PUSH2 0x336 DUP3 DUP5 PUSH2 0xCDF JUMP JUMPDEST ISZERO PUSH2 0x343 JUMPI POP PUSH1 0x1 PUSH2 0x346 JUMP JUMPDEST POP PUSH0 JUMPDEST SWAP3 SWAP2 POP POP JUMP JUMPDEST PUSH1 0x1 PUSH1 0x20 MSTORE DUP2 PUSH0 MSTORE PUSH1 0x40 PUSH0 KECCAK256 DUP2 DUP2 SLOAD DUP2 LT PUSH2 0x365 JUMPI PUSH0 DUP1 REVERT JUMPDEST SWAP1 PUSH0 MSTORE PUSH1 0x20 PUSH0 KECCAK256 SWAP1 PUSH1 0x7 MUL ADD PUSH0 SWAP2 POP SWAP2 POP POP DUP1 PUSH0 ADD DUP1 SLOAD PUSH2 0x385 SWAP1 PUSH2 0x128C JUMP JUMPDEST DUP1 PUSH1 0x1F ADD PUSH1 0x20 DUP1 SWAP2 DIV MUL PUSH1 0x20 ADD PUSH1 0x40 MLOAD SWAP1 DUP2 ADD PUSH1 0x40 MSTORE DUP1 SWAP3 SWAP2 SWAP1 DUP2 DUP2 MSTORE PUSH1 0x20 ADD DUP3 DUP1 SLOAD PUSH2 0x3B1 SWAP1 PUSH2 0x128C JUMP JUMPDEST DUP1 ISZERO PUSH2 0x3FC JUMPI DUP1 PUSH1 0x1F LT PUSH2 0x3D3 JUMPI PUSH2 0x100 DUP1 DUP4 SLOAD DIV MUL DUP4 MSTORE SWAP2 PUSH1 0x20 ADD SWAP2 PUSH2 0x3FC JUMP JUMPDEST DUP3 ADD SWAP2 SWAP1 PUSH0 MSTORE PUSH1 0x20 PUSH0 KECCAK256 SWAP1 JUMPDEST DUP2 SLOAD DUP2 MSTORE SWAP1 PUSH1 0x1 ADD SWAP1 PUSH1 0x20 ADD DUP1 DUP4 GT PUSH2 0x3DF JUMPI DUP3 SWAP1 SUB PUSH1 0x1F AND DUP3 ADD SWAP2 JUMPDEST POP POP POP POP PUSH1 0x1 DUP4 ADD SLOAD PUSH1 0x2 DUP5 ADD SLOAD PUSH1 0x3 DUP6 ADD SLOAD PUSH1 0x4 DUP7 ADD SLOAD PUSH1 0x5 SWAP1 SWAP7 ADD SLOAD SWAP5 SWAP6 SWAP3 SWAP5 SWAP2 SWAP4 POP SWAP2 PUSH1 0xFF AND SWAP1 DUP7 JUMP JUMPDEST PUSH2 0x431 PUSH2 0xD91 JUMP JUMPDEST PUSH1 0x4 DUP1 SLOAD PUSH1 0x1 PUSH1 0x1 PUSH1 0xA0 SHL SUB NOT AND PUSH1 0x1 PUSH1 0x1 PUSH1 0xA0 SHL SUB DUP4 AND SWAP1 DUP2 OR SWAP1 SWAP2 SSTORE PUSH1 0x40 MLOAD PUSH32 0xF2610996D245D9B77E4FF84C2174EEA0B76FB44C422218404F66E28816D78FB9 SWAP1 PUSH0 SWAP1 LOG2 POP JUMP JUMPDEST PUSH1 0x60 PUSH1 0x1 PUSH0 DUP4 DUP2 MSTORE PUSH1 0x20 ADD SWAP1 DUP2 MSTORE PUSH1 0x20 ADD PUSH0 KECCAK256 DUP1 SLOAD DUP1 PUSH1 0x20 MUL PUSH1 0x20 ADD PUSH1 0x40 MLOAD SWAP1 DUP2 ADD PUSH1 0x40 MSTORE DUP1 SWAP3 SWAP2 SWAP1 DUP2 DUP2 MSTORE PUSH1 0x20 ADD PUSH0 SWAP1 JUMPDEST DUP3 DUP3 LT ISZERO PUSH2 0x603 JUMPI DUP4 DUP3 SWAP1 PUSH0 MSTORE PUSH1 0x20 PUSH0 KECCAK256 SWAP1 PUSH1 0x7 MUL ADD PUSH1 0x40 MLOAD DUP1 PUSH1 0xE0 ADD PUSH1 0x40 MSTORE SWAP1 DUP2 PUSH0 DUP3 ADD DUP1 SLOAD PUSH2 0x4DC SWAP1 PUSH2 0x128C JUMP JUMPDEST DUP1 PUSH1 0x1F ADD PUSH1 0x20 DUP1 SWAP2 DIV MUL PUSH1 0x20 ADD PUSH1 0x40 MLOAD SWAP1 DUP2 ADD PUSH1 0x40 MSTORE DUP1 SWAP3 SWAP2 SWAP1 DUP2 DUP2 MSTORE PUSH1 0x20 ADD DUP3 DUP1 SLOAD PUSH2 0x508 SWAP1 PUSH2 0x128C JUMP JUMPDEST DUP1 ISZERO PUSH2 0x553 JUMPI DUP1 PUSH1 0x1F LT PUSH2 0x52A JUMPI PUSH2 0x100 DUP1 DUP4 SLOAD DIV MUL DUP4 MSTORE SWAP2 PUSH1 0x20 ADD SWAP2 PUSH2 0x553 JUMP JUMPDEST DUP3 ADD SWAP2 SWAP1 PUSH0 MSTORE PUSH1 0x20 PUSH0 KECCAK256 SWAP1 JUMPDEST DUP2 SLOAD DUP2 MSTORE SWAP1 PUSH1 0x1 ADD SWAP1 PUSH1 0x20 ADD DUP1 DUP4 GT PUSH2 0x536 JUMPI DUP3 SWAP1 SUB PUSH1 0x1F AND DUP3 ADD SWAP2 JUMPDEST POP POP POP POP POP DUP2 MSTORE PUSH1 0x20 ADD PUSH1 0x1 DUP3 ADD SLOAD DUP2 MSTORE PUSH1 0x20 ADD PUSH1 0x2 DUP3 ADD SLOAD DUP2 MSTORE PUSH1 0x20 ADD PUSH1 0x3 DUP3 ADD SLOAD DUP2 MSTORE PUSH1 0x20 ADD PUSH1 0x4 DUP3 ADD PUSH0 SWAP1 SLOAD SWAP1 PUSH2 0x100 EXP SWAP1 DIV PUSH1 0xFF AND ISZERO ISZERO ISZERO ISZERO DUP2 MSTORE PUSH1 0x20 ADD PUSH1 0x5 DUP3 ADD SLOAD DUP2 MSTORE PUSH1 0x20 ADD PUSH1 0x6 DUP3 ADD DUP1 SLOAD DUP1 PUSH1 0x20 MUL PUSH1 0x20 ADD PUSH1 0x40 MLOAD SWAP1 DUP2 ADD PUSH1 0x40 MSTORE DUP1 SWAP3 SWAP2 SWAP1 DUP2 DUP2 MSTORE PUSH1 0x20 ADD DUP3 DUP1 SLOAD DUP1 ISZERO PUSH2 0x5EB JUMPI PUSH1 0x20 MUL DUP3 ADD SWAP2 SWAP1 PUSH0 MSTORE PUSH1 0x20 PUSH0 KECCAK256 SWAP1 JUMPDEST DUP2 SLOAD DUP2 MSTORE PUSH1 0x20 ADD SWAP1 PUSH1 0x1 ADD SWAP1 DUP1 DUP4 GT PUSH2 0x5D7 JUMPI JUMPDEST POP POP POP POP POP DUP2 MSTORE POP POP DUP2 MSTORE PUSH1 0x20 ADD SWAP1 PUSH1 0x1 ADD SWAP1 PUSH2 0x4AC JUMP JUMPDEST POP POP POP POP SWAP1 POP SWAP2 SWAP1 POP JUMP JUMPDEST PUSH2 0x616 PUSH2 0xD91 JUMP JUMPDEST PUSH2 0x61F PUSH0 PUSH2 0xDBD JUMP JUMPDEST JUMP JUMPDEST PUSH0 DUP8 PUSH2 0x660 JUMPI PUSH1 0x40 MLOAD PUSH3 0x461BCD PUSH1 0xE5 SHL DUP2 MSTORE PUSH1 0x20 PUSH1 0x4 DUP3 ADD MSTORE PUSH1 0x9 PUSH1 0x24 DUP3 ADD MSTORE PUSH9 0x115B5C1D1E4810D251 PUSH1 0xBA SHL PUSH1 0x44 DUP3 ADD MSTORE PUSH1 0x64 ADD JUMPDEST PUSH1 0x40 MLOAD DUP1 SWAP2 SUB SWAP1 REVERT JUMPDEST PUSH0 DUP1 SHL PUSH1 0x2 DUP11 DUP11 PUSH1 0x40 MLOAD PUSH2 0x675 SWAP3 SWAP2 SWAP1 PUSH2 0x12C4 JUMP JUMPDEST SWAP1 DUP2 MSTORE PUSH1 0x20 ADD PUSH1 0x40 MLOAD DUP1 SWAP2 SUB SWAP1 KECCAK256 SLOAD EQ PUSH2 0x6C6 JUMPI PUSH1 0x40 MLOAD PUSH3 0x461BCD PUSH1 0xE5 SHL DUP2 MSTORE PUSH1 0x20 PUSH1 0x4 DUP3 ADD MSTORE PUSH1 0x12 PUSH1 0x24 DUP3 ADD MSTORE PUSH18 0x43494420616C726561647920657869737473 PUSH1 0x70 SHL PUSH1 0x44 DUP3 ADD MSTORE PUSH1 0x64 ADD PUSH2 0x657 JUMP JUMPDEST PUSH1 0x40 DUP1 MLOAD PUSH2 0x100 PUSH1 0x20 PUSH1 0x1F DUP13 ADD DUP2 SWAP1 DIV MUL DUP3 ADD DUP2 ADD SWAP1 SWAP3 MSTORE PUSH1 0xE0 DUP2 ADD DUP11 DUP2 MSTORE PUSH0 SWAP3 DUP3 SWAP2 SWAP1 DUP14 SWAP1 DUP14 SWAP1 DUP2 SWAP1 DUP6 ADD DUP4 DUP3 DUP1 DUP3 DUP5 CALLDATACOPY PUSH0 SWAP3 ADD SWAP2 SWAP1 SWAP2 MSTORE POP POP POP SWAP1 DUP3 MSTORE POP PUSH1 0x20 DUP1 DUP3 ADD DUP12 SWAP1 MSTORE TIMESTAMP PUSH1 0x40 DUP1 DUP5 ADD SWAP2 SWAP1 SWAP2 MSTORE PUSH1 0x60 DUP4 ADD DUP12 SWAP1 MSTORE DUP10 ISZERO ISZERO PUSH1 0x80 DUP5 ADD MSTORE PUSH1 0xA0 DUP4 ADD DUP10 SWAP1 MSTORE DUP1 MLOAD DUP8 DUP4 MUL DUP2 DUP2 ADD DUP5 ADD SWAP1 SWAP3 MSTORE DUP8 DUP2 MSTORE PUSH1 0xC0 SWAP1 SWAP4 ADD SWAP3 SWAP2 DUP9 SWAP2 DUP9 SWAP2 DUP3 SWAP2 SWAP1 DUP6 ADD SWAP1 DUP5 SWAP1 DUP1 DUP3 DUP5 CALLDATACOPY PUSH0 SWAP3 ADD DUP3 SWAP1 MSTORE POP SWAP4 SWAP1 SWAP5 MSTORE POP POP DUP14 DUP2 MSTORE PUSH1 0x1 PUSH1 0x20 DUP2 DUP2 MSTORE PUSH1 0x40 DUP4 KECCAK256 DUP1 SLOAD SWAP3 DUP4 ADD DUP2 SSTORE DUP4 MSTORE SWAP1 SWAP2 KECCAK256 DUP4 MLOAD SWAP4 SWAP5 POP DUP5 SWAP4 PUSH1 0x7 SWAP1 SWAP3 MUL ADD SWAP2 POP DUP2 SWAP1 PUSH2 0x797 SWAP1 DUP3 PUSH2 0x131F JUMP JUMPDEST POP PUSH1 0x20 DUP3 DUP2 ADD MLOAD PUSH1 0x1 DUP4 ADD SSTORE PUSH1 0x40 DUP4 ADD MLOAD PUSH1 0x2 DUP4 ADD SSTORE PUSH1 0x60 DUP4 ADD MLOAD PUSH1 0x3 DUP4 ADD SSTORE PUSH1 0x80 DUP4 ADD MLOAD PUSH1 0x4 DUP4 ADD DUP1 SLOAD PUSH1 0xFF NOT AND SWAP2 ISZERO ISZERO SWAP2 SWAP1 SWAP2 OR SWAP1 SSTORE PUSH1 0xA0 DUP4 ADD MLOAD PUSH1 0x5 DUP4 ADD SSTORE PUSH1 0xC0 DUP4 ADD MLOAD DUP1 MLOAD PUSH2 0x7F0 SWAP3 PUSH1 0x6 DUP6 ADD SWAP3 ADD SWAP1 PUSH2 0xE0C JUMP JUMPDEST POP POP POP DUP11 PUSH1 0x2 DUP12 DUP12 PUSH1 0x40 MLOAD PUSH2 0x806 SWAP3 SWAP2 SWAP1 PUSH2 0x12C4 JUMP JUMPDEST SWAP1 DUP2 MSTORE PUSH1 0x20 ADD PUSH1 0x40 MLOAD DUP1 SWAP2 SUB SWAP1 KECCAK256 DUP2 SWAP1 SSTORE POP PUSH1 0x1 DUP1 PUSH0 DUP14 DUP2 MSTORE PUSH1 0x20 ADD SWAP1 DUP2 MSTORE PUSH1 0x20 ADD PUSH0 KECCAK256 DUP1 SLOAD SWAP1 POP PUSH2 0x838 SWAP2 SWAP1 PUSH2 0x13DA JUMP JUMPDEST SWAP2 POP DUP11 PUSH32 0x108C42D23F11799A4F0636A811FC090800389C4B1B85FBA59D5B9F347412D56F DUP12 DUP12 TIMESTAMP DUP11 PUSH1 0x40 MLOAD PUSH2 0x870 SWAP5 SWAP4 SWAP3 SWAP2 SWAP1 PUSH2 0x13F9 JUMP JUMPDEST PUSH1 0x40 MLOAD DUP1 SWAP2 SUB SWAP1 LOG2 POP SWAP10 SWAP9 POP POP POP POP POP POP POP POP POP JUMP JUMPDEST PUSH2 0x8C6 PUSH1 0x40 MLOAD DUP1 PUSH1 0xE0 ADD PUSH1 0x40 MSTORE DUP1 PUSH1 0x60 DUP2 MSTORE PUSH1 0x20 ADD PUSH0 DUP1 NOT AND DUP2 MSTORE PUSH1 0x20 ADD PUSH0 DUP2 MSTORE PUSH1 0x20 ADD PUSH0 DUP2 MSTORE PUSH1 0x20 ADD PUSH0 ISZERO ISZERO DUP2 MSTORE PUSH1 0x20 ADD PUSH0 DUP2 MSTORE PUSH1 0x20 ADD PUSH1 0x60 DUP2 MSTORE POP SWAP1 JUMP JUMPDEST PUSH0 DUP5 DUP2 MSTORE PUSH1 0x1 PUSH1 0x20 MSTORE PUSH1 0x40 SWAP1 KECCAK256 SLOAD DUP4 LT PUSH2 0x916 JUMPI PUSH1 0x40 MLOAD PUSH3 0x461BCD PUSH1 0xE5 SHL DUP2 MSTORE PUSH1 0x20 PUSH1 0x4 DUP3 ADD MSTORE PUSH1 0x11 PUSH1 0x24 DUP3 ADD MSTORE PUSH17 0x125B9D985B1A59081B595B5BDC9E481251 PUSH1 0x7A SHL PUSH1 0x44 DUP3 ADD MSTORE PUSH1 0x64 ADD PUSH2 0x657 JUMP JUMPDEST PUSH0 DUP5 DUP2 MSTORE PUSH1 0x1 PUSH1 0x20 MSTORE PUSH1 0x40 DUP2 KECCAK256 DUP1 SLOAD DUP6 SWAP1 DUP2 LT PUSH2 0x935 JUMPI PUSH2 0x935 PUSH2 0x1439 JUMP JUMPDEST SWAP1 PUSH0 MSTORE PUSH1 0x20 PUSH0 KECCAK256 SWAP1 PUSH1 0x7 MUL ADD SWAP1 POP PUSH0 DUP2 PUSH1 0x3 ADD SLOAD GT ISZERO PUSH2 0x993 JUMPI DUP1 PUSH1 0x3 ADD SLOAD TIMESTAMP LT PUSH2 0x993 JUMPI PUSH1 0x40 MLOAD PUSH3 0x461BCD PUSH1 0xE5 SHL DUP2 MSTORE PUSH1 0x20 PUSH1 0x4 DUP3 ADD MSTORE PUSH1 0xE PUSH1 0x24 DUP3 ADD MSTORE PUSH14 0x13595B5BDC9E48195E1C1A5C9959 PUSH1 0x92 SHL PUSH1 0x44 DUP3 ADD MSTORE PUSH1 0x64 ADD PUSH2 0x657 JUMP JUMPDEST DUP5 DUP4 EQ DUP1 PUSH2 0x9B8 JUMPI POP PUSH0 DUP6 DUP2 MSTORE PUSH1 0x3 PUSH1 0x20 SWAP1 DUP2 MSTORE PUSH1 0x40 DUP1 DUP4 KECCAK256 DUP7 DUP5 MSTORE SWAP1 SWAP2 MSTORE SWAP1 KECCAK256 SLOAD TIMESTAMP LT JUMPDEST DUP1 PUSH2 0x9DC JUMPI POP PUSH1 0x4 SLOAD PUSH1 0x1 PUSH1 0xA0 SHL SWAP1 DIV PUSH1 0xFF AND DUP1 ISZERO PUSH2 0x9DC JUMPI POP PUSH2 0x9DC DUP4 DUP7 PUSH2 0xCDF JUMP JUMPDEST PUSH2 0xA18 JUMPI PUSH1 0x40 MLOAD PUSH3 0x461BCD PUSH1 0xE5 SHL DUP2 MSTORE PUSH1 0x20 PUSH1 0x4 DUP3 ADD MSTORE PUSH1 0xD PUSH1 0x24 DUP3 ADD MSTORE PUSH13 0x1058D8D95CDCC819195B9A5959 PUSH1 0x9A SHL PUSH1 0x44 DUP3 ADD MSTORE PUSH1 0x64 ADD PUSH2 0x657 JUMP JUMPDEST DUP1 PUSH1 0x40 MLOAD DUP1 PUSH1 0xE0 ADD PUSH1 0x40 MSTORE SWAP1 DUP2 PUSH0 DUP3 ADD DUP1 SLOAD PUSH2 0xA33 SWAP1 PUSH2 0x128C JUMP JUMPDEST DUP1 PUSH1 0x1F ADD PUSH1 0x20 DUP1 SWAP2 DIV MUL PUSH1 0x20 ADD PUSH1 0x40 MLOAD SWAP1 DUP2 ADD PUSH1 0x40 MSTORE DUP1 SWAP3 SWAP2 SWAP1 DUP2 DUP2 MSTORE PUSH1 0x20 ADD DUP3 DUP1 SLOAD PUSH2 0xA5F SWAP1 PUSH2 0x128C JUMP JUMPDEST DUP1 ISZERO PUSH2 0xAAA JUMPI DUP1 PUSH1 0x1F LT PUSH2 0xA81 JUMPI PUSH2 0x100 DUP1 DUP4 SLOAD DIV MUL DUP4 MSTORE SWAP2 PUSH1 0x20 ADD SWAP2 PUSH2 0xAAA JUMP JUMPDEST DUP3 ADD SWAP2 SWAP1 PUSH0 MSTORE PUSH1 0x20 PUSH0 KECCAK256 SWAP1 JUMPDEST DUP2 SLOAD DUP2 MSTORE SWAP1 PUSH1 0x1 ADD SWAP1 PUSH1 0x20 ADD DUP1 DUP4 GT PUSH2 0xA8D JUMPI DUP3 SWAP1 SUB PUSH1 0x1F AND DUP3 ADD SWAP2 JUMPDEST POP POP POP POP POP DUP2 MSTORE PUSH1 0x20 ADD PUSH1 0x1 DUP3 ADD SLOAD DUP2 MSTORE PUSH1 0x20 ADD PUSH1 0x2 DUP3 ADD SLOAD DUP2 MSTORE PUSH1 0x20 ADD PUSH1 0x3 DUP3 ADD SLOAD DUP2 MSTORE PUSH1 0x20 ADD PUSH1 0x4 DUP3 ADD PUSH0 SWAP1 SLOAD SWAP1 PUSH2 0x100 EXP SWAP1 DIV PUSH1 0xFF AND ISZERO ISZERO ISZERO ISZERO DUP2 MSTORE PUSH1 0x20 ADD PUSH1 0x5 DUP3 ADD SLOAD DUP2 MSTORE PUSH1 0x20 ADD PUSH1 0x6 DUP3 ADD DUP1 SLOAD DUP1 PUSH1 0x20 MUL PUSH1 0x20 ADD PUSH1 0x40 MLOAD SWAP1 DUP2 ADD PUSH1 0x40 MSTORE DUP1 SWAP3 SWAP2 SWAP1 DUP2 DUP2 MSTORE PUSH1 0x20 ADD DUP3 DUP1 SLOAD DUP1 ISZERO PUSH2 0xB42 JUMPI PUSH1 0x20 MUL DUP3 ADD SWAP2 SWAP1 PUSH0 MSTORE PUSH1 0x20 PUSH0 KECCAK256 SWAP1 JUMPDEST DUP2 SLOAD DUP2 MSTORE PUSH1 0x20 ADD SWAP1 PUSH1 0x1 ADD SWAP1 DUP1 DUP4 GT PUSH2 0xB2E JUMPI JUMPDEST POP POP POP POP POP DUP2 MSTORE POP POP SWAP2 POP POP SWAP4 SWAP3 POP POP POP JUMP JUMPDEST TIMESTAMP DUP2 GT PUSH2 0xBA4 JUMPI PUSH1 0x40 MLOAD PUSH3 0x461BCD PUSH1 0xE5 SHL DUP2 MSTORE PUSH1 0x20 PUSH1 0x4 DUP3 ADD MSTORE PUSH1 0x19 PUSH1 0x24 DUP3 ADD MSTORE PUSH32 0x45787069726174696F6E206D7573742062652066757475726500000000000000 PUSH1 0x44 DUP3 ADD MSTORE PUSH1 0x64 ADD PUSH2 0x657 JUMP JUMPDEST PUSH0 DUP4 DUP2 MSTORE PUSH1 0x3 PUSH1 0x20 SWAP1 DUP2 MSTORE PUSH1 0x40 DUP1 DUP4 KECCAK256 DUP6 DUP5 MSTORE DUP3 MSTORE SWAP2 DUP3 SWAP1 KECCAK256 DUP4 SWAP1 SSTORE SWAP1 MLOAD DUP3 DUP2 MSTORE DUP4 SWAP2 DUP6 SWAP2 PUSH32 0x94DFDA7E74E67CDD2B955193E5674FD8B9E08CA9EDDBDC5C8AE409224E437BBD SWAP2 ADD PUSH1 0x40 MLOAD DUP1 SWAP2 SUB SWAP1 LOG3 POP POP POP JUMP JUMPDEST PUSH2 0xC01 PUSH2 0xD91 JUMP JUMPDEST PUSH1 0x1 PUSH1 0x1 PUSH1 0xA0 SHL SUB DUP2 AND PUSH2 0xC2A JUMPI PUSH1 0x40 MLOAD PUSH4 0x1E4FBDF7 PUSH1 0xE0 SHL DUP2 MSTORE PUSH0 PUSH1 0x4 DUP3 ADD MSTORE PUSH1 0x24 ADD PUSH2 0x657 JUMP JUMPDEST PUSH2 0xC33 DUP2 PUSH2 0xDBD JUMP JUMPDEST POP JUMP JUMPDEST PUSH2 0xC3E PUSH2 0xD91 JUMP JUMPDEST PUSH1 0x4 DUP1 SLOAD DUP3 ISZERO ISZERO PUSH1 0x1 PUSH1 0xA0 SHL MUL PUSH1 0xFF PUSH1 0xA0 SHL NOT SWAP1 SWAP2 AND OR SWAP1 SSTORE PUSH1 0x40 MLOAD PUSH32 0xB7AA57FCEBF80F728C0520321479E135065A6A0F3B1A402E0A977DDB1E6405AE SWAP1 PUSH2 0xC8B SWAP1 DUP4 ISZERO ISZERO DUP2 MSTORE PUSH1 0x20 ADD SWAP1 JUMP JUMPDEST PUSH1 0x40 MLOAD DUP1 SWAP2 SUB SWAP1 LOG1 POP JUMP JUMPDEST PUSH0 DUP3 DUP2 MSTORE PUSH1 0x3 PUSH1 0x20 SWAP1 DUP2 MSTORE PUSH1 0x40 DUP1 DUP4 KECCAK256 DUP5 DUP5 MSTORE SWAP1 SWAP2 MSTORE DUP1 DUP3 KECCAK256 DUP3 SWAP1 SSTORE MLOAD DUP3 SWAP2 DUP5 SWAP2 PUSH32 0xAF4FC1E522C8950216EC848AA5414570B302B1B4A392879AFF32D62983362135 SWAP2 SWAP1 LOG3 POP POP JUMP JUMPDEST PUSH1 0x4 SLOAD PUSH0 SWAP1 PUSH1 0x1 PUSH1 0x1 PUSH1 0xA0 SHL SUB AND PUSH2 0xCF8 JUMPI POP PUSH0 PUSH2 0x346 JUMP JUMPDEST PUSH1 0x4 DUP1 SLOAD PUSH1 0x40 MLOAD PUSH4 0xB4B7580D PUSH1 0xE0 SHL DUP2 MSTORE PUSH1 0x1 PUSH1 0x1 PUSH1 0xA0 SHL SUB DUP1 DUP8 AND DUP3 DUP6 ADD MSTORE PUSH1 0x24 DUP3 ADD DUP7 SWAP1 MSTORE PUSH1 0x60 PUSH1 0x44 DUP4 ADD MSTORE PUSH1 0x64 DUP3 ADD SWAP4 SWAP1 SWAP4 MSTORE PUSH4 0x1C995859 PUSH1 0xE2 SHL PUSH1 0x84 DUP3 ADD MSTORE DUP6 SWAP3 SWAP1 SWAP2 AND SWAP1 PUSH4 0xB4B7580D SWAP1 PUSH1 0xA4 ADD PUSH1 0x20 PUSH1 0x40 MLOAD DUP1 DUP4 SUB DUP2 DUP7 GAS STATICCALL ISZERO DUP1 ISZERO PUSH2 0xD65 JUMPI RETURNDATASIZE PUSH0 DUP1 RETURNDATACOPY RETURNDATASIZE PUSH0 REVERT JUMPDEST POP POP POP POP PUSH1 0x40 MLOAD RETURNDATASIZE PUSH1 0x1F NOT PUSH1 0x1F DUP3 ADD AND DUP3 ADD DUP1 PUSH1 0x40 MSTORE POP DUP2 ADD SWAP1 PUSH2 0xD89 SWAP2 SWAP1 PUSH2 0x144D JUMP JUMPDEST SWAP5 SWAP4 POP POP POP POP JUMP JUMPDEST PUSH0 SLOAD PUSH1 0x1 PUSH1 0x1 PUSH1 0xA0 SHL SUB AND CALLER EQ PUSH2 0x61F JUMPI PUSH1 0x40 MLOAD PUSH4 0x118CDAA7 PUSH1 0xE0 SHL DUP2 MSTORE CALLER PUSH1 0x4 DUP3 ADD MSTORE PUSH1 0x24 ADD PUSH2 0x657 JUMP JUMPDEST PUSH0 DUP1 SLOAD PUSH1 0x1 PUSH1 0x1 PUSH1 0xA0 SHL SUB DUP4 DUP2 AND PUSH1 0x1 PUSH1 0x1 PUSH1 0xA0 SHL SUB NOT DUP4 AND DUP2 OR DUP5 SSTORE PUSH1 0x40 MLOAD SWAP2 SWAP1 SWAP3 AND SWAP3 DUP4 SWAP2 PUSH32 0x8BE0079C531659141344CD1FD0A4F28419497F9722A3DAAFE3B4186F6B6457E0 SWAP2 SWAP1 LOG3 POP POP JUMP JUMPDEST DUP3 DUP1 SLOAD DUP3 DUP3 SSTORE SWAP1 PUSH0 MSTORE PUSH1 0x20 PUSH0 KECCAK256 SWAP1 DUP2 ADD SWAP3 DUP3 ISZERO PUSH2 0xE45 JUMPI SWAP2 PUSH1 0x20 MUL DUP3 ADD JUMPDEST DUP3 DUP2 GT ISZERO PUSH2 0xE45 JUMPI DUP3 MLOAD DUP3 SSTORE SWAP2 PUSH1 0x20 ADD SWAP2 SWAP1 PUSH1 0x1 ADD SWAP1 PUSH2 0xE2A JUMP JUMPDEST POP PUSH2 0xE51 SWAP3 SWAP2 POP PUSH2 0xE55 JUMP JUMPDEST POP SWAP1 JUMP JUMPDEST JUMPDEST DUP1 DUP3 GT ISZERO PUSH2 0xE51 JUMPI PUSH0 DUP2 SSTORE PUSH1 0x1 ADD PUSH2 0xE56 JUMP JUMPDEST PUSH0 DUP1 PUSH1 0x40 DUP4 DUP6 SUB SLT ISZERO PUSH2 0xE7A JUMPI PUSH0 DUP1 REVERT JUMPDEST POP POP DUP1 CALLDATALOAD SWAP3 PUSH1 0x20 SWAP1 SWAP2 ADD CALLDATALOAD SWAP2 POP JUMP JUMPDEST PUSH0 DUP2 MLOAD DUP1 DUP5 MSTORE DUP1 PUSH1 0x20 DUP5 ADD PUSH1 0x20 DUP7 ADD MCOPY PUSH0 PUSH1 0x20 DUP3 DUP7 ADD ADD MSTORE PUSH1 0x20 PUSH1 0x1F NOT PUSH1 0x1F DUP4 ADD AND DUP6 ADD ADD SWAP2 POP POP SWAP3 SWAP2 POP POP JUMP JUMPDEST PUSH1 0xC0 DUP2 MSTORE PUSH0 PUSH2 0xEC9 PUSH1 0xC0 DUP4 ADD DUP10 PUSH2 0xE89 JUMP JUMPDEST PUSH1 0x20 DUP4 ADD SWAP8 SWAP1 SWAP8 MSTORE POP PUSH1 0x40 DUP2 ADD SWAP5 SWAP1 SWAP5 MSTORE PUSH1 0x60 DUP5 ADD SWAP3 SWAP1 SWAP3 MSTORE ISZERO ISZERO PUSH1 0x80 DUP4 ADD MSTORE PUSH1 0xA0 SWAP1 SWAP2 ADD MSTORE SWAP2 SWAP1 POP JUMP JUMPDEST PUSH0 PUSH1 0x20 DUP3 DUP5 SUB SLT ISZERO PUSH2 0xF04 JUMPI PUSH0 DUP1 REVERT JUMPDEST DUP2 CALLDATALOAD PUSH1 0x1 PUSH1 0x1 PUSH1 0xA0 SHL SUB DUP2 AND DUP2 EQ PUSH2 0xF1A JUMPI PUSH0 DUP1 REVERT JUMPDEST SWAP4 SWAP3 POP POP POP JUMP JUMPDEST PUSH4 0x4E487B71 PUSH1 0xE0 SHL PUSH0 MSTORE PUSH1 0x41 PUSH1 0x4 MSTORE PUSH1 0x24 PUSH0 REVERT JUMPDEST PUSH0 PUSH1 0x20 DUP3 DUP5 SUB SLT ISZERO PUSH2 0xF45 JUMPI PUSH0 DUP1 REVERT JUMPDEST DUP2 CALLDATALOAD PUSH8 0xFFFFFFFFFFFFFFFF DUP2 GT ISZERO PUSH2 0xF5B JUMPI PUSH0 DUP1 REVERT JUMPDEST DUP3 ADD PUSH1 0x1F DUP2 ADD DUP5 SGT PUSH2 0xF6B JUMPI PUSH0 DUP1 REVERT JUMPDEST DUP1 CALLDATALOAD PUSH8 0xFFFFFFFFFFFFFFFF DUP2 GT ISZERO PUSH2 0xF85 JUMPI PUSH2 0xF85 PUSH2 0xF21 JUMP JUMPDEST PUSH1 0x40 MLOAD PUSH1 0x1F DUP3 ADD PUSH1 0x1F NOT SWAP1 DUP2 AND PUSH1 0x3F ADD AND DUP2 ADD PUSH8 0xFFFFFFFFFFFFFFFF DUP2 GT DUP3 DUP3 LT OR ISZERO PUSH2 0xFB4 JUMPI PUSH2 0xFB4 PUSH2 0xF21 JUMP JUMPDEST PUSH1 0x40 MSTORE DUP2 DUP2 MSTORE DUP3 DUP3 ADD PUSH1 0x20 ADD DUP7 LT ISZERO PUSH2 0xFCB JUMPI PUSH0 DUP1 REVERT JUMPDEST DUP2 PUSH1 0x20 DUP5 ADD PUSH1 0x20 DUP4 ADD CALLDATACOPY PUSH0 SWAP2 DUP2 ADD PUSH1 0x20 ADD SWAP2 SWAP1 SWAP2 MSTORE SWAP5 SWAP4 POP POP POP POP JUMP JUMPDEST PUSH0 PUSH1 0x20 DUP3 DUP5 SUB SLT ISZERO PUSH2 0xFF8 JUMPI PUSH0 DUP1 REVERT JUMPDEST POP CALLDATALOAD SWAP2 SWAP1 POP JUMP JUMPDEST PUSH0 DUP2 MLOAD PUSH1 0xE0 DUP5 MSTORE PUSH2 0x1013 PUSH1 0xE0 DUP6 ADD DUP3 PUSH2 0xE89 JUMP JUMPDEST SWAP1 POP PUSH1 0x20 DUP4 ADD MLOAD PUSH1 0x20 DUP6 ADD MSTORE PUSH1 0x40 DUP4 ADD MLOAD PUSH1 0x40 DUP6 ADD MSTORE PUSH1 0x60 DUP4 ADD MLOAD PUSH1 0x60 DUP6 ADD MSTORE PUSH1 0x80 DUP4 ADD MLOAD ISZERO ISZERO PUSH1 0x80 DUP6 ADD MSTORE PUSH1 0xA0 DUP4 ADD MLOAD PUSH1 0xA0 DUP6 ADD MSTORE PUSH1 0xC0 DUP4 ADD MLOAD DUP5 DUP3 SUB PUSH1 0xC0 DUP7 ADD MSTORE DUP2 DUP2 MLOAD DUP1 DUP5 MSTORE PUSH1 0x20 DUP5 ADD SWAP2 POP PUSH1 0x20 DUP4 ADD SWAP4 POP PUSH0 SWAP3 POP JUMPDEST DUP1 DUP4 LT ISZERO PUSH2 0x108F JUMPI DUP4 MLOAD DUP3 MSTORE PUSH1 0x20 DUP3 ADD SWAP2 POP PUSH1 0x20 DUP5 ADD SWAP4 POP PUSH1 0x1 DUP4 ADD SWAP3 POP PUSH2 0x106C JUMP JUMPDEST POP SWAP6 SWAP5 POP POP POP POP POP JUMP JUMPDEST PUSH0 PUSH1 0x20 DUP3 ADD PUSH1 0x20 DUP4 MSTORE DUP1 DUP5 MLOAD DUP1 DUP4 MSTORE PUSH1 0x40 DUP6 ADD SWAP2 POP PUSH1 0x40 DUP2 PUSH1 0x5 SHL DUP7 ADD ADD SWAP3 POP PUSH1 0x20 DUP7 ADD PUSH0 JUMPDEST DUP3 DUP2 LT ISZERO PUSH2 0x10F0 JUMPI PUSH1 0x3F NOT DUP8 DUP7 SUB ADD DUP5 MSTORE PUSH2 0x10DB DUP6 DUP4 MLOAD PUSH2 0xFFF JUMP JUMPDEST SWAP5 POP PUSH1 0x20 SWAP4 DUP5 ADD SWAP4 SWAP2 SWAP1 SWAP2 ADD SWAP1 PUSH1 0x1 ADD PUSH2 0x10BF JUMP JUMPDEST POP SWAP3 SWAP7 SWAP6 POP POP POP POP POP POP JUMP JUMPDEST DUP1 ISZERO ISZERO DUP2 EQ PUSH2 0xC33 JUMPI PUSH0 DUP1 REVERT JUMPDEST DUP1 CALLDATALOAD PUSH2 0x1114 DUP2 PUSH2 0x10FC JUMP JUMPDEST SWAP2 SWAP1 POP JUMP JUMPDEST PUSH0 DUP1 DUP4 PUSH1 0x1F DUP5 ADD SLT PUSH2 0x1129 JUMPI PUSH0 DUP1 REVERT JUMPDEST POP DUP2 CALLDATALOAD PUSH8 0xFFFFFFFFFFFFFFFF DUP2 GT ISZERO PUSH2 0x1140 JUMPI PUSH0 DUP1 REVERT JUMPDEST PUSH1 0x20 DUP4 ADD SWAP2 POP DUP4 PUSH1 0x20 DUP3 PUSH1 0x5 SHL DUP6 ADD ADD GT ISZERO PUSH2 0x115A JUMPI PUSH0 DUP1 REVERT JUMPDEST SWAP3 POP SWAP3 SWAP1 POP JUMP JUMPDEST PUSH0 DUP1 PUSH0 DUP1 PUSH0 DUP1 PUSH0 DUP1 PUSH0 PUSH1 0xE0 DUP11 DUP13 SUB SLT ISZERO PUSH2 0x1179 JUMPI PUSH0 DUP1 REVERT JUMPDEST DUP10 CALLDATALOAD SWAP9 POP PUSH1 0x20 DUP11 ADD CALLDATALOAD PUSH8 0xFFFFFFFFFFFFFFFF DUP2 GT ISZERO PUSH2 0x1196 JUMPI PUSH0 DUP1 REVERT JUMPDEST DUP11 ADD PUSH1 0x1F DUP2 ADD DUP13 SGT PUSH2 0x11A6 JUMPI PUSH0 DUP1 REVERT JUMPDEST DUP1 CALLDATALOAD PUSH8 0xFFFFFFFFFFFFFFFF DUP2 GT ISZERO PUSH2 0x11BC JUMPI PUSH0 DUP1 REVERT JUMPDEST DUP13 PUSH1 0x20 DUP3 DUP5 ADD ADD GT ISZERO PUSH2 0x11CD JUMPI PUSH0 DUP1 REVERT JUMPDEST PUSH1 0x20 SWAP2 SWAP1 SWAP2 ADD SWAP9 POP SWAP7 POP PUSH1 0x40 DUP11 ADD CALLDATALOAD SWAP6 POP PUSH1 0x60 DUP11 ADD CALLDATALOAD SWAP5 POP PUSH2 0x11F1 PUSH1 0x80 DUP12 ADD PUSH2 0x1109 JUMP JUMPDEST SWAP4 POP PUSH1 0xA0 DUP11 ADD CALLDATALOAD SWAP3 POP PUSH1 0xC0 DUP11 ADD CALLDATALOAD PUSH8 0xFFFFFFFFFFFFFFFF DUP2 GT ISZERO PUSH2 0x1213 JUMPI PUSH0 DUP1 REVERT JUMPDEST PUSH2 0x121F DUP13 DUP3 DUP14 ADD PUSH2 0x1119 JUMP JUMPDEST SWAP2 POP DUP1 SWAP4 POP POP DUP1 SWAP2 POP POP SWAP3 SWAP6 SWAP9 POP SWAP3 SWAP6 SWAP9 POP SWAP3 SWAP6 SWAP9 JUMP JUMPDEST PUSH0 DUP1 PUSH0 PUSH1 0x60 DUP5 DUP7 SUB SLT ISZERO PUSH2 0x1248 JUMPI PUSH0 DUP1 REVERT JUMPDEST POP POP DUP2 CALLDATALOAD SWAP4 PUSH1 0x20 DUP4 ADD CALLDATALOAD SWAP4 POP PUSH1 0x40 SWAP1 SWAP3 ADD CALLDATALOAD SWAP2 SWAP1 POP JUMP JUMPDEST PUSH1 0x20 DUP2 MSTORE PUSH0 PUSH2 0xF1A PUSH1 0x20 DUP4 ADD DUP5 PUSH2 0xFFF JUMP JUMPDEST PUSH0 PUSH1 0x20 DUP3 DUP5 SUB SLT ISZERO PUSH2 0x1281 JUMPI PUSH0 DUP1 REVERT JUMPDEST DUP2 CALLDATALOAD PUSH2 0xF1A DUP2 PUSH2 0x10FC JUMP JUMPDEST PUSH1 0x1 DUP2 DUP2 SHR SWAP1 DUP3 AND DUP1 PUSH2 0x12A0 JUMPI PUSH1 0x7F DUP3 AND SWAP2 POP JUMPDEST PUSH1 0x20 DUP3 LT DUP2 SUB PUSH2 0x12BE JUMPI PUSH4 0x4E487B71 PUSH1 0xE0 SHL PUSH0 MSTORE PUSH1 0x22 PUSH1 0x4 MSTORE PUSH1 0x24 PUSH0 REVERT JUMPDEST POP SWAP2 SWAP1 POP JUMP JUMPDEST DUP2 DUP4 DUP3 CALLDATACOPY PUSH0 SWAP2 ADD SWAP1 DUP2 MSTORE SWAP2 SWAP1 POP JUMP JUMPDEST PUSH1 0x1F DUP3 GT ISZERO PUSH2 0x131A JUMPI DUP1 PUSH0 MSTORE PUSH1 0x20 PUSH0 KECCAK256 PUSH1 0x1F DUP5 ADD PUSH1 0x5 SHR DUP2 ADD PUSH1 0x20 DUP6 LT ISZERO PUSH2 0x12F8 JUMPI POP DUP1 JUMPDEST PUSH1 0x1F DUP5 ADD PUSH1 0x5 SHR DUP3 ADD SWAP2 POP JUMPDEST DUP2 DUP2 LT ISZERO PUSH2 0x1317 JUMPI PUSH0 DUP2 SSTORE PUSH1 0x1 ADD PUSH2 0x1304 JUMP JUMPDEST POP POP JUMPDEST POP POP POP JUMP JUMPDEST DUP2 MLOAD PUSH8 0xFFFFFFFFFFFFFFFF DUP2 GT ISZERO PUSH2 0x1339 JUMPI PUSH2 0x1339 PUSH2 0xF21 JUMP JUMPDEST PUSH2 0x134D DUP2 PUSH2 0x1347 DUP5 SLOAD PUSH2 0x128C JUMP JUMPDEST DUP5 PUSH2 0x12D3 JUMP JUMPDEST PUSH1 0x20 PUSH1 0x1F DUP3 GT PUSH1 0x1 DUP2 EQ PUSH2 0x137F JUMPI PUSH0 DUP4 ISZERO PUSH2 0x1368 JUMPI POP DUP5 DUP3 ADD MLOAD JUMPDEST PUSH0 NOT PUSH1 0x3 DUP6 SWAP1 SHL SHR NOT AND PUSH1 0x1 DUP5 SWAP1 SHL OR DUP5 SSTORE PUSH2 0x1317 JUMP JUMPDEST PUSH0 DUP5 DUP2 MSTORE PUSH1 0x20 DUP2 KECCAK256 PUSH1 0x1F NOT DUP6 AND SWAP2 JUMPDEST DUP3 DUP2 LT ISZERO PUSH2 0x13AE JUMPI DUP8 DUP6 ADD MLOAD DUP3 SSTORE PUSH1 0x20 SWAP5 DUP6 ADD SWAP5 PUSH1 0x1 SWAP1 SWAP3 ADD SWAP2 ADD PUSH2 0x138E JUMP JUMPDEST POP DUP5 DUP3 LT ISZERO PUSH2 0x13CB JUMPI DUP7 DUP5 ADD MLOAD PUSH0 NOT PUSH1 0x3 DUP8 SWAP1 SHL PUSH1 0xF8 AND SHR NOT AND DUP2 SSTORE JUMPDEST POP POP POP POP PUSH1 0x1 SWAP1 DUP2 SHL ADD SWAP1 SSTORE POP JUMP JUMPDEST DUP2 DUP2 SUB DUP2 DUP2 GT ISZERO PUSH2 0x346 JUMPI PUSH4 0x4E487B71 PUSH1 0xE0 SHL PUSH0 MSTORE PUSH1 0x11 PUSH1 0x4 MSTORE PUSH1 0x24 PUSH0 REVERT JUMPDEST PUSH1 0x60 DUP2 MSTORE DUP4 PUSH1 0x60 DUP3 ADD MSTORE DUP4 DUP6 PUSH1 0x80 DUP4 ADD CALLDATACOPY PUSH0 PUSH1 0x80 DUP6 DUP4 ADD ADD MSTORE PUSH0 PUSH1 0x80 PUSH1 0x1F NOT PUSH1 0x1F DUP8 ADD AND DUP4 ADD ADD SWAP1 POP DUP4 PUSH1 0x20 DUP4 ADD MSTORE DUP3 ISZERO ISZERO PUSH1 0x40 DUP4 ADD MSTORE SWAP6 SWAP5 POP POP POP POP POP JUMP JUMPDEST PUSH4 0x4E487B71 PUSH1 0xE0 SHL PUSH0 MSTORE PUSH1 0x32 PUSH1 0x4 MSTORE PUSH1 0x24 PUSH0 REVERT JUMPDEST PUSH0 PUSH1 0x20 DUP3 DUP5 SUB SLT ISZERO PUSH2 0x145D JUMPI PUSH0 DUP1 REVERT JUMPDEST DUP2 MLOAD PUSH2 0xF1A DUP2 PUSH2 0x10FC JUMP INVALID LOG2 PUSH5 0x6970667358 0x22 SLT KECCAK256 PUSH31 0x5038840370B40BA43B5BFD7A787D7E9390366874B172CD2BCA07CF4633C059 PUSH5 0x736F6C6343 STOP ADDMOD BYTE STOP CALLER "},"methodIdentifiers":{"accessNFT()":"b9352c51","cidToOwner(string)":"47c0aa00","delegations(bytes32,bytes32)":"687b3f39","getMemories(bytes32)":"53f91196","getMemoryCount(bytes32)":"5327ca13","grantDelegation(bytes32,bytes32,uint256)":"eda3df9d","hasAccess(bytes32,bytes32)":"2a2f3072","memories(bytes32,uint256)":"2fceb89a","nftAccessEnabled()":"29a04853","owner()":"8da5cb5b","renounceOwnership()":"715018a6","retrieveMemory(bytes32,uint256,bytes32)":"da122fe4","revokeDelegation(bytes32,bytes32)":"fe19a29f","setAccessNFT(address)":"429c9a5a","setNFTAccessEnabled(bool)":"fd2275e6","storeMemory(bytes32,string,bytes32,uint256,bool,uint256,bytes32[])":"c841ba99","transferOwnership(address)":"f2fde38b"}}}}}