{
  "_format": "hh-sol-artifact-1",
  "contractName": "MemoryRegistry",
  "sourceName": "contracts/MemoryRegistry.sol",
  "abi": [
    {
      "inputs": [
        {
          "internalType": "address",
          "name": "_accessNFT",
          "type": "address"
        }
      ],
      "stateMutability": "nonpayable",
      "type": "constructor"
    },
    {
      "inputs": [
        {
          "internalType": "address",
          "name": "owner",
          "type": "address"
        }
      ],
      "name": "OwnableInvalidOwner",
      "type": "error"
    },
    {
      "inputs": [
        {
          "internalType": "address",
          "name": "account",
          "type": "address"
        }
      ],
      "name": "OwnableUnauthorizedAccount",
      "type": "error"
    },
    {
      "inputs": [],
      "name": "ReentrancyGuardReentrantCall",
      "type": "error"
    },
    {
      "anonymous": false,
      "inputs": [
        {
          "indexed": true,
          "internalType": "bytes32",
          "name": "owner",
          "type": "bytes32"
        },
        {
          "indexed": true,
          "internalType": "bytes32",
          "name": "delegate",
          "type": "bytes32"
        },
        {
          "indexed": false,
          "internalType": "uint256",
          "name": "expiration",
          "type": "uint256"
        }
      ],
      "name": "DelegationGranted",
      "type": "event"
    },
    {
      "anonymous": false,
      "inputs": [
        {
          "indexed": true,
          "internalType": "bytes32",
          "name": "owner",
          "type": "bytes32"
        },
        {
          "indexed": true,
          "internalType": "bytes32",
          "name": "delegate",
          "type": "bytes32"
        }
      ],
      "name": "DelegationRevoked",
      "type": "event"
    },
    {
      "anonymous": false,
      "inputs": [
        {
          "indexed": true,
          "internalType": "bytes32",
          "name": "participantId",
          "type": "bytes32"
        },
        {
          "indexed": false,
          "internalType": "string",
          "name": "cid",
          "type": "string"
        },
        {
          "indexed": false,
          "internalType": "uint256",
          "name": "timestamp",
          "type": "uint256"
        }
      ],
      "name": "MemoryRetrieved",
      "type": "event"
    },
    {
      "anonymous": false,
      "inputs": [
        {
          "indexed": true,
          "internalType": "bytes32",
          "name": "participantId",
          "type": "bytes32"
        },
        {
          "indexed": false,
          "internalType": "string",
          "name": "cid",
          "type": "string"
        },
        {
          "indexed": false,
          "internalType": "uint256",
          "name": "timestamp",
          "type": "uint256"
        },
        {
          "indexed": false,
          "internalType": "bool",
          "name": "isShard",
          "type": "bool"
        }
      ],
      "name": "MemoryStored",
      "type": "event"
    },
    {
      "anonymous": false,
      "inputs": [
        {
          "indexed": false,
          "internalType": "bool",
          "name": "enabled",
          "type": "bool"
        }
      ],
      "name": "NFTAccessToggled",
      "type": "event"
    },
    {
      "anonymous": false,
      "inputs": [
        {
          "indexed": true,
          "internalType": "address",
          "name": "newNFTContract",
          "type": "address"
        }
      ],
      "name": "NFTContractUpdated",
      "type": "event"
    },
    {
      "anonymous": false,
      "inputs": [
        {
          "indexed": true,
          "internalType": "address",
          "name": "previousOwner",
          "type": "address"
        },
        {
          "indexed": true,
          "internalType": "address",
          "name": "newOwner",
          "type": "address"
        }
      ],
      "name": "OwnershipTransferred",
      "type": "event"
    },
    {
      "inputs": [],
      "name": "accessNFT",
      "outputs": [
        {
          "internalType": "contract IMemoryAccessNFT",
          "name": "",
          "type": "address"
        }
      ],
      "stateMutability": "view",
      "type": "function"
    },
    {
      "inputs": [
        {
          "internalType": "string",
          "name": "",
          "type": "string"
        }
      ],
      "name": "cidToOwner",
      "outputs": [
        {
          "internalType": "bytes32",
          "name": "",
          "type": "bytes32"
        }
      ],
      "stateMutability": "view",
      "type": "function"
    },
    {
      "inputs": [
        {
          "internalType": "bytes32",
          "name": "",
          "type": "bytes32"
        },
        {
          "internalType": "bytes32",
          "name": "",
          "type": "bytes32"
        }
      ],
      "name": "delegations",
      "outputs": [
        {
          "internalType": "uint256",
          "name": "",
          "type": "uint256"
        }
      ],
      "stateMutability": "view",
      "type": "function"
    },
    {
      "inputs": [
        {
          "internalType": "bytes32",
          "name": "participantId",
          "type": "bytes32"
        }
      ],
      "name": "getMemories",
      "outputs": [
        {
          "components": [
            {
              "internalType": "string",
              "name": "cid",
              "type": "string"
            },
            {
              "internalType": "bytes32",
              "name": "encryptionKeyHash",
              "type": "bytes32"
            },
            {
              "internalType": "uint256",
              "name": "timestamp",
              "type": "uint256"
            },
            {
              "internalType": "uint256",
              "name": "expiration",
              "type": "uint256"
            },
            {
              "internalType": "bool",
              "name": "isShard",
              "type": "bool"
            },
            {
              "internalType": "uint256",
              "name": "totalShards",
              "type": "uint256"
            },
            {
              "internalType": "bytes32[]",
              "name": "shardCids",
              "type": "bytes32[]"
            }
          ],
          "internalType": "struct MemoryRegistry.MemoryEntry[]",
          "name": "",
          "type": "tuple[]"
        }
      ],
      "stateMutability": "view",
      "type": "function"
    },
    {
      "inputs": [
        {
          "internalType": "bytes32",
          "name": "participantId",
          "type": "bytes32"
        }
      ],
      "name": "getMemoryCount",
      "outputs": [
        {
          "internalType": "uint256",
          "name": "",
          "type": "uint256"
        }
      ],
      "stateMutability": "view",
      "type": "function"
    },
    {
      "inputs": [
        {
          "internalType": "bytes32",
          "name": "participantId",
          "type": "bytes32"
        },
        {
          "internalType": "bytes32",
          "name": "delegate",
          "type": "bytes32"
        },
        {
          "internalType": "uint256",
          "name": "expiration",
          "type": "uint256"
        }
      ],
      "name": "grantDelegation",
      "outputs": [],
      "stateMutability": "nonpayable",
      "type": "function"
    },
    {
      "inputs": [
        {
          "internalType": "bytes32",
          "name": "owner",
          "type": "bytes32"
        },
        {
          "internalType": "bytes32",
          "name": "requester",
          "type": "bytes32"
        }
      ],
      "name": "hasAccess",
      "outputs": [
        {
          "internalType": "bool",
          "name": "",
          "type": "bool"
        }
      ],
      "stateMutability": "view",
      "type": "function"
    },
    {
      "inputs": [
        {
          "internalType": "bytes32",
          "name": "",
          "type": "bytes32"
        },
        {
          "internalType": "uint256",
          "name": "",
          "type": "uint256"
        }
      ],
      "name": "memories",
      "outputs": [
        {
          "internalType": "string",
          "name": "cid",
          "type": "string"
        },
        {
          "internalType": "bytes32",
          "name": "encryptionKeyHash",
          "type": "bytes32"
        },
        {
          "internalType": "uint256",
          "name": "timestamp",
          "type": "uint256"
        },
        {
          "internalType": "uint256",
          "name": "expiration",
          "type": "uint256"
        },
        {
          "internalType": "bool",
          "name": "isShard",
          "type": "bool"
        },
        {
          "internalType": "uint256",
          "name": "totalShards",
          "type": "uint256"
        }
      ],
      "stateMutability": "view",
      "type": "function"
    },
    {
      "inputs": [],
      "name": "nftAccessEnabled",
      "outputs": [
        {
          "internalType": "bool",
          "name": "",
          "type": "bool"
        }
      ],
      "stateMutability": "view",
      "type": "function"
    },
    {
      "inputs": [],
      "name": "owner",
      "outputs": [
        {
          "internalType": "address",
          "name": "",
          "type": "address"
        }
      ],
      "stateMutability": "view",
      "type": "function"
    },
    {
      "inputs": [],
      "name": "renounceOwnership",
      "outputs": [],
      "stateMutability": "nonpayable",
      "type": "function"
    },
    {
      "inputs": [
        {
          "internalType": "bytes32",
          "name": "participantId",
          "type": "bytes32"
        },
        {
          "internalType": "uint256",
          "name": "memoryId",
          "type": "uint256"
        },
        {
          "internalType": "bytes32",
          "name": "requesterId",
          "type": "bytes32"
        }
      ],
      "name": "retrieveMemory",
      "outputs": [
        {
          "components": [
            {
              "internalType": "string",
              "name": "cid",
              "type": "string"
            },
            {
              "internalType": "bytes32",
              "name": "encryptionKeyHash",
              "type": "bytes32"
            },
            {
              "internalType": "uint256",
              "name": "timestamp",
              "type": "uint256"
            },
            {
              "internalType": "uint256",
              "name": "expiration",
              "type": "uint256"
            },
            {
              "internalType": "bool",
              "name": "isShard",
              "type": "bool"
            },
            {
              "internalType": "uint256",
              "name": "totalShards",
              "type": "uint256"
            },
            {
              "internalType": "bytes32[]",
              "name": "shardCids",
              "type": "bytes32[]"
            }
          ],
          "internalType": "struct MemoryRegistry.MemoryEntry",
          "name": "",
          "type": "tuple"
        }
      ],
      "stateMutability": "view",
      "type": "function"
    },
    {
      "inputs": [
        {
          "internalType": "bytes32",
          "name": "participantId",
          "type": "bytes32"
        },
        {
          "internalType": "bytes32",
          "name": "delegate",
          "type": "bytes32"
        }
      ],
      "name": "revokeDelegation",
      "outputs": [],
      "stateMutability": "nonpayable",
      "type": "function"
    },
    {
      "inputs": [
        {
          "internalType": "address",
          "name": "_accessNFT",
          "type": "address"
        }
      ],
      "name": "setAccessNFT",
      "outputs": [],
      "stateMutability": "nonpayable",
      "type": "function"
    },
    {
      "inputs": [
        {
          "internalType": "bool",
          "name": "_enabled",
          "type": "bool"
        }
      ],
      "name": "setNFTAccessEnabled",
      "outputs": [],
      "stateMutability": "nonpayable",
      "type": "function"
    },
    {
      "inputs": [
        {
          "internalType": "bytes32",
          "name": "participantId",
          "type": "bytes32"
        },
        {
          "internalType": "string",
          "name": "cid",
          "type": "string"
        },
        {
          "internalType": "bytes32",
          "name": "encryptionKeyHash",
          "type": "bytes32"
        },
        {
          "internalType": "uint256",
          "name": "expiration",
          "type": "uint256"
        },
        {
          "internalType": "bool",
          "name": "isShard",
          "type": "bool"
        },
        {
          "internalType": "uint256",
          "name": "totalShards",
          "type": "uint256"
        },
        {
          "internalType": "bytes32[]",
          "name": "shardCids",
          "type": "bytes32[]"
        }
      ],
      "name": "storeMemory",
      "outputs": [
        {
          "internalType": "uint256",
          "name": "memoryId",
          "type": "uint256"
        }
      ],
      "stateMutability": "nonpayable",
      "type": "function"
    },
    {
      "inputs": [
        {
          "internalType": "address",
          "name": "newOwner",
          "type": "address"
        }
      ],
      "name": "transferOwnership",
      "outputs": [],
      "stateMutability": "nonpayable",
      "type": "function"
    }
  ],
  "bytecode": "0x60806040526004805460ff60a01b1916600160a01b179055348015610022575f80fd5b506040516115e03803806115e083398101604081905261004191610108565b338061006657604051631e4fbdf760e01b81525f600482015260240160405180910390fd5b61006f816100b9565b5060017f9b779b17422d0df92223018b32b4d1fa46e071723d6817e2486d003becc55f0055600480546001600160a01b0319166001600160a01b0392909216919091179055610135565b5f80546001600160a01b038381166001600160a01b0319831681178455604051919092169283917f8be0079c531659141344cd1fd0a4f28419497f9722a3daafe3b4186f6b6457e09190a35050565b5f60208284031215610118575f80fd5b81516001600160a01b038116811461012e575f80fd5b9392505050565b61149e806101425f395ff3fe608060405234801561000f575f80fd5b5060043610610106575f3560e01c8063715018a61161009e578063da122fe41161006e578063da122fe414610274578063eda3df9d14610294578063f2fde38b146102a7578063fd2275e6146102ba578063fe19a29f146102cd575f80fd5b8063715018a6146102225780638da5cb5b1461022a578063b9352c511461024e578063c841ba9914610261575f80fd5b806347c0aa00116100d957806347c0aa00146101805780635327ca13146101b957806353f91196146101d8578063687b3f39146101f8575f80fd5b806329a048531461010a5780632a2f3072146101335780632fceb89a14610146578063429c9a5a1461016b575b5f80fd5b60045461011e90600160a01b900460ff1681565b60405190151581526020015b60405180910390f35b61011e610141366004610e69565b6102e0565b610159610154366004610e69565b61034c565b60405161012a96959493929190610eb7565b61017e610179366004610ef4565b610429565b005b6101ab61018e366004610f35565b805160208183018101805160028252928201919093012091525481565b60405190815260200161012a565b6101ab6101c7366004610fe8565b5f9081526001602052604090205490565b6101eb6101e6366004610fe8565b61047a565b60405161012a9190611099565b6101ab610206366004610e69565b600360209081525f928352604080842090915290825290205481565b61017e61060e565b5f546001600160a01b03165b6040516001600160a01b03909116815260200161012a565b600454610236906001600160a01b031681565b6101ab61026f366004611161565b610621565b610287610282366004611236565b610886565b60405161012a919061125f565b61017e6102a2366004611236565b610b55565b61017e6102b5366004610ef4565b610bf9565b61017e6102c8366004611271565b610c36565b61017e6102db366004610e69565b610c96565b5f8183036102f057506001610346565b5f83815260036020908152604080832085845290915290205442101561031857506001610346565b600454600160a01b900460ff16801561033657506103368284610cdf565b1561034357506001610346565b505f5b92915050565b6001602052815f5260405f208181548110610365575f80fd5b905f5260205f2090600702015f9150915050805f0180546103859061128c565b80601f01602080910402602001604051908101604052809291908181526020018280546103b19061128c565b80156103fc5780601f106103d3576101008083540402835291602001916103fc565b820191905f5260205f20905b8154815290600101906020018083116103df57829003601f168201915b505050506001830154600284015460038501546004860154600590960154949592949193509160ff169086565b610431610d91565b600480546001600160a01b0319166001600160a01b0383169081179091556040517ff2610996d245d9b77e4ff84c2174eea0b76fb44c422218404f66e28816d78fb9905f90a250565b606060015f8381526020019081526020015f20805480602002602001604051908101604052809291908181526020015f905b82821015610603578382905f5260205f2090600702016040518060e00160405290815f820180546104dc9061128c565b80601f01602080910402602001604051908101604052809291908181526020018280546105089061128c565b80156105535780601f1061052a57610100808354040283529160200191610553565b820191905f5260205f20905b81548152906001019060200180831161053657829003601f168201915b50505050508152602001600182015481526020016002820154815260200160038201548152602001600482015f9054906101000a900460ff1615151515815260200160058201548152602001600682018054806020026020016040519081016040528092919081815260200182805480156105eb57602002820191905f5260205f20905b8154815260200190600101908083116105d7575b505050505081525050815260200190600101906104ac565b505050509050919050565b610616610d91565b61061f5f610dbd565b565b5f876106605760405162461bcd60e51b8152602060048201526009602482015268115b5c1d1e4810d25160ba1b60448201526064015b60405180910390fd5b5f801b60028a8a6040516106759291906112c4565b908152602001604051809103902054146106c65760405162461bcd60e51b815260206004820152601260248201527143494420616c72656164792065786973747360701b6044820152606401610657565b604080516101006020601f8c01819004028201810190925260e081018a81525f928291908d908d90819085018382808284375f9201919091525050509082525060208082018b905242604080840191909152606083018b9052891515608084015260a083018990528051878302818101840190925287815260c09093019291889188918291908501908490808284375f9201829052509390945250508d815260016020818152604083208054928301815583529091208351939450849360079092020191508190610797908261131f565b5060208281015160018301556040830151600283015560608301516003830155608083015160048301805460ff191691151591909117905560a0830151600583015560c083015180516107f09260068501920190610e0c565b5050508a60028b8b6040516108069291906112c4565b9081526020016040518091039020819055506001805f8d81526020019081526020015f208054905061083891906113da565b91508a7f108c42d23f11799a4f0636a811fc090800389c4b1b85fba59d5b9f347412d56f8b8b428a60405161087094939291906113f9565b60405180910390a2509998505050505050505050565b6108c66040518060e00160405280606081526020015f80191681526020015f81526020015f81526020015f151581526020015f8152602001606081525090565b5f8481526001602052604090205483106109165760405162461bcd60e51b8152602060048201526011602482015270125b9d985b1a59081b595b5bdc9e481251607a1b6044820152606401610657565b5f84815260016020526040812080548590811061093557610935611439565b905f5260205f20906007020190505f8160030154111561099357806003015442106109935760405162461bcd60e51b815260206004820152600e60248201526d13595b5bdc9e48195e1c1a5c995960921b6044820152606401610657565b848314806109b857505f85815260036020908152604080832086845290915290205442105b806109dc5750600454600160a01b900460ff1680156109dc57506109dc8386610cdf565b610a185760405162461bcd60e51b815260206004820152600d60248201526c1058d8d95cdcc819195b9a5959609a1b6044820152606401610657565b806040518060e00160405290815f82018054610a339061128c565b80601f0160208091040260200160405190810160405280929190818152602001828054610a5f9061128c565b8015610aaa5780601f10610a8157610100808354040283529160200191610aaa565b820191905f5260205f20905b815481529060010190602001808311610a8d57829003601f168201915b50505050508152602001600182015481526020016002820154815260200160038201548152602001600482015f9054906101000a900460ff161515151581526020016005820154815260200160068201805480602002602001604051908101604052809291908181526020018280548015610b4257602002820191905f5260205f20905b815481526020019060010190808311610b2e575b5050505050815250509150509392505050565b428111610ba45760405162461bcd60e51b815260206004820152601960248201527f45787069726174696f6e206d75737420626520667574757265000000000000006044820152606401610657565b5f8381526003602090815260408083208584528252918290208390559051828152839185917f94dfda7e74e67cdd2b955193e5674fd8b9e08ca9eddbdc5c8ae409224e437bbd910160405180910390a3505050565b610c01610d91565b6001600160a01b038116610c2a57604051631e4fbdf760e01b81525f6004820152602401610657565b610c3381610dbd565b50565b610c3e610d91565b60048054821515600160a01b0260ff60a01b199091161790556040517fb7aa57fcebf80f728c0520321479e135065a6a0f3b1a402e0a977ddb1e6405ae90610c8b90831515815260200190565b60405180910390a150565b5f82815260036020908152604080832084845290915280822082905551829184917faf4fc1e522c8950216ec848aa5414570b302b1b4a392879aff32d629833621359190a35050565b6004545f906001600160a01b0316610cf857505f610346565b6004805460405163b4b7580d60e01b81526001600160a01b038087168285015260248201869052606060448301526064820193909352631c99585960e21b608482015285929091169063b4b7580d9060a401602060405180830381865afa158015610d65573d5f803e3d5ffd5b505050506040513d601f19601f82011682018060405250810190610d89919061144d565b949350505050565b5f546001600160a01b0316331461061f5760405163118cdaa760e01b8152336004820152602401610657565b5f80546001600160a01b038381166001600160a01b0319831681178455604051919092169283917f8be0079c531659141344cd1fd0a4f28419497f9722a3daafe3b4186f6b6457e09190a35050565b828054828255905f5260205f20908101928215610e45579160200282015b82811115610e45578251825591602001919060010190610e2a565b50610e51929150610e55565b5090565b5b80821115610e51575f8155600101610e56565b5f8060408385031215610e7a575f80fd5b50508035926020909101359150565b5f81518084528060208401602086015e5f602082860101526020601f19601f83011685010191505092915050565b60c081525f610ec960c0830189610e89565b602083019790975250604081019490945260608401929092521515608083015260a090910152919050565b5f60208284031215610f04575f80fd5b81356001600160a01b0381168114610f1a575f80fd5b9392505050565b634e487b7160e01b5f52604160045260245ffd5b5f60208284031215610f45575f80fd5b813567ffffffffffffffff811115610f5b575f80fd5b8201601f81018413610f6b575f80fd5b803567ffffffffffffffff811115610f8557610f85610f21565b604051601f8201601f19908116603f0116810167ffffffffffffffff81118282101715610fb457610fb4610f21565b604052818152828201602001861015610fcb575f80fd5b816020840160208301375f91810160200191909152949350505050565b5f60208284031215610ff8575f80fd5b5035919050565b5f815160e0845261101360e0850182610e89565b905060208301516020850152604083015160408501526060830151606085015260808301511515608085015260a083015160a085015260c083015184820360c08601528181518084526020840191506020830193505f92505b8083101561108f578351825260208201915060208401935060018301925061106c565b5095945050505050565b5f602082016020835280845180835260408501915060408160051b8601019250602086015f5b828110156110f057603f198786030184526110db858351610fff565b945060209384019391909101906001016110bf565b50929695505050505050565b8015158114610c33575f80fd5b8035611114816110fc565b919050565b5f8083601f840112611129575f80fd5b50813567ffffffffffffffff811115611140575f80fd5b6020830191508360208260051b850101111561115a575f80fd5b9250929050565b5f805f805f805f805f60e08a8c031215611179575f80fd5b8935985060208a013567ffffffffffffffff811115611196575f80fd5b8a01601f81018c136111a6575f80fd5b803567ffffffffffffffff8111156111bc575f80fd5b8c60208284010111156111cd575f80fd5b6020919091019850965060408a0135955060608a013594506111f160808b01611109565b935060a08a0135925060c08a013567ffffffffffffffff811115611213575f80fd5b61121f8c828d01611119565b915080935050809150509295985092959850929598565b5f805f60608486031215611248575f80fd5b505081359360208301359350604090920135919050565b602081525f610f1a6020830184610fff565b5f60208284031215611281575f80fd5b8135610f1a816110fc565b600181811c908216806112a057607f821691505b6020821081036112be57634e487b7160e01b5f52602260045260245ffd5b50919050565b818382375f9101908152919050565b601f82111561131a57805f5260205f20601f840160051c810160208510156112f85750805b601f840160051c820191505b81811015611317575f8155600101611304565b50505b505050565b815167ffffffffffffffff81111561133957611339610f21565b61134d81611347845461128c565b846112d3565b6020601f82116001811461137f575f83156113685750848201515b5f19600385901b1c1916600184901b178455611317565b5f84815260208120601f198516915b828110156113ae578785015182556020948501946001909201910161138e565b50848210156113cb57868401515f19600387901b60f8161c191681555b50505050600190811b01905550565b8181038181111561034657634e487b7160e01b5f52601160045260245ffd5b60608152836060820152838560808301375f608085830101525f6080601f19601f8701168301019050836020830152821515604083015295945050505050565b634e487b7160e01b5f52603260045260245ffd5b5f6020828403121561145d575f80fd5b8151610f1a816110fc56fea26469706673582212207e5038840370b40ba43b5bfd7a787d7e9390366874b172cd2bca07cf4633c05964736f6c634300081a0033",
  "linkReferences": {},
  "deployedLinkReferences": {}
}